{
  "address": "0x479AEB0190C3B758287C77e630b647A53E9c5156",
  "abi": [
    {
      "inputs": [
        {
          "internalType": "string",
          "name": "name_",
          "type": "string"
        },
        {
          "internalType": "string",
          "name": "symbol_",
          "type": "string"
        }
      ],
      "stateMutability": "nonpayable",
      "type": "constructor"
    },
    {
      "anonymous": false,
      "inputs": [
        {
          "indexed": true,
          "internalType": "address",
          "name": "owner",
          "type": "address"
        },
        {
          "indexed": true,
          "internalType": "address",
          "name": "spender",
          "type": "address"
        },
        {
          "indexed": false,
          "internalType": "uint256",
          "name": "value",
          "type": "uint256"
        }
      ],
      "name": "Approval",
      "type": "event"
    },
    {
      "anonymous": false,
      "inputs": [
        {
          "indexed": true,
          "internalType": "address",
          "name": "account_",
          "type": "address"
        },
        {
          "indexed": false,
          "internalType": "uint256",
          "name": "reward_",
          "type": "uint256"
        }
      ],
      "name": "RewardPaid",
      "type": "event"
    },
    {
      "anonymous": false,
      "inputs": [
        {
          "indexed": true,
          "internalType": "address",
          "name": "account_",
          "type": "address"
        },
        {
          "indexed": false,
          "internalType": "uint256",
          "name": "amount_",
          "type": "uint256"
        }
      ],
      "name": "Staked",
      "type": "event"
    },
    {
      "anonymous": false,
      "inputs": [
        {
          "indexed": true,
          "internalType": "address",
          "name": "from",
          "type": "address"
        },
        {
          "indexed": true,
          "internalType": "address",
          "name": "to",
          "type": "address"
        },
        {
          "indexed": false,
          "internalType": "uint256",
          "name": "value",
          "type": "uint256"
        }
      ],
      "name": "Transfer",
      "type": "event"
    },
    {
      "anonymous": false,
      "inputs": [
        {
          "indexed": true,
          "internalType": "address",
          "name": "account_",
          "type": "address"
        },
        {
          "indexed": false,
          "internalType": "uint256",
          "name": "amount_",
          "type": "uint256"
        }
      ],
      "name": "Unstaked",
      "type": "event"
    },
    {
      "inputs": [
        {
          "internalType": "address",
          "name": "owner",
          "type": "address"
        },
        {
          "internalType": "address",
          "name": "spender",
          "type": "address"
        }
      ],
      "name": "allowance",
      "outputs": [
        {
          "internalType": "uint256",
          "name": "",
          "type": "uint256"
        }
      ],
      "stateMutability": "view",
      "type": "function"
    },
    {
      "inputs": [
        {
          "internalType": "address",
          "name": "spender",
          "type": "address"
        },
        {
          "internalType": "uint256",
          "name": "amount",
          "type": "uint256"
        }
      ],
      "name": "approve",
      "outputs": [
        {
          "internalType": "bool",
          "name": "",
          "type": "bool"
        }
      ],
      "stateMutability": "nonpayable",
      "type": "function"
    },
    {
      "inputs": [
        {
          "internalType": "address",
          "name": "account",
          "type": "address"
        }
      ],
      "name": "balanceOf",
      "outputs": [
        {
          "internalType": "uint256",
          "name": "",
          "type": "uint256"
        }
      ],
      "stateMutability": "view",
      "type": "function"
    },
    {
      "inputs": [
        {
          "internalType": "address",
          "name": "account",
          "type": "address"
        }
      ],
      "name": "balanceStakedOf",
      "outputs": [
        {
          "internalType": "uint256",
          "name": "",
          "type": "uint256"
        }
      ],
      "stateMutability": "view",
      "type": "function"
    },
    {
      "inputs": [
        {
          "internalType": "uint256",
          "name": "",
          "type": "uint256"
        }
      ],
      "name": "cliffByMultiplier",
      "outputs": [
        {
          "internalType": "uint256",
          "name": "",
          "type": "uint256"
        }
      ],
      "stateMutability": "view",
      "type": "function"
    },
    {
      "inputs": [],
      "name": "decimals",
      "outputs": [
        {
          "internalType": "uint8",
          "name": "",
          "type": "uint8"
        }
      ],
      "stateMutability": "view",
      "type": "function"
    },
    {
      "inputs": [
        {
          "internalType": "address",
          "name": "spender",
          "type": "address"
        },
        {
          "internalType": "uint256",
          "name": "subtractedValue",
          "type": "uint256"
        }
      ],
      "name": "decreaseAllowance",
      "outputs": [
        {
          "internalType": "bool",
          "name": "",
          "type": "bool"
        }
      ],
      "stateMutability": "nonpayable",
      "type": "function"
    },
    {
      "inputs": [
        {
          "internalType": "address",
          "name": "account",
          "type": "address"
        }
      ],
      "name": "earned",
      "outputs": [
        {
          "internalType": "uint256",
          "name": "",
          "type": "uint256"
        }
      ],
      "stateMutability": "view",
      "type": "function"
    },
    {
      "inputs": [],
      "name": "exit",
      "outputs": [],
      "stateMutability": "nonpayable",
      "type": "function"
    },
    {
      "inputs": [],
      "name": "finishingPeriod",
      "outputs": [
        {
          "internalType": "uint256",
          "name": "",
          "type": "uint256"
        }
      ],
      "stateMutability": "view",
      "type": "function"
    },
    {
      "inputs": [],
      "name": "getReward",
      "outputs": [],
      "stateMutability": "nonpayable",
      "type": "function"
    },
    {
      "inputs": [],
      "name": "getTimestamp",
      "outputs": [
        {
          "internalType": "uint256",
          "name": "",
          "type": "uint256"
        }
      ],
      "stateMutability": "view",
      "type": "function"
    },
    {
      "inputs": [
        {
          "internalType": "address",
          "name": "spender",
          "type": "address"
        },
        {
          "internalType": "uint256",
          "name": "addedValue",
          "type": "uint256"
        }
      ],
      "name": "increaseAllowance",
      "outputs": [
        {
          "internalType": "bool",
          "name": "",
          "type": "bool"
        }
      ],
      "stateMutability": "nonpayable",
      "type": "function"
    },
    {
      "inputs": [],
      "name": "lastTimeRewardApplicable",
      "outputs": [
        {
          "internalType": "uint256",
          "name": "",
          "type": "uint256"
        }
      ],
      "stateMutability": "view",
      "type": "function"
    },
    {
      "inputs": [],
      "name": "lastUpdateTime",
      "outputs": [
        {
          "internalType": "uint256",
          "name": "",
          "type": "uint256"
        }
      ],
      "stateMutability": "view",
      "type": "function"
    },
    {
      "inputs": [],
      "name": "name",
      "outputs": [
        {
          "internalType": "string",
          "name": "",
          "type": "string"
        }
      ],
      "stateMutability": "view",
      "type": "function"
    },
    {
      "inputs": [],
      "name": "rewardPerToken",
      "outputs": [
        {
          "internalType": "uint256",
          "name": "",
          "type": "uint256"
        }
      ],
      "stateMutability": "view",
      "type": "function"
    },
    {
      "inputs": [],
      "name": "rewardPerTokenStored",
      "outputs": [
        {
          "internalType": "uint256",
          "name": "",
          "type": "uint256"
        }
      ],
      "stateMutability": "view",
      "type": "function"
    },
    {
      "inputs": [],
      "name": "rewardTokenSum",
      "outputs": [
        {
          "internalType": "uint256",
          "name": "",
          "type": "uint256"
        }
      ],
      "stateMutability": "view",
      "type": "function"
    },
    {
      "inputs": [
        {
          "internalType": "address",
          "name": "",
          "type": "address"
        }
      ],
      "name": "rewards",
      "outputs": [
        {
          "internalType": "uint256",
          "name": "",
          "type": "uint256"
        }
      ],
      "stateMutability": "view",
      "type": "function"
    },
    {
      "inputs": [
        {
          "internalType": "uint256",
          "name": "amount_",
          "type": "uint256"
        }
      ],
      "name": "stake",
      "outputs": [],
      "stateMutability": "nonpayable",
      "type": "function"
    },
    {
      "inputs": [],
      "name": "symbol",
      "outputs": [
        {
          "internalType": "string",
          "name": "",
          "type": "string"
        }
      ],
      "stateMutability": "view",
      "type": "function"
    },
    {
      "inputs": [],
      "name": "totalStakedSum",
      "outputs": [
        {
          "internalType": "uint256",
          "name": "",
          "type": "uint256"
        }
      ],
      "stateMutability": "view",
      "type": "function"
    },
    {
      "inputs": [],
      "name": "totalSupply",
      "outputs": [
        {
          "internalType": "uint256",
          "name": "",
          "type": "uint256"
        }
      ],
      "stateMutability": "view",
      "type": "function"
    },
    {
      "inputs": [
        {
          "internalType": "address",
          "name": "to",
          "type": "address"
        },
        {
          "internalType": "uint256",
          "name": "amount",
          "type": "uint256"
        }
      ],
      "name": "transfer",
      "outputs": [
        {
          "internalType": "bool",
          "name": "",
          "type": "bool"
        }
      ],
      "stateMutability": "nonpayable",
      "type": "function"
    },
    {
      "inputs": [
        {
          "internalType": "address",
          "name": "from",
          "type": "address"
        },
        {
          "internalType": "address",
          "name": "to",
          "type": "address"
        },
        {
          "internalType": "uint256",
          "name": "amount",
          "type": "uint256"
        }
      ],
      "name": "transferFrom",
      "outputs": [
        {
          "internalType": "bool",
          "name": "",
          "type": "bool"
        }
      ],
      "stateMutability": "nonpayable",
      "type": "function"
    },
    {
      "inputs": [
        {
          "internalType": "uint256",
          "name": "amount_",
          "type": "uint256"
        }
      ],
      "name": "unstaked",
      "outputs": [],
      "stateMutability": "nonpayable",
      "type": "function"
    },
    {
      "inputs": [
        {
          "internalType": "uint256",
          "name": "amountReward_",
          "type": "uint256"
        }
      ],
      "name": "updateRewardToDistribute",
      "outputs": [],
      "stateMutability": "nonpayable",
      "type": "function"
    },
    {
      "inputs": [
        {
          "internalType": "uint256",
          "name": "",
          "type": "uint256"
        }
      ],
      "name": "userByMultiplier",
      "outputs": [
        {
          "internalType": "uint256",
          "name": "",
          "type": "uint256"
        }
      ],
      "stateMutability": "view",
      "type": "function"
    },
    {
      "inputs": [
        {
          "internalType": "address",
          "name": "",
          "type": "address"
        }
      ],
      "name": "userRewardPaidPerToken",
      "outputs": [
        {
          "internalType": "uint256",
          "name": "",
          "type": "uint256"
        }
      ],
      "stateMutability": "view",
      "type": "function"
    }
  ],
  "transactionHash": "0xe4e4ea249dac5c1c96bb2fc12a2443d063221ef24d676c0e24bfa51d49d8343f",
  "args": [
    "Testnet ML",
    "TML"
  ],
  "numDeployments": 1,
  "solcInputHash": "a096975756066e6a7b4e506989bb2570",
  "bytecode": "0x60806040523480156200001157600080fd5b50604051620020af380380620020af83398101604081905262000034916200034d565b8151829082906200004d906003906020850190620001f4565b50805162000063906004906020840190620001f4565b5050671158e460913d000060005250600b602052622835c07fda9eb315478bdde404a955b4357bc4b01f7b62f540d63fc2864741298c28f845819055620000ac906002620003b4565b6714d1120d7b160000600052600b6020527fcee7f7ca622dfd9975fb3b3d435b6ce1ac0f4517b49fcac8c55e062a9dee97e455620000ef622835c06003620003b4565b6718493fba64ef0000600052600b6020527f2dbf456a76f61715b7833b0d3a3c9ae8bd313743a315e03bca877de0b16294aa5562000132622835c06004620003b4565b671bc16d674ec80000600052600b6020527f7dc51eef208d38da204be6d1451f5810f525d2e73f6f07096c175852a9c7ceff5562000175622835c06005620003b4565b671f399b1438a10000600052600b6020527f0af929689cc2a7405c8e6b3805ff901389a008a6e0c5c3a1fda2ef7f98d639f355620001b8622835c06006620003b4565b6722b1c8c1227a0000600052600b6020527fb25248696de47cb8b1f850d519309f997c96beecfcf054d5132bd951b15092145550620004339050565b8280546200020290620003e0565b90600052602060002090601f01602090048101928262000226576000855562000271565b82601f106200024157805160ff191683800117855562000271565b8280016001018555821562000271579182015b828111156200027157825182559160200191906001019062000254565b506200027f92915062000283565b5090565b5b808211156200027f576000815560010162000284565b600082601f830112620002ab578081fd5b81516001600160401b0380821115620002c857620002c86200041d565b604051601f8301601f19908116603f01168101908282118183101715620002f357620002f36200041d565b816040528381526020925086838588010111156200030f578485fd5b8491505b8382101562000332578582018301518183018401529082019062000313565b838211156200034357848385830101525b9695505050505050565b6000806040838503121562000360578182fd5b82516001600160401b038082111562000377578384fd5b62000385868387016200029a565b935060208501519150808211156200039b578283fd5b50620003aa858286016200029a565b9150509250929050565b6000816000190483118215151615620003db57634e487b7160e01b81526011600452602481fd5b500290565b600281046001821680620003f557607f821691505b602082108114156200041757634e487b7160e01b600052602260045260246000fd5b50919050565b634e487b7160e01b600052604160045260246000fd5b611c6c80620004436000396000f3fe608060405234801561001057600080fd5b50600436106101d95760003560e01c80636c9db04111610104578063a9059cbb116100a2578063cd3daf9d11610071578063cd3daf9d14610392578063dd62ed3e1461039a578063df136d65146103ad578063e9fad8ee146103b5576101d9565b8063a9059cbb14610351578063bcd085de14610364578063bf9c89bb14610377578063c8f33c911461038a576101d9565b8063862f62b4116100de578063862f62b41461031057806395d89b4114610323578063a457c2d71461032b578063a694fc3a1461033e576101d9565b80636c9db041146102e257806370a08231146102f557806380faa57d14610308576101d9565b806323b872dd1161017c578063419ed2681161014b578063419ed268146102ac57806344615464146102bf57806346e146ce146102c757806369ceaff3146102cf576101d9565b806323b872dd14610267578063313ce5671461027a578063395093511461028f5780633d18b912146102a2576101d9565b8063095ea7b3116101b8578063095ea7b31461022f578063122a41391461024f57806318160ddd14610257578063188ec3561461025f576101d9565b80628cc262146101de57806306fdde03146102075780630700037d1461021c575b600080fd5b6101f16101ec36600461147b565b6103bd565b6040516101fe9190611acb565b60405180910390f35b61020f610457565b6040516101fe9190611664565b6101f161022a36600461147b565b6104ea565b61024261023d366004611502565b6104fc565b6040516101fe9190611659565b6101f161051e565b6101f1610524565b6101f161052a565b6102426102753660046114c7565b61052e565b61028261055c565b6040516101fe9190611ad4565b61024261029d366004611502565b610561565b6102aa61058d565b005b6101f16102ba36600461154b565b610597565b6101f16105a9565b6101f1610658565b6101f16102dd36600461147b565b61065e565b6102aa6102f036600461154b565b610670565b6101f161030336600461147b565b6107c5565b6101f16107ed565b6102aa61031e36600461154b565b610805565b61020f610811565b610242610339366004611502565b610820565b6102aa61034c36600461154b565b610868565b61024261035f366004611502565b6109ad565b6101f161037236600461154b565b6109c5565b6101f161038536600461147b565b6109d7565b6101f16109ff565b6101f1610a05565b6101f16103a8366004611495565b610a59565b6101f1610a91565b6102aa610a97565b73ffffffffffffffffffffffffffffffffffffffff8116600090815260096020908152604080832054600c90925282205461044f919061044990670de0b6b3a7640000906104439061041790610411610a05565b90610ab0565b73ffffffffffffffffffffffffffffffffffffffff88166000908152600d602052604090205490610ac3565b90610acf565b90610adb565b90505b919050565b60606003805461046690611bb3565b80601f016020809104026020016040519081016040528092919081815260200182805461049290611bb3565b80156104df5780601f106104b4576101008083540402835291602001916104df565b820191906000526020600020905b8154815290600101906020018083116104c257829003601f168201915b505050505090505b90565b60096020526000908152604090205481565b600080610507610ae7565b9050610514818585610aeb565b5060019392505050565b60055481565b60025490565b4290565b600080610539610ae7565b9050610546858285610bc6565b610551858585610c2e565b506001949350505050565b601290565b60008061056c610ae7565b905061051481858561057e8589610a59565b6105889190611ae2565b610aeb565b610595610d63565b565b600b6020526000908152604090205481565b6008546040517f70a082310000000000000000000000000000000000000000000000000000000081526000916106539173281e2cc83bd4a9930903aaa0a8cd1b521c1eb562906370a08231906106039030906004016115e1565b60206040518083038186803b15801561061b57600080fd5b505afa15801561062f573d6000803e3d6000fd5b505050506040513d601f19601f820116820180604052508101906104119190611563565b905090565b60085490565b600c6020526000908152604090205481565b600061067a610a05565b6007556106856107ed565b60065573ffffffffffffffffffffffffffffffffffffffff8116156106e6576106ad816103bd565b73ffffffffffffffffffffffffffffffffffffffff8216600090815260096020908152604080832093909355600754600c909152919020555b6000821161070f5760405162461bcd60e51b8152600401610706906118b2565b60405180910390fd5b61072f73281e2cc83bd4a9930903aaa0a8cd1b521c1eb562333085610e6d565b61074d61074667a98b689fdda0e4006104436105a9565b4290610adb565b60055560408051602081019091526000815261076890610f10565b61078060405180602001604052806000815250610f10565b6107c16040518060400160405280601081526020017f626c6f717565732066696e697368656400000000000000000000000000000000815250600554610f9f565b5050565b73ffffffffffffffffffffffffffffffffffffffff1660009081526020819052604090205490565b6000600554421061080057600554610653565b504290565b61080e81611030565b50565b60606004805461046690611bb3565b60008061082b610ae7565b905060006108398286610a59565b90508381101561085b5760405162461bcd60e51b815260040161070690611a37565b6105518286868403610aeb565b33610871610a05565b60075561087c6107ed565b60065573ffffffffffffffffffffffffffffffffffffffff8116156108dd576108a4816103bd565b73ffffffffffffffffffffffffffffffffffffffff8216600090815260096020908152604080832093909355600754600c909152919020555b600082116108fd5760405162461bcd60e51b815260040161070690611753565b60085461090a9083610adb565b600855336000908152600d60205260409020546109279083610adb565b336000818152600d602052604090209190915561095b9073281e2cc83bd4a9930903aaa0a8cd1b521c1eb562903085610e6d565b3373ffffffffffffffffffffffffffffffffffffffff167f9e71bc8eea02a63969f509818f2dafb9254532904319f9dbda79b67bd34a5f3d836040516109a19190611acb565b60405180910390a25050565b6000806109b8610ae7565b9050610514818585610c2e565b600a6020526000908152604090205481565b73ffffffffffffffffffffffffffffffffffffffff166000908152600d602052604090205490565b60065481565b600060085460001415610a1b57506007546104e7565b610653610a50600854610443670de0b6b3a7640000610a4a67a98b689fdda0e400610a4a6006546104116107ed565b90610ac3565b60075490610adb565b73ffffffffffffffffffffffffffffffffffffffff918216600090815260016020908152604080832093909416825291909152205490565b60075481565b336000908152600d602052604090205461058d90611030565b6000610abc8284611b70565b9392505050565b6000610abc8284611b33565b6000610abc8284611afa565b6000610abc8284611ae2565b3390565b73ffffffffffffffffffffffffffffffffffffffff8316610b1e5760405162461bcd60e51b815260040161070690611946565b73ffffffffffffffffffffffffffffffffffffffff8216610b515760405162461bcd60e51b8152600401610706906116f6565b73ffffffffffffffffffffffffffffffffffffffff80841660008181526001602090815260408083209487168084529490915290819020849055517f8c5be1e5ebec7d5bd14f71427d1e84f3dd0314c0f7b2291e5b200ac8c7c3b92590610bb9908590611acb565b60405180910390a3505050565b6000610bd28484610a59565b90507fffffffffffffffffffffffffffffffffffffffffffffffffffffffffffffffff8114610c285781811015610c1b5760405162461bcd60e51b81526004016107069061178a565b610c288484848403610aeb565b50505050565b73ffffffffffffffffffffffffffffffffffffffff8316610c615760405162461bcd60e51b8152600401610706906118e9565b73ffffffffffffffffffffffffffffffffffffffff8216610c945760405162461bcd60e51b815260040161070690611699565b610c9f838383611168565b73ffffffffffffffffffffffffffffffffffffffff831660009081526020819052604090205481811015610ce55760405162461bcd60e51b8152600401610706906117c1565b73ffffffffffffffffffffffffffffffffffffffff80851660008181526020819052604080822086860390559286168082529083902080548601905591517fddf252ad1be2c89b69c2b068fc378daa952ba7f163c4a11628f55a4df523b3ef90610d50908690611acb565b60405180910390a3610c28848484611168565b33610d6c610a05565b600755610d776107ed565b60065573ffffffffffffffffffffffffffffffffffffffff811615610dd857610d9f816103bd565b73ffffffffffffffffffffffffffffffffffffffff8216600090815260096020908152604080832093909355600754600c909152919020555b3360009081526009602052604090205480156107c15733600081815260096020526040812055610e08908261116d565b610e2773281e2cc83bd4a9930903aaa0a8cd1b521c1eb5623383611231565b3373ffffffffffffffffffffffffffffffffffffffff167fe2403640ba68fed3a2f88b7557551d1993f84b99bb10ff833f0cf8db0c5e0486826040516109a19190611acb565b610c28846323b872dd60e01b858585604051602401610e8e93929190611602565b604080517fffffffffffffffffffffffffffffffffffffffffffffffffffffffffffffffe08184030181529190526020810180517bffffffffffffffffffffffffffffffffffffffffffffffffffffffff167fffffffff0000000000000000000000000000000000000000000000000000000090931692909217909152611250565b61080e81604051602401610f249190611664565b604080517fffffffffffffffffffffffffffffffffffffffffffffffffffffffffffffffe08184030181529190526020810180517bffffffffffffffffffffffffffffffffffffffffffffffffffffffff167f41304fac000000000000000000000000000000000000000000000000000000001790526112ec565b6107c18282604051602401610fb5929190611677565b604080517fffffffffffffffffffffffffffffffffffffffffffffffffffffffffffffffe08184030181529190526020810180517bffffffffffffffffffffffffffffffffffffffffffffffffffffffff167fb60e72cc000000000000000000000000000000000000000000000000000000001790526112ec565b33611039610a05565b6007556110446107ed565b60065573ffffffffffffffffffffffffffffffffffffffff8116156110a55761106c816103bd565b73ffffffffffffffffffffffffffffffffffffffff8216600090815260096020908152604080832093909355600754600c909152919020555b600082116110c55760405162461bcd60e51b81526004016107069061187b565b6008546110d29083610ab0565b600855336000908152600d60205260409020546110ef9083610ab0565b336000818152600d60205260409020919091556111229073281e2cc83bd4a9930903aaa0a8cd1b521c1eb5629084611231565b3373ffffffffffffffffffffffffffffffffffffffff167f0f5bb82176feb1b5e747e28471aa92156a04d9f3ab9f45f28e2d704232b93f75836040516109a19190611acb565b505050565b73ffffffffffffffffffffffffffffffffffffffff82166111a05760405162461bcd60e51b815260040161070690611a94565b6111ac60008383611168565b80600260008282546111be9190611ae2565b909155505073ffffffffffffffffffffffffffffffffffffffff8216600081815260208190526040808220805485019055517fddf252ad1be2c89b69c2b068fc378daa952ba7f163c4a11628f55a4df523b3ef9061121d908590611acb565b60405180910390a36107c160008383611168565b6111688363a9059cbb60e01b8484604051602401610e8e929190611633565b60006112b2826040518060400160405280602081526020017f5361666545524332303a206c6f772d6c6576656c2063616c6c206661696c65648152508573ffffffffffffffffffffffffffffffffffffffff1661130d9092919063ffffffff16565b80519091501561116857808060200190518101906112d0919061152b565b6111685760405162461bcd60e51b8152600401610706906119da565b80516a636f6e736f6c652e6c6f67602083016000808483855afa5050505050565b606061131c8484600085611324565b949350505050565b6060824710156113465760405162461bcd60e51b81526004016107069061181e565b6000808673ffffffffffffffffffffffffffffffffffffffff16858760405161136f91906115c5565b60006040518083038185875af1925050503d80600081146113ac576040519150601f19603f3d011682016040523d82523d6000602084013e6113b1565b606091505b50915091506113c2878383876113cd565b979650505050505050565b60608315611407578251611400576113e485611411565b6114005760405162461bcd60e51b8152600401610706906119a3565b508161131c565b61131c838361142d565b73ffffffffffffffffffffffffffffffffffffffff163b151590565b81511561143d5781518083602001fd5b8060405162461bcd60e51b81526004016107069190611664565b803573ffffffffffffffffffffffffffffffffffffffff8116811461045257600080fd5b60006020828403121561148c578081fd5b610abc82611457565b600080604083850312156114a7578081fd5b6114b083611457565b91506114be60208401611457565b90509250929050565b6000806000606084860312156114db578081fd5b6114e484611457565b92506114f260208501611457565b9150604084013590509250925092565b60008060408385031215611514578182fd5b61151d83611457565b946020939093013593505050565b60006020828403121561153c578081fd5b81518015158114610abc578182fd5b60006020828403121561155c578081fd5b5035919050565b600060208284031215611574578081fd5b5051919050565b60008151808452611593816020860160208601611b87565b601f017fffffffffffffffffffffffffffffffffffffffffffffffffffffffffffffffe0169290920160200192915050565b600082516115d7818460208701611b87565b9190910192915050565b73ffffffffffffffffffffffffffffffffffffffff91909116815260200190565b73ffffffffffffffffffffffffffffffffffffffff9384168152919092166020820152604081019190915260600190565b73ffffffffffffffffffffffffffffffffffffffff929092168252602082015260400190565b901515815260200190565b600060208252610abc602083018461157b565b60006040825261168a604083018561157b565b90508260208301529392505050565b60208082526023908201527f45524332303a207472616e7366657220746f20746865207a65726f206164647260408201527f6573730000000000000000000000000000000000000000000000000000000000606082015260800190565b60208082526022908201527f45524332303a20617070726f766520746f20746865207a65726f20616464726560408201527f7373000000000000000000000000000000000000000000000000000000000000606082015260800190565b6020808252600e908201527f43616e6e6f74207374616b652030000000000000000000000000000000000000604082015260600190565b6020808252601d908201527f45524332303a20696e73756666696369656e7420616c6c6f77616e6365000000604082015260600190565b60208082526026908201527f45524332303a207472616e7366657220616d6f756e742065786365656473206260408201527f616c616e63650000000000000000000000000000000000000000000000000000606082015260800190565b60208082526026908201527f416464726573733a20696e73756666696369656e742062616c616e636520666f60408201527f722063616c6c0000000000000000000000000000000000000000000000000000606082015260800190565b60208082526011908201527f43616e6e6f742077697468647261772030000000000000000000000000000000604082015260600190565b6020808252601f908201527f52657761726420746f6b656e20616d6f756e742063616e6e6f74206265203000604082015260600190565b60208082526025908201527f45524332303a207472616e736665722066726f6d20746865207a65726f20616460408201527f6472657373000000000000000000000000000000000000000000000000000000606082015260800190565b60208082526024908201527f45524332303a20617070726f76652066726f6d20746865207a65726f2061646460408201527f7265737300000000000000000000000000000000000000000000000000000000606082015260800190565b6020808252601d908201527f416464726573733a2063616c6c20746f206e6f6e2d636f6e7472616374000000604082015260600190565b6020808252602a908201527f5361666545524332303a204552433230206f7065726174696f6e20646964206e60408201527f6f74207375636365656400000000000000000000000000000000000000000000606082015260800190565b60208082526025908201527f45524332303a2064656372656173656420616c6c6f77616e63652062656c6f7760408201527f207a65726f000000000000000000000000000000000000000000000000000000606082015260800190565b6020808252601f908201527f45524332303a206d696e7420746f20746865207a65726f206164647265737300604082015260600190565b90815260200190565b60ff91909116815260200190565b60008219821115611af557611af5611c07565b500190565b600082611b2e577f4e487b710000000000000000000000000000000000000000000000000000000081526012600452602481fd5b500490565b6000817fffffffffffffffffffffffffffffffffffffffffffffffffffffffffffffffff0483118215151615611b6b57611b6b611c07565b500290565b600082821015611b8257611b82611c07565b500390565b60005b83811015611ba2578181015183820152602001611b8a565b83811115610c285750506000910152565b600281046001821680611bc757607f821691505b60208210811415611c01577f4e487b7100000000000000000000000000000000000000000000000000000000600052602260045260246000fd5b50919050565b7f4e487b7100000000000000000000000000000000000000000000000000000000600052601160045260246000fdfea264697066735822122069cc149c2fbbd6dc4306b729498668780613ce23194a35dc300c975382da20eb64736f6c63430008010033",
  "devdoc": {
    "kind": "dev",
    "methods": {
      "allowance(address,address)": {
        "details": "See {IERC20-allowance}."
      },
      "approve(address,uint256)": {
        "details": "See {IERC20-approve}. NOTE: If `amount` is the maximum `uint256`, the allowance is not updated on `transferFrom`. This is semantically equivalent to an infinite approval. Requirements: - `spender` cannot be the zero address."
      },
      "balanceOf(address)": {
        "details": "See {IERC20-balanceOf}."
      },
      "constructor": {
        "params": {
          "name_": "Name of ERC20 reward token",
          "symbol_": "Symbol of ERC20 reward token*"
        }
      },
      "decimals()": {
        "details": "Returns the number of decimals used to get its user representation. For example, if `decimals` equals `2`, a balance of `505` tokens should be displayed to a user as `5.05` (`505 / 10 ** 2`). Tokens usually opt for a value of 18, imitating the relationship between Ether and Wei. This is the value {ERC20} uses, unless this function is overridden; NOTE: This information is only used for _display_ purposes: it in no way affects any of the arithmetic of the contract, including {IERC20-balanceOf} and {IERC20-transfer}."
      },
      "decreaseAllowance(address,uint256)": {
        "details": "Atomically decreases the allowance granted to `spender` by the caller. This is an alternative to {approve} that can be used as a mitigation for problems described in {IERC20-approve}. Emits an {Approval} event indicating the updated allowance. Requirements: - `spender` cannot be the zero address. - `spender` must have allowance for the caller of at least `subtractedValue`."
      },
      "earned(address)": {
        "details": "Calculate the rewards accumulated by an account up to the current time.*"
      },
      "exit()": {
        "details": "Withdraw all the staked tokens and claim earned rewards."
      },
      "getReward()": {
        "details": "Claim the accumulated rewards."
      },
      "increaseAllowance(address,uint256)": {
        "details": "Atomically increases the allowance granted to `spender` by the caller. This is an alternative to {approve} that can be used as a mitigation for problems described in {IERC20-approve}. Emits an {Approval} event indicating the updated allowance. Requirements: - `spender` cannot be the zero address."
      },
      "name()": {
        "details": "Returns the name of the token."
      },
      "rewardPerToken()": {
        "details": "Calculate the rewards accumulated per token staked up to the current time.*"
      },
      "rewardTokenSum()": {
        "details": "total token sum to be distributed as rewards."
      },
      "stake(uint256)": {
        "details": "Staked tokens to receive rewards.",
        "params": {
          "amount_": "Amount of tokens to be staked.*"
        }
      },
      "symbol()": {
        "details": "Returns the symbol of the token, usually a shorter version of the name."
      },
      "totalSupply()": {
        "details": "See {IERC20-totalSupply}."
      },
      "transfer(address,uint256)": {
        "details": "See {IERC20-transfer}. Requirements: - `to` cannot be the zero address. - the caller must have a balance of at least `amount`."
      },
      "transferFrom(address,address,uint256)": {
        "details": "See {IERC20-transferFrom}. Emits an {Approval} event indicating the updated allowance. This is not required by the EIP. See the note at the beginning of {ERC20}. NOTE: Does not update the allowance if the current allowance is the maximum `uint256`. Requirements: - `from` and `to` cannot be the zero address. - `from` must have a balance of at least `amount`. - the caller must have allowance for ``from``'s tokens of at least `amount`."
      },
      "unstaked(uint256)": {
        "details": "Withdraw staked tokens.",
        "params": {
          "amount_": "Amount of tokens to be withdrawn.*"
        }
      }
    },
    "stateVariables": {
      "STAKING_TOKEN": {
        "details": "Address of the token to partially pay rewards."
      },
      "_balancesStaked": {
        "details": "The balance staked by an account. account => balance*"
      },
      "_totalSumStaked": {
        "details": "total sum of staked tokens."
      },
      "lastUpdateTime": {
        "details": "Timestamp of the last time at which the reward."
      },
      "rewardPerTokenStored": {
        "details": "Accumulated rewards per token staked up to the current time (block.timestamp)."
      },
      "userRewardPaidPerToken": {
        "details": "This represents the accumulated reward per token staked up to the moment of the last (see: lastUpdateTime) update for a specific account. account => rewardCache*"
      }
    },
    "version": 1
  },
  "userdoc": {
    "kind": "user",
    "methods": {
      "finishingPeriod()": {
        "notice": "`finishingPeriod` will store a timestamp to determine until which block (in which block) rewards will continue to be generated. It is calculated based on the amount of tokens to be distributed as rewards, that are deposited into the contract.*"
      }
    },
    "version": 1
  },
  "storageLayout": {
    "storage": [
      {
        "astId": 15,
        "contract": "contracts/MLStaking.sol:MLStaking",
        "label": "_balances",
        "offset": 0,
        "slot": "0",
        "type": "t_mapping(t_address,t_uint256)"
      },
      {
        "astId": 21,
        "contract": "contracts/MLStaking.sol:MLStaking",
        "label": "_allowances",
        "offset": 0,
        "slot": "1",
        "type": "t_mapping(t_address,t_mapping(t_address,t_uint256))"
      },
      {
        "astId": 23,
        "contract": "contracts/MLStaking.sol:MLStaking",
        "label": "_totalSupply",
        "offset": 0,
        "slot": "2",
        "type": "t_uint256"
      },
      {
        "astId": 25,
        "contract": "contracts/MLStaking.sol:MLStaking",
        "label": "_name",
        "offset": 0,
        "slot": "3",
        "type": "t_string_storage"
      },
      {
        "astId": 27,
        "contract": "contracts/MLStaking.sol:MLStaking",
        "label": "_symbol",
        "offset": 0,
        "slot": "4",
        "type": "t_string_storage"
      },
      {
        "astId": 1729,
        "contract": "contracts/MLStaking.sol:MLStaking",
        "label": "finishingPeriod",
        "offset": 0,
        "slot": "5",
        "type": "t_uint256"
      },
      {
        "astId": 1732,
        "contract": "contracts/MLStaking.sol:MLStaking",
        "label": "lastUpdateTime",
        "offset": 0,
        "slot": "6",
        "type": "t_uint256"
      },
      {
        "astId": 1735,
        "contract": "contracts/MLStaking.sol:MLStaking",
        "label": "rewardPerTokenStored",
        "offset": 0,
        "slot": "7",
        "type": "t_uint256"
      },
      {
        "astId": 1738,
        "contract": "contracts/MLStaking.sol:MLStaking",
        "label": "_totalSumStaked",
        "offset": 0,
        "slot": "8",
        "type": "t_uint256"
      },
      {
        "astId": 1742,
        "contract": "contracts/MLStaking.sol:MLStaking",
        "label": "rewards",
        "offset": 0,
        "slot": "9",
        "type": "t_mapping(t_address,t_uint256)"
      },
      {
        "astId": 1746,
        "contract": "contracts/MLStaking.sol:MLStaking",
        "label": "userByMultiplier",
        "offset": 0,
        "slot": "10",
        "type": "t_mapping(t_uint256,t_uint256)"
      },
      {
        "astId": 1750,
        "contract": "contracts/MLStaking.sol:MLStaking",
        "label": "cliffByMultiplier",
        "offset": 0,
        "slot": "11",
        "type": "t_mapping(t_uint256,t_uint256)"
      },
      {
        "astId": 1755,
        "contract": "contracts/MLStaking.sol:MLStaking",
        "label": "userRewardPaidPerToken",
        "offset": 0,
        "slot": "12",
        "type": "t_mapping(t_address,t_uint256)"
      },
      {
        "astId": 1760,
        "contract": "contracts/MLStaking.sol:MLStaking",
        "label": "_balancesStaked",
        "offset": 0,
        "slot": "13",
        "type": "t_mapping(t_address,t_uint256)"
      }
    ],
    "types": {
      "t_address": {
        "encoding": "inplace",
        "label": "address",
        "numberOfBytes": "20"
      },
      "t_mapping(t_address,t_mapping(t_address,t_uint256))": {
        "encoding": "mapping",
        "key": "t_address",
        "label": "mapping(address => mapping(address => uint256))",
        "numberOfBytes": "32",
        "value": "t_mapping(t_address,t_uint256)"
      },
      "t_mapping(t_address,t_uint256)": {
        "encoding": "mapping",
        "key": "t_address",
        "label": "mapping(address => uint256)",
        "numberOfBytes": "32",
        "value": "t_uint256"
      },
      "t_mapping(t_uint256,t_uint256)": {
        "encoding": "mapping",
        "key": "t_uint256",
        "label": "mapping(uint256 => uint256)",
        "numberOfBytes": "32",
        "value": "t_uint256"
      },
      "t_string_storage": {
        "encoding": "bytes",
        "label": "string",
        "numberOfBytes": "32"
      },
      "t_uint256": {
        "encoding": "inplace",
        "label": "uint256",
        "numberOfBytes": "32"
      }
    }
  }
}