{
  "address": "0x311064b94728213f40a20f1B42217FDC4B68f818",
  "abi": [
    {
      "inputs": [
        {
          "internalType": "string",
          "name": "name_",
          "type": "string"
        },
        {
          "internalType": "string",
          "name": "symbol_",
          "type": "string"
        }
      ],
      "stateMutability": "nonpayable",
      "type": "constructor"
    },
    {
      "anonymous": false,
      "inputs": [
        {
          "indexed": true,
          "internalType": "bytes32",
          "name": "root",
          "type": "bytes32"
        }
      ],
      "name": "AddedRoot",
      "type": "event"
    },
    {
      "anonymous": false,
      "inputs": [
        {
          "indexed": true,
          "internalType": "address",
          "name": "owner",
          "type": "address"
        },
        {
          "indexed": true,
          "internalType": "address",
          "name": "spender",
          "type": "address"
        },
        {
          "indexed": false,
          "internalType": "uint256",
          "name": "value",
          "type": "uint256"
        }
      ],
      "name": "Approval",
      "type": "event"
    },
    {
      "anonymous": false,
      "inputs": [
        {
          "indexed": true,
          "internalType": "address",
          "name": "previousOwner",
          "type": "address"
        },
        {
          "indexed": true,
          "internalType": "address",
          "name": "newOwner",
          "type": "address"
        }
      ],
      "name": "OwnershipTransferred",
      "type": "event"
    },
    {
      "anonymous": false,
      "inputs": [
        {
          "indexed": true,
          "internalType": "address",
          "name": "account_",
          "type": "address"
        },
        {
          "indexed": false,
          "internalType": "uint256",
          "name": "reward_",
          "type": "uint256"
        }
      ],
      "name": "RewardPaid",
      "type": "event"
    },
    {
      "anonymous": false,
      "inputs": [
        {
          "indexed": true,
          "internalType": "address",
          "name": "account_",
          "type": "address"
        },
        {
          "indexed": false,
          "internalType": "uint256",
          "name": "amount_",
          "type": "uint256"
        },
        {
          "indexed": false,
          "internalType": "uint256",
          "name": "lockMonths_",
          "type": "uint256"
        },
        {
          "indexed": false,
          "internalType": "uint256",
          "name": "unlockDate_",
          "type": "uint256"
        }
      ],
      "name": "Staked",
      "type": "event"
    },
    {
      "anonymous": false,
      "inputs": [
        {
          "indexed": true,
          "internalType": "address",
          "name": "from",
          "type": "address"
        },
        {
          "indexed": true,
          "internalType": "address",
          "name": "to",
          "type": "address"
        },
        {
          "indexed": false,
          "internalType": "uint256",
          "name": "value",
          "type": "uint256"
        }
      ],
      "name": "Transfer",
      "type": "event"
    },
    {
      "anonymous": false,
      "inputs": [
        {
          "indexed": true,
          "internalType": "address",
          "name": "account_",
          "type": "address"
        },
        {
          "indexed": false,
          "internalType": "uint256",
          "name": "amount_",
          "type": "uint256"
        }
      ],
      "name": "Unstaked",
      "type": "event"
    },
    {
      "inputs": [
        {
          "internalType": "address",
          "name": "",
          "type": "address"
        }
      ],
      "name": "accumulatedRewardsToken2",
      "outputs": [
        {
          "internalType": "uint256",
          "name": "",
          "type": "uint256"
        }
      ],
      "stateMutability": "view",
      "type": "function"
    },
    {
      "inputs": [
        {
          "internalType": "address",
          "name": "admin_",
          "type": "address"
        }
      ],
      "name": "addAdmin",
      "outputs": [],
      "stateMutability": "nonpayable",
      "type": "function"
    },
    {
      "inputs": [
        {
          "internalType": "bytes32",
          "name": "root_",
          "type": "bytes32"
        },
        {
          "internalType": "string",
          "name": "uriIPFS_",
          "type": "string"
        }
      ],
      "name": "addRoot",
      "outputs": [],
      "stateMutability": "nonpayable",
      "type": "function"
    },
    {
      "inputs": [
        {
          "internalType": "address",
          "name": "owner",
          "type": "address"
        },
        {
          "internalType": "address",
          "name": "spender",
          "type": "address"
        }
      ],
      "name": "allowance",
      "outputs": [
        {
          "internalType": "uint256",
          "name": "",
          "type": "uint256"
        }
      ],
      "stateMutability": "view",
      "type": "function"
    },
    {
      "inputs": [
        {
          "internalType": "address",
          "name": "spender",
          "type": "address"
        },
        {
          "internalType": "uint256",
          "name": "amount",
          "type": "uint256"
        }
      ],
      "name": "approve",
      "outputs": [
        {
          "internalType": "bool",
          "name": "",
          "type": "bool"
        }
      ],
      "stateMutability": "nonpayable",
      "type": "function"
    },
    {
      "inputs": [
        {
          "internalType": "address",
          "name": "account",
          "type": "address"
        }
      ],
      "name": "balanceOf",
      "outputs": [
        {
          "internalType": "uint256",
          "name": "",
          "type": "uint256"
        }
      ],
      "stateMutability": "view",
      "type": "function"
    },
    {
      "inputs": [
        {
          "internalType": "address",
          "name": "account_",
          "type": "address"
        },
        {
          "internalType": "uint256",
          "name": "lockMonths_",
          "type": "uint256"
        }
      ],
      "name": "balanceStakedLockOf",
      "outputs": [
        {
          "internalType": "uint256",
          "name": "",
          "type": "uint256"
        }
      ],
      "stateMutability": "view",
      "type": "function"
    },
    {
      "inputs": [
        {
          "internalType": "address",
          "name": "account",
          "type": "address"
        }
      ],
      "name": "balanceStakedOf",
      "outputs": [
        {
          "internalType": "uint256",
          "name": "",
          "type": "uint256"
        }
      ],
      "stateMutability": "view",
      "type": "function"
    },
    {
      "inputs": [],
      "name": "decimals",
      "outputs": [
        {
          "internalType": "uint8",
          "name": "",
          "type": "uint8"
        }
      ],
      "stateMutability": "view",
      "type": "function"
    },
    {
      "inputs": [
        {
          "internalType": "address",
          "name": "spender",
          "type": "address"
        },
        {
          "internalType": "uint256",
          "name": "subtractedValue",
          "type": "uint256"
        }
      ],
      "name": "decreaseAllowance",
      "outputs": [
        {
          "internalType": "bool",
          "name": "",
          "type": "bool"
        }
      ],
      "stateMutability": "nonpayable",
      "type": "function"
    },
    {
      "inputs": [
        {
          "internalType": "address",
          "name": "account_",
          "type": "address"
        }
      ],
      "name": "deliverRewards",
      "outputs": [],
      "stateMutability": "nonpayable",
      "type": "function"
    },
    {
      "inputs": [
        {
          "internalType": "address",
          "name": "account_",
          "type": "address"
        },
        {
          "internalType": "uint256",
          "name": "lockMonths_",
          "type": "uint256"
        }
      ],
      "name": "earnedLockToken1",
      "outputs": [
        {
          "internalType": "uint256",
          "name": "",
          "type": "uint256"
        }
      ],
      "stateMutability": "view",
      "type": "function"
    },
    {
      "inputs": [
        {
          "internalType": "address",
          "name": "account_",
          "type": "address"
        },
        {
          "internalType": "uint256",
          "name": "lockMonths_",
          "type": "uint256"
        }
      ],
      "name": "earnedLockToken2",
      "outputs": [
        {
          "internalType": "uint256",
          "name": "",
          "type": "uint256"
        }
      ],
      "stateMutability": "view",
      "type": "function"
    },
    {
      "inputs": [
        {
          "internalType": "address",
          "name": "account_",
          "type": "address"
        }
      ],
      "name": "earnedToken1",
      "outputs": [
        {
          "internalType": "uint256",
          "name": "",
          "type": "uint256"
        }
      ],
      "stateMutability": "view",
      "type": "function"
    },
    {
      "inputs": [
        {
          "internalType": "address",
          "name": "account_",
          "type": "address"
        }
      ],
      "name": "earnedToken2",
      "outputs": [
        {
          "internalType": "uint256",
          "name": "",
          "type": "uint256"
        }
      ],
      "stateMutability": "view",
      "type": "function"
    },
    {
      "inputs": [],
      "name": "exit",
      "outputs": [],
      "stateMutability": "nonpayable",
      "type": "function"
    },
    {
      "inputs": [],
      "name": "finishingBlockNumber",
      "outputs": [
        {
          "internalType": "uint256",
          "name": "",
          "type": "uint256"
        }
      ],
      "stateMutability": "view",
      "type": "function"
    },
    {
      "inputs": [
        {
          "internalType": "bool",
          "name": "compose_",
          "type": "bool"
        },
        {
          "internalType": "bytes32",
          "name": "root_",
          "type": "bytes32"
        },
        {
          "internalType": "bytes32[]",
          "name": "proof_",
          "type": "bytes32[]"
        }
      ],
      "name": "getReward",
      "outputs": [],
      "stateMutability": "nonpayable",
      "type": "function"
    },
    {
      "inputs": [
        {
          "internalType": "address",
          "name": "spender",
          "type": "address"
        },
        {
          "internalType": "uint256",
          "name": "addedValue",
          "type": "uint256"
        }
      ],
      "name": "increaseAllowance",
      "outputs": [
        {
          "internalType": "bool",
          "name": "",
          "type": "bool"
        }
      ],
      "stateMutability": "nonpayable",
      "type": "function"
    },
    {
      "inputs": [],
      "name": "lastUpdateBlockNumber",
      "outputs": [
        {
          "internalType": "uint256",
          "name": "",
          "type": "uint256"
        }
      ],
      "stateMutability": "view",
      "type": "function"
    },
    {
      "inputs": [
        {
          "internalType": "bytes32",
          "name": "",
          "type": "bytes32"
        }
      ],
      "name": "mapRootURIs",
      "outputs": [
        {
          "internalType": "string",
          "name": "",
          "type": "string"
        }
      ],
      "stateMutability": "view",
      "type": "function"
    },
    {
      "inputs": [],
      "name": "name",
      "outputs": [
        {
          "internalType": "string",
          "name": "",
          "type": "string"
        }
      ],
      "stateMutability": "view",
      "type": "function"
    },
    {
      "inputs": [],
      "name": "owner",
      "outputs": [
        {
          "internalType": "address",
          "name": "",
          "type": "address"
        }
      ],
      "stateMutability": "view",
      "type": "function"
    },
    {
      "inputs": [
        {
          "internalType": "address",
          "name": "admin_",
          "type": "address"
        }
      ],
      "name": "removeAdmin",
      "outputs": [],
      "stateMutability": "nonpayable",
      "type": "function"
    },
    {
      "inputs": [],
      "name": "renounceOwnership",
      "outputs": [],
      "stateMutability": "nonpayable",
      "type": "function"
    },
    {
      "inputs": [],
      "name": "rewardPerBlock",
      "outputs": [
        {
          "internalType": "uint256",
          "name": "",
          "type": "uint256"
        }
      ],
      "stateMutability": "view",
      "type": "function"
    },
    {
      "inputs": [],
      "name": "rewardPerToken1",
      "outputs": [
        {
          "internalType": "uint256",
          "name": "",
          "type": "uint256"
        }
      ],
      "stateMutability": "view",
      "type": "function"
    },
    {
      "inputs": [],
      "name": "rewardPerToken1Stored",
      "outputs": [
        {
          "internalType": "uint256",
          "name": "",
          "type": "uint256"
        }
      ],
      "stateMutability": "view",
      "type": "function"
    },
    {
      "inputs": [],
      "name": "rewardPerToken2",
      "outputs": [
        {
          "internalType": "uint256",
          "name": "",
          "type": "uint256"
        }
      ],
      "stateMutability": "view",
      "type": "function"
    },
    {
      "inputs": [],
      "name": "rewardPerToken2Stored",
      "outputs": [
        {
          "internalType": "uint256",
          "name": "",
          "type": "uint256"
        }
      ],
      "stateMutability": "view",
      "type": "function"
    },
    {
      "inputs": [],
      "name": "rewardTokenClaimed",
      "outputs": [
        {
          "internalType": "uint256",
          "name": "",
          "type": "uint256"
        }
      ],
      "stateMutability": "view",
      "type": "function"
    },
    {
      "inputs": [],
      "name": "rewardTokenDistributed",
      "outputs": [
        {
          "internalType": "uint256",
          "name": "",
          "type": "uint256"
        }
      ],
      "stateMutability": "view",
      "type": "function"
    },
    {
      "inputs": [],
      "name": "rewardTokenSum",
      "outputs": [
        {
          "internalType": "uint256",
          "name": "",
          "type": "uint256"
        }
      ],
      "stateMutability": "view",
      "type": "function"
    },
    {
      "inputs": [
        {
          "internalType": "uint256",
          "name": "",
          "type": "uint256"
        }
      ],
      "name": "rootURIs",
      "outputs": [
        {
          "internalType": "string",
          "name": "",
          "type": "string"
        }
      ],
      "stateMutability": "view",
      "type": "function"
    },
    {
      "inputs": [
        {
          "internalType": "bytes32",
          "name": "",
          "type": "bytes32"
        }
      ],
      "name": "rootWhitelist",
      "outputs": [
        {
          "internalType": "bool",
          "name": "",
          "type": "bool"
        }
      ],
      "stateMutability": "view",
      "type": "function"
    },
    {
      "inputs": [
        {
          "internalType": "uint256",
          "name": "amount_",
          "type": "uint256"
        },
        {
          "internalType": "uint256",
          "name": "lockMonths_",
          "type": "uint256"
        },
        {
          "internalType": "bytes32",
          "name": "root_",
          "type": "bytes32"
        },
        {
          "internalType": "bytes32[]",
          "name": "proof_",
          "type": "bytes32[]"
        }
      ],
      "name": "stake",
      "outputs": [],
      "stateMutability": "nonpayable",
      "type": "function"
    },
    {
      "inputs": [
        {
          "internalType": "address",
          "name": "account",
          "type": "address"
        },
        {
          "internalType": "uint256",
          "name": "lockMonths_",
          "type": "uint256"
        }
      ],
      "name": "stakeDataOfByLock",
      "outputs": [
        {
          "components": [
            {
              "internalType": "uint256",
              "name": "amount",
              "type": "uint256"
            },
            {
              "internalType": "uint256",
              "name": "amountVirtual",
              "type": "uint256"
            },
            {
              "internalType": "uint256[]",
              "name": "amounts",
              "type": "uint256[]"
            },
            {
              "internalType": "uint256[]",
              "name": "unlockDates",
              "type": "uint256[]"
            },
            {
              "internalType": "uint256[]",
              "name": "amountsVirtual",
              "type": "uint256[]"
            },
            {
              "internalType": "uint256",
              "name": "rewardToken1",
              "type": "uint256"
            },
            {
              "internalType": "uint256",
              "name": "rewardToken2",
              "type": "uint256"
            }
          ],
          "internalType": "struct MLStaking.StakeData",
          "name": "",
          "type": "tuple"
        }
      ],
      "stateMutability": "view",
      "type": "function"
    },
    {
      "inputs": [],
      "name": "sumAccumulatedRewardsToken2",
      "outputs": [
        {
          "internalType": "uint256",
          "name": "",
          "type": "uint256"
        }
      ],
      "stateMutability": "view",
      "type": "function"
    },
    {
      "inputs": [],
      "name": "symbol",
      "outputs": [
        {
          "internalType": "string",
          "name": "",
          "type": "string"
        }
      ],
      "stateMutability": "view",
      "type": "function"
    },
    {
      "inputs": [
        {
          "internalType": "uint256",
          "name": "lockMonths_",
          "type": "uint256"
        }
      ],
      "name": "totalStakedLockSum",
      "outputs": [
        {
          "internalType": "uint256",
          "name": "",
          "type": "uint256"
        }
      ],
      "stateMutability": "view",
      "type": "function"
    },
    {
      "inputs": [],
      "name": "totalStakers",
      "outputs": [
        {
          "internalType": "uint256",
          "name": "",
          "type": "uint256"
        }
      ],
      "stateMutability": "view",
      "type": "function"
    },
    {
      "inputs": [],
      "name": "totalSumStaked",
      "outputs": [
        {
          "internalType": "uint256",
          "name": "",
          "type": "uint256"
        }
      ],
      "stateMutability": "view",
      "type": "function"
    },
    {
      "inputs": [],
      "name": "totalSumStakedVirtual",
      "outputs": [
        {
          "internalType": "uint256",
          "name": "",
          "type": "uint256"
        }
      ],
      "stateMutability": "view",
      "type": "function"
    },
    {
      "inputs": [],
      "name": "totalSupply",
      "outputs": [
        {
          "internalType": "uint256",
          "name": "",
          "type": "uint256"
        }
      ],
      "stateMutability": "view",
      "type": "function"
    },
    {
      "inputs": [
        {
          "internalType": "address",
          "name": "to",
          "type": "address"
        },
        {
          "internalType": "uint256",
          "name": "amount",
          "type": "uint256"
        }
      ],
      "name": "transfer",
      "outputs": [
        {
          "internalType": "bool",
          "name": "",
          "type": "bool"
        }
      ],
      "stateMutability": "nonpayable",
      "type": "function"
    },
    {
      "inputs": [
        {
          "internalType": "address",
          "name": "from",
          "type": "address"
        },
        {
          "internalType": "address",
          "name": "to",
          "type": "address"
        },
        {
          "internalType": "uint256",
          "name": "amount",
          "type": "uint256"
        }
      ],
      "name": "transferFrom",
      "outputs": [
        {
          "internalType": "bool",
          "name": "",
          "type": "bool"
        }
      ],
      "stateMutability": "nonpayable",
      "type": "function"
    },
    {
      "inputs": [
        {
          "internalType": "address",
          "name": "newOwner",
          "type": "address"
        }
      ],
      "name": "transferOwnership",
      "outputs": [],
      "stateMutability": "nonpayable",
      "type": "function"
    },
    {
      "inputs": [],
      "name": "unstaked",
      "outputs": [],
      "stateMutability": "nonpayable",
      "type": "function"
    },
    {
      "inputs": [
        {
          "internalType": "uint256",
          "name": "amount_",
          "type": "uint256"
        },
        {
          "internalType": "uint256",
          "name": "lockMonths_",
          "type": "uint256"
        },
        {
          "internalType": "uint256",
          "name": "stakeDataIndex_",
          "type": "uint256"
        }
      ],
      "name": "unstakedLock",
      "outputs": [],
      "stateMutability": "nonpayable",
      "type": "function"
    },
    {
      "inputs": [
        {
          "internalType": "uint256",
          "name": "rewardPerBlock_",
          "type": "uint256"
        }
      ],
      "name": "updateRewardPerBlock",
      "outputs": [],
      "stateMutability": "nonpayable",
      "type": "function"
    },
    {
      "inputs": [
        {
          "internalType": "uint256",
          "name": "amountReward_",
          "type": "uint256"
        }
      ],
      "name": "updateRewardToDistribute",
      "outputs": [],
      "stateMutability": "nonpayable",
      "type": "function"
    },
    {
      "inputs": [
        {
          "internalType": "uint256",
          "name": "divider_",
          "type": "uint256"
        }
      ],
      "name": "updateTokenRewardDivider",
      "outputs": [],
      "stateMutability": "nonpayable",
      "type": "function"
    },
    {
      "inputs": [
        {
          "internalType": "address",
          "name": "",
          "type": "address"
        }
      ],
      "name": "userRewardPaidPerToken1",
      "outputs": [
        {
          "internalType": "uint256",
          "name": "",
          "type": "uint256"
        }
      ],
      "stateMutability": "view",
      "type": "function"
    },
    {
      "inputs": [
        {
          "internalType": "address",
          "name": "",
          "type": "address"
        }
      ],
      "name": "userRewardPaidPerToken2",
      "outputs": [
        {
          "internalType": "uint256",
          "name": "",
          "type": "uint256"
        }
      ],
      "stateMutability": "view",
      "type": "function"
    },
    {
      "inputs": [
        {
          "internalType": "address",
          "name": "staker_",
          "type": "address"
        },
        {
          "internalType": "bytes32",
          "name": "root_",
          "type": "bytes32"
        },
        {
          "internalType": "bytes32[]",
          "name": "proof_",
          "type": "bytes32[]"
        }
      ],
      "name": "verifyProof",
      "outputs": [
        {
          "internalType": "bool",
          "name": "",
          "type": "bool"
        }
      ],
      "stateMutability": "view",
      "type": "function"
    },
    {
      "inputs": [],
      "name": "withdrawUnclaimedRewards",
      "outputs": [],
      "stateMutability": "nonpayable",
      "type": "function"
    }
  ],
  "transactionHash": "0x88961035d06f8e6f50a4d1bdf37ddf0c80b4aaa0c5f596182fe32c110d8bea2b",
  "args": [
    "Testnet TML",
    "TML"
  ],
  "numDeployments": 1,
  "solcInputHash": "2c083561e63d5ff5852c3b7027f63789",
  "bytecode": "0x61016060405260006080908152600160a052600260c052600360e0526004610100526005610120526006610140526200003c9060079081620001c7565b503480156200004a57600080fd5b50604051620040dd380380620040dd8339810160408190526200006d9162000363565b815182908290620000869060039060208501906200021c565b5080516200009c9060049060208401906200021c565b505050620000b9620000b36200017160201b60201c565b62000175565b60016006819055336000908152601b60205260408120805460ff191690921790915562030d406015556706830064d233c0006014555b60075481101562000168576001601e6000600784815481106200012257634e487b7160e01b600052603260045260246000fd5b9060005260206000200154815260200190815260200160002060006101000a81548160ff02191690831515021790555080806200015f9062000407565b915050620000ef565b50505062000445565b3390565b600580546001600160a01b038381166001600160a01b0319831681179093556040519116919082907f8be0079c531659141344cd1fd0a4f28419497f9722a3daafe3b4186f6b6457e090600090a35050565b8280548282559060005260206000209081019282156200020a579160200282015b828111156200020a578251829060ff16905591602001919060010190620001e8565b506200021892915062000299565b5090565b8280546200022a90620003ca565b90600052602060002090601f0160209004810192826200024e57600085556200020a565b82601f106200026957805160ff19168380011785556200020a565b828001600101855582156200020a579182015b828111156200020a5782518255916020019190600101906200027c565b5b808211156200021857600081556001016200029a565b600082601f830112620002c1578081fd5b81516001600160401b0380821115620002de57620002de6200042f565b604051601f8301601f19908116603f011681019082821181831017156200030957620003096200042f565b8160405283815260209250868385880101111562000325578485fd5b8491505b8382101562000348578582018301518183018401529082019062000329565b838211156200035957848385830101525b9695505050505050565b6000806040838503121562000376578182fd5b82516001600160401b03808211156200038d578384fd5b6200039b86838701620002b0565b93506020850151915080821115620003b1578283fd5b50620003c085828601620002b0565b9150509250929050565b600281046001821680620003df57607f821691505b602082108114156200040157634e487b7160e01b600052602260045260246000fd5b50919050565b60006000198214156200042857634e487b7160e01b81526011600452602481fd5b5060010190565b634e487b7160e01b600052604160045260246000fd5b613c8880620004556000396000f3fe608060405234801561001057600080fd5b50600436106103785760003560e01c8063833d76ad116101d3578063b5d2673811610104578063d7282ff0116100a2578063e9fad8ee1161007c578063e9fad8ee146106cb578063ee890db2146106d3578063f2fde38b146106db578063f32e0236146106ee57610378565b8063d7282ff014610692578063dd62ed3e146106a5578063e66990fb146106b857610378565b8063bf9c89bb116100de578063bf9c89bb14610651578063c014574f14610664578063c43bafaf14610677578063d5bebdec1461067f57610378565b8063b5d267381461062e578063b67cf29014610641578063bb5615241461064957610378565b80639646961a11610171578063a9059cbb1161014b578063a9059cbb146105f8578063acbc2e8a1461060b578063ae7e3b6c14610613578063b4c6e4161461062657610378565b80639646961a146105ca5780639ca9b643146105d2578063a457c2d7146105e557610378565b80638da4c7c9116101ad5780638da4c7c91461059d5780638da5cb5b146105a5578063936f72a4146105ba57806395d89b41146105c257610378565b8063833d76ad1461057a578063869890381461058d5780638ae39cac1461059557610378565b806339509351116102ad5780636616a4ae1161024b5780636c9db041116102255780636c9db04114610539578063704802751461054c57806370a082311461055f578063715018a61461057257610378565b80636616a4ae1461050b57806366f809ac1461051357806369e57a601461052657610378565b80635031be68116102875780635031be68146104ca57806354bc130a146104dd57806355db6200146104f05780635fc1aa391461050357610378565b8063395093511461049c57806341c351e8146104af57806344615464146104c257610378565b806318160ddd1161031a57806325a97a50116102f457806325a97a501461044e5780632a74bfa414610461578063313ce5671461047457806336d187ab1461048957610378565b806318160ddd1461042b5780631a77398f1461043357806323b872dd1461043b57610378565b8063078ea0bb11610356578063078ea0bb146103c5578063095ea7b3146103e55780631086e30f146104055780631785f53c1461041857610378565b806301f8a9761461037d578063060690531461039257806306fdde03146103b0575b600080fd5b61039061038b366004612fd4565b610701565b005b61039a610755565b6040516103a79190613abf565b60405180910390f35b6103b861075b565b6040516103a79190613244565b6103d86103d3366004612f4d565b6107ee565b6040516103a79190613a13565b6103f86103f3366004612f4d565b61094f565b6040516103a79190613239565b6103906104133660046130d8565b610971565b610390610426366004612e6e565b610995565b61039a610a02565b61039a610a08565b6103f8610449366004612eba565b610a7b565b61039061045c366004612f92565b610aa9565b61039a61046f366004612e6e565b610b55565b61047c610bc0565b6040516103a79190613ade565b61039a610497366004612f4d565b610bc5565b6103f86104aa366004612f4d565b610bed565b61039a6104bd366004612f4d565b610c19565b61039a610d0e565b61039a6104d8366004612e6e565b610d14565b6103f86104eb366004612ef5565b610d25565b61039a6104fe366004612e6e565b610dcb565b61039a610ddd565b61039a610de3565b6103f8610521366004612fd4565b610de9565b610390610534366004612fec565b610dfe565b610390610547366004612fd4565b610f1f565b61039061055a366004612e6e565b6110fb565b61039a61056d366004612e6e565b61116b565b610390611186565b6103b8610588366004612fd4565b61119a565b61039a611234565b61039a61123a565b61039a611240565b6105ad611246565b6040516103a791906131e8565b61039a611255565b6103b861125b565b61039a61126a565b6103906105e0366004612e6e565b6112ac565b6103f86105f3366004612f4d565b611308565b6103f8610606366004612f4d565b611350565b610390611368565b61039a610621366004612e6e565b6114e7565b61039a611542565b61039061063c366004612fd4565b611548565b61039a611575565b61039061157b565b61039a61065f366004612e6e565b6115d3565b610390610672366004613137565b6115ee565b61039a61160e565b6103b861068d366004612fd4565b611614565b61039a6106a0366004612f4d565b61163f565b61039a6106b3366004612e88565b6116de565b61039a6106c6366004612e6e565b611709565b61039061171b565b61039a61188b565b6103906106e9366004612e6e565b611891565b61039a6106fc366004612fd4565b6118c8565b6107096118da565b600081116107325760405162461bcd60e51b8152600401610729906134e5565b60405180910390fd5b601481905560105461074f906107489083611919565b439061192c565b60095550565b600f5481565b60606003805461076a90613ba4565b80601f016020809104026020016040519081016040528092919081815260200182805461079690613ba4565b80156107e35780601f106107b8576101008083540402835291602001916107e3565b820191906000526020600020905b8154815290600101906020018083116107c657829003601f168201915b505050505090505b90565b6107f6612d1e565b6001600160a01b0383166000908152601f60209081526040808320858452825291829020825160e081018452815481526001820154818401526002820180548551818602810186018752818152929593949386019383018282801561087a57602002820191906000526020600020905b815481526020019060010190808311610866575b50505050508152602001600382018054806020026020016040519081016040528092919081815260200182805480156108d257602002820191906000526020600020905b8154815260200190600101908083116108be575b505050505081526020016004820180548060200260200160405190810160405280929190818152602001828054801561092a57602002820191906000526020600020905b815481526020019060010190808311610916575b5050505050815260200160058201548152602001600682015481525050905092915050565b60008061095a611938565b905061096781858561193c565b5060019392505050565b6109796119f0565b6109868585858585611a1a565b61098e611ef9565b5050505050565b61099d6118da565b6001600160a01b0381166109c35760405162461bcd60e51b81526004016107299061371e565b6001600160a01b03166000908152601b6020526040902080547fffffffffffffffffffffffffffffffffffffffffffffffffffffffffffffff00169055565b60025490565b600060115460001415610a1e5750600c546107eb565b610a76610a6d610a3b60135460115461192c90919063ffffffff16565b610a67670de0b6b3a7640000610a61601454610a61600a54610a5b611f00565b90611f18565b90611f24565b90611919565b600c549061192c565b905090565b600080610a86611938565b9050610a93858285611f30565b610a9e858585611f92565b506001949350505050565b610ab16119f0565b6000805b600754811015610b1257610af460078281548110610ae357634e487b7160e01b600052603260045260246000fd5b906000526020600020015487612093565b610afe9083613aec565b915080610b0a81613bdf565b915050610ab5565b508415610b4657610b3873281e2cc83bd4a9930903aaa0a8cd1b521c1eb5623383612404565b610b46816000868686611a1a565b50610b4f611ef9565b50505050565b600080805b600754811015610bb757610ba3610b9c8560078481548110610b8c57634e487b7160e01b600052603260045260246000fd5b906000526020600020015461163f565b839061192c565b915080610baf81613bdf565b915050610b5a565b5090505b919050565b601290565b6001600160a01b03919091166000908152601f60209081526040808320938352929052205490565b600080610bf8611938565b9050610967818585610c0a85896116de565b610c149190613aec565b61193c565b6000818152601e6020526040812054829060ff16610c495760405162461bcd60e51b8152600401610729906135d6565b6001600160a01b0384166000908152601f60209081526040808320868452909152902060060154610d0690610d00670de0b6b3a7640000610a67606481610c8f8a6124a5565b6001600160a01b038c16600090815260196020526040902054610a6190610cb890610a5b61126a565b601f60008f6001600160a01b03166001600160a01b0316815260200190815260200160002060008e815260200190815260200160002060000154611f2490919063ffffffff16565b9061192c565b949350505050565b60105481565b602080526000908152604090205481565b600083815260176020526040812054849060ff16610d555760405162461bcd60e51b815260040161072990613386565b600086604051602001610d68919061319c565b604051602081830303815290604052805190602001209050610dc08585808060200260200160405190810160405280939291908181526020018383602002808284376000920191909152508a92508591506124c39050565b979650505050505050565b60186020526000908152604090205481565b600c5481565b600e5481565b60176020526000908152604090205460ff1681565b336000908152601b602052604090205460ff16610e2d5760405162461bcd60e51b8152600401610729906137e9565b60008281526017602052604090205460ff1615610e5c5760405162461bcd60e51b81526004016107299061334f565b600880546001810182556000919091528151610e9f917ff3f7a9fe364faab93b216da50a3214154f22a0a2b415b23a84c8169e8b636ee301906020840190612d5b565b50600082815260176020908152604080832080547fffffffffffffffffffffffffffffffffffffffffffffffffffffffffffffff00166001179055601682529091208251610eef92840190612d5b565b5060405182907f84b2306c1af1fc3a139e6c617f8f31cf5a55850bfb6f4536f64f8cf082f5269790600090a25050565b6000610f29610a08565b600c55610f3461126a565b600d55610f3f611f00565b600a556001600160a01b0381161561106f5760005b60075481101561103f57610f68828261163f565b6001600160a01b0383166000908152601f602052604081206007805491929185908110610fa557634e487b7160e01b600052603260045260246000fd5b9060005260206000200154815260200190815260200160002060050181905550610fcf8282610c19565b6001600160a01b0383166000908152601f60205260408120600780549192918590811061100c57634e487b7160e01b600052603260045260246000fd5b9060005260206000200154815260200190815260200160002060060181905550808061103790613bdf565b915050610f54565b50600c546001600160a01b038216600090815260186020908152604080832093909355600d546019909152919020555b6110776118da565b600082116110975760405162461bcd60e51b81526004016107299061367b565b6110b773281e2cc83bd4a9930903aaa0a8cd1b521c1eb5623330856124d9565b6010546110c4908361192c565b6010819055600e80546000906110db908490613aec565b90915550506014546010546110f4916107489190611919565b6009555050565b6111036118da565b6001600160a01b0381166111295760405162461bcd60e51b81526004016107299061371e565b6001600160a01b03166000908152601b6020526040902080547fffffffffffffffffffffffffffffffffffffffffffffffffffffffffffffff00166001179055565b6001600160a01b031660009081526020819052604090205490565b61118e6118da565b61119860006124fa565b565b601660205260009081526040902080546111b390613ba4565b80601f01602080910402602001604051908101604052809291908181526020018280546111df90613ba4565b801561122c5780601f106112015761010080835404028352916020019161122c565b820191906000526020600020905b81548152906001019060200180831161120f57829003601f168201915b505050505081565b600b5481565b60145481565b60095481565b6005546001600160a01b031690565b60135481565b60606004805461076a90613ba4565b6000601154600014156112805750600d546107eb565b610a766112a3601554610a67670de0b6b3a7640000610a61600a54610a5b611f00565b600d549061192c565b6112b46119f0565b6112bc6118da565b6001600160a01b038116600090815260208052604090205480156112fc576001600160a01b03821660009081526020805260408120556112fc8282612564565b50611305611ef9565b50565b600080611313611938565b9050600061132182866116de565b9050838110156113435760405162461bcd60e51b81526004016107299061397f565b610a9e828686840361193c565b60008061135b611938565b9050610967818585611f92565b6113706119f0565b60005b6007548110156114de57336000908152601f6020526040812060078054839190859081106113b157634e487b7160e01b600052603260045260246000fd5b90600052602060002001548152602001908152602001600020905060005b60028201548110156114c957600082600201828154811061140057634e487b7160e01b600052603260045260246000fd5b906000526020600020015411801561144f575081600301818154811061143657634e487b7160e01b600052603260045260246000fd5b906000526020600020015442118061144f575060095443115b156114b7576114b782600201828154811061147a57634e487b7160e01b600052603260045260246000fd5b9060005260206000200154600785815481106114a657634e487b7160e01b600052603260045260246000fd5b906000526020600020015483612612565b806114c181613bdf565b9150506113cf565b505080806114d690613bdf565b915050611373565b50611198611ef9565b600080805b600754811015610bb75761152e610b9c856007848154811061151e57634e487b7160e01b600052603260045260246000fd5b9060005260206000200154610c19565b91508061153a81613bdf565b9150506114ec565b600a5481565b6115506118da565b600081116115705760405162461bcd60e51b8152600401610729906136e7565b601455565b60125481565b6115836119f0565b61158b6118da565b6009544311801561159e57506000601054115b156115cb576010805460009091556114de73281e2cc83bd4a9930903aaa0a8cd1b521c1eb5623383612404565b611198611ef9565b6001600160a01b03166000908152601c602052604090205490565b6115f66119f0565b611601838383612612565b611609611ef9565b505050565b60115481565b6008818154811061162457600080fd5b9060005260206000200160009150905080546111b390613ba4565b6000818152601e6020526040812054829060ff1661166f5760405162461bcd60e51b8152600401610729906135d6565b6001600160a01b0384166000908152601f60209081526040808320868452909152902060050154610d0690610d00670de0b6b3a7640000610a676064816116b58a6124a5565b6001600160a01b038c16600090815260186020526040902054610a6190610cb890610a5b610a08565b6001600160a01b03918216600090815260016020908152604080832093909416825291909152205490565b60196020526000908152604090205481565b6117236119f0565b60005b6007548110156114de576117666007828154811061175457634e487b7160e01b600052603260045260246000fd5b90600052602060002001546000612093565b50336000908152601f60205260408120600780548391908590811061179b57634e487b7160e01b600052603260045260246000fd5b90600052602060002001548152602001908152602001600020905060005b60028201548110156118765760008260020182815481106117ea57634e487b7160e01b600052603260045260246000fd5b9060005260206000200154118015611839575081600301818154811061182057634e487b7160e01b600052603260045260246000fd5b9060005260206000200154421180611839575060095443115b156118645761186482600201828154811061147a57634e487b7160e01b600052603260045260246000fd5b8061186e81613bdf565b9150506117b9565b5050808061188390613bdf565b915050611726565b600d5481565b6118996118da565b6001600160a01b0381166118bf5760405162461bcd60e51b8152600401610729906133bd565b611305816124fa565b6000908152601d602052604090205490565b6118e2611938565b6001600160a01b03166118f3611246565b6001600160a01b0316146111985760405162461bcd60e51b8152600401610729906136b2565b60006119258284613b04565b9392505050565b60006119258284613aec565b3390565b6001600160a01b0383166119625760405162461bcd60e51b815260040161072990613820565b6001600160a01b0382166119885760405162461bcd60e51b81526004016107299061341a565b6001600160a01b0380841660008181526001602090815260408083209487168084529490915290819020849055517f8c5be1e5ebec7d5bd14f71427d1e84f3dd0314c0f7b2291e5b200ac8c7c3b925906119e3908590613abf565b60405180910390a3505050565b60026006541415611a135760405162461bcd60e51b815260040161072990613948565b6002600655565b6000848152601e6020526040902054849060ff16611a4a5760405162461bcd60e51b8152600401610729906135d6565b33611a53610a08565b600c55611a5e61126a565b600d55611a69611f00565b600a556001600160a01b03811615611b995760005b600754811015611b6957611a92828261163f565b6001600160a01b0383166000908152601f602052604081206007805491929185908110611acf57634e487b7160e01b600052603260045260246000fd5b9060005260206000200154815260200190815260200160002060050181905550611af98282610c19565b6001600160a01b0383166000908152601f602052604081206007805491929185908110611b3657634e487b7160e01b600052603260045260246000fd5b90600052602060002001548152602001908152602001600020600601819055508080611b6190613bdf565b915050611a7e565b50600c546001600160a01b038216600090815260186020908152604080832093909355600d546019909152919020555b60008711611bb95760405162461bcd60e51b815260040161072990613477565b611bc533868686610d25565b611be15760405162461bcd60e51b81526004016107299061360d565b6009544310611c025760405162461bcd60e51b81526004016107299061387d565b6000611c2088610a5b6064610a67611c198c6124a5565b8d90611f24565b601354909150611c30908261192c565b601355601154611c40908961192c565b6011556000878152601d6020526040902054611c5c908961192c565b6000888152601d6020908152604080832093909355338252601c90522054611c84908961192c565b336000818152601c6020526040902091909155611cb89073281e2cc83bd4a9930903aaa0a8cd1b521c1eb56290308b6124d9565b336000908152601f602090815260408083208a84529091528120805490918a91839190611ce6908490613aec565b9250508190555081816001016000828254611d019190613aec565b9091555060009050611d20611d198a62278d00613b24565b429061192c565b905088158015611d34575060028201546001145b15611dfa578982600201600081548110611d5e57634e487b7160e01b600052603260045260246000fd5b906000526020600020016000828254611d779190613aec565b925050819055508082600301600081548110611da357634e487b7160e01b600052603260045260246000fd5b90600052602060002001819055508282600401600081548110611dd657634e487b7160e01b600052603260045260246000fd5b906000526020600020016000828254611def9190613aec565b90915550611e409050565b60028201805460018181018355600092835260208084209092018d9055600385018054808301825590845282842001849055600485018054918201815583529120018390555b336000908152601a602052604090205460ff16611ea8576001600b6000828254611e6a9190613aec565b9091555050336000908152601a6020526040902080547fffffffffffffffffffffffffffffffffffffffffffffffffffffffffffffff001660011790555b336001600160a01b03167fb4caaf29adda3eefee3ad552a8e85058589bf834c7466cae4ee58787f70589ed8b8b84604051611ee593929190613ac8565b60405180910390a250505050505050505050565b6001600655565b60006009544310611f1357600954610a76565b504390565b60006119258284613b61565b60006119258284613b24565b6000611f3c84846116de565b90507fffffffffffffffffffffffffffffffffffffffffffffffffffffffffffffffff8114610b4f5781811015611f855760405162461bcd60e51b8152600401610729906134ae565b610b4f848484840361193c565b6001600160a01b038316611fb85760405162461bcd60e51b81526004016107299061378c565b6001600160a01b038216611fde5760405162461bcd60e51b815260040161072990613295565b611fe9838383611609565b6001600160a01b038316600090815260208190526040902054818110156120225760405162461bcd60e51b81526004016107299061351c565b6001600160a01b0380851660008181526020819052604080822086860390559286168082529083902080548601905591517fddf252ad1be2c89b69c2b068fc378daa952ba7f163c4a11628f55a4df523b3ef90612080908690613abf565b60405180910390a3610b4f848484611609565b6000828152601e6020526040812054839060ff166120c35760405162461bcd60e51b8152600401610729906135d6565b336120cc610a08565b600c556120d761126a565b600d556120e2611f00565b600a556001600160a01b038116156122125760005b6007548110156121e25761210b828261163f565b6001600160a01b0383166000908152601f60205260408120600780549192918590811061214857634e487b7160e01b600052603260045260246000fd5b90600052602060002001548152602001908152602001600020600501819055506121728282610c19565b6001600160a01b0383166000908152601f6020526040812060078054919291859081106121af57634e487b7160e01b600052603260045260246000fd5b906000526020600020015481526020019081526020016000206006018190555080806121da90613bdf565b9150506120f7565b50600c546001600160a01b038216600090815260186020908152604080832093909355600d546019909152919020555b336000908152601f602090815260408083208884529091528120600581015460068201548015612281576000836006018190555080601260008282546122589190613aec565b90915550503360009081526020805260408120805483929061227b908490613aec565b90915550505b60008211801561233857506011546040517f70a0823100000000000000000000000000000000000000000000000000000000815283916123359173281e2cc83bd4a9930903aaa0a8cd1b521c1eb562906370a08231906122e59030906004016131e8565b60206040518083038186803b1580156122fd57600080fd5b505afa158015612311573d6000803e3d6000fd5b505050506040513d601f19601f82011682018060405250810190610a5b91906130c0565b10155b156123f757816010600082825461234f9190613b61565b9250508190555081600f60008282546123689190613aec565b92505081905550818360050160008282546123839190613b61565b90915550508715612396578193506123b5565b6123b573281e2cc83bd4a9930903aaa0a8cd1b521c1eb5623384612404565b336001600160a01b03167fe2403640ba68fed3a2f88b7557551d1993f84b99bb10ff833f0cf8db0c5e0486836040516123ee9190613abf565b60405180910390a25b5091979650505050505050565b6116098363a9059cbb60e01b8484604051602401612423929190613220565b604080517fffffffffffffffffffffffffffffffffffffffffffffffffffffffffffffffe08184030181529190526020810180517bffffffffffffffffffffffffffffffffffffffffffffffffffffffff167fffffffff0000000000000000000000000000000000000000000000000000000090931692909217909152612ae6565b60006124b2826019613b24565b6124bd906064613aec565b92915050565b6000826124d08584612b75565b14949350505050565b610b4f846323b872dd60e01b858585604051602401612423939291906131fc565b600580546001600160a01b038381167fffffffffffffffffffffffff0000000000000000000000000000000000000000831681179093556040519116919082907f8be0079c531659141344cd1fd0a4f28419497f9722a3daafe3b4186f6b6457e090600090a35050565b6001600160a01b03821661258a5760405162461bcd60e51b8152600401610729906139dc565b61259660008383611609565b80600260008282546125a89190613aec565b90915550506001600160a01b038216600081815260208190526040808220805485019055517fddf252ad1be2c89b69c2b068fc378daa952ba7f163c4a11628f55a4df523b3ef906125fa908590613abf565b60405180910390a361260e60008383611609565b5050565b6000828152601e6020526040902054829060ff166126425760405162461bcd60e51b8152600401610729906135d6565b3361264b610a08565b600c5561265661126a565b600d55612661611f00565b600a556001600160a01b038116156127915760005b6007548110156127615761268a828261163f565b6001600160a01b0383166000908152601f6020526040812060078054919291859081106126c757634e487b7160e01b600052603260045260246000fd5b90600052602060002001548152602001908152602001600020600501819055506126f18282610c19565b6001600160a01b0383166000908152601f60205260408120600780549192918590811061272e57634e487b7160e01b600052603260045260246000fd5b9060005260206000200154815260200190815260200160002060060181905550808061275990613bdf565b915050612676565b50600c546001600160a01b038216600090815260186020908152604080832093909355600d546019909152919020555b600085116127b15760405162461bcd60e51b815260040161072990613644565b336000908152601f602090815260408083208784529091529020600281018054859081106127ef57634e487b7160e01b600052603260045260246000fd5b90600052602060002001548611156128195760405162461bcd60e51b815260040161072990613755565b600954431180612855575080600301848154811061284757634e487b7160e01b600052603260045260246000fd5b906000526020600020015442115b6128715760405162461bcd60e51b8152600401610729906132f2565b600061288f87610a5b6064610a676128888b6124a5565b8c90611f24565b60135490915061289f9082611f18565b6013556011546128af9088611f18565b6011556000868152601d60205260409020546128cb9088611f18565b6000878152601d6020908152604080832093909355338252601c905220546128f39088611f18565b336000908152601c6020526040812091909155825488918491612917908490613b61565b92505081905550808260010160008282546129329190613b61565b92505081905550600082600301868154811061295e57634e487b7160e01b600052603260045260246000fd5b90600052602060002001819055508682600201868154811061299057634e487b7160e01b600052603260045260246000fd5b9060005260206000200160008282546129a99190613b61565b92505081905550808260040186815481106129d457634e487b7160e01b600052603260045260246000fd5b9060005260206000200160008282546129ed9190613b61565b9091555050336000908152601c6020526040902054612a7d576001600b6000828254612a199190613b61565b9091555050336000908152601a6020526040812080547fffffffffffffffffffffffffffffffffffffffffffffffffffffffffffffff00169055612a61906002840190612ddf565b612a6f600383016000612ddf565b612a7d600483016000612ddf565b612a9c73281e2cc83bd4a9930903aaa0a8cd1b521c1eb5623389612404565b336001600160a01b03167f0f5bb82176feb1b5e747e28471aa92156a04d9f3ab9f45f28e2d704232b93f7588604051612ad59190613abf565b60405180910390a250505050505050565b6000612b3b826040518060400160405280602081526020017f5361666545524332303a206c6f772d6c6576656c2063616c6c206661696c6564815250856001600160a01b0316612bd09092919063ffffffff16565b8051909150156116095780806020019051810190612b599190612f76565b6116095760405162461bcd60e51b8152600401610729906138eb565b600081815b8451811015612bc857612bb482868381518110612ba757634e487b7160e01b600052603260045260246000fd5b6020026020010151612bdf565b915080612bc081613bdf565b915050612b7a565b509392505050565b6060610d068484600085612c01565b6000818310612bf757612bf28284612c92565b611925565b6119258383612c92565b606082471015612c235760405162461bcd60e51b815260040161072990613579565b600080866001600160a01b03168587604051612c3f91906131cc565b60006040518083038185875af1925050503d8060008114612c7c576040519150601f19603f3d011682016040523d82523d6000602084013e612c81565b606091505b5091509150610dc087838387612ca1565b60009182526020526040902090565b60608315612cdb578251612cd457612cb885612ce5565b612cd45760405162461bcd60e51b8152600401610729906138b4565b5081610d06565b610d068383612cf4565b6001600160a01b03163b151590565b815115612d045781518083602001fd5b8060405162461bcd60e51b81526004016107299190613244565b6040518060e00160405280600081526020016000815260200160608152602001606081526020016060815260200160008152602001600081525090565b828054612d6790613ba4565b90600052602060002090601f016020900481019282612d895760008555612dcf565b82601f10612da257805160ff1916838001178555612dcf565b82800160010185558215612dcf579182015b82811115612dcf578251825591602001919060010190612db4565b50612ddb929150612df9565b5090565b508054600082559060005260206000209081019061130591905b5b80821115612ddb5760008155600101612dfa565b80356001600160a01b0381168114610bbb57600080fd5b60008083601f840112612e36578081fd5b50813567ffffffffffffffff811115612e4d578182fd5b6020830191508360208083028501011115612e6757600080fd5b9250929050565b600060208284031215612e7f578081fd5b61192582612e0e565b60008060408385031215612e9a578081fd5b612ea383612e0e565b9150612eb160208401612e0e565b90509250929050565b600080600060608486031215612ece578081fd5b612ed784612e0e565b9250612ee560208501612e0e565b9150604084013590509250925092565b60008060008060608587031215612f0a578081fd5b612f1385612e0e565b935060208501359250604085013567ffffffffffffffff811115612f35578182fd5b612f4187828801612e25565b95989497509550505050565b60008060408385031215612f5f578182fd5b612f6883612e0e565b946020939093013593505050565b600060208284031215612f87578081fd5b815161192581613c44565b60008060008060608587031215612fa7578384fd5b8435612fb281613c44565b935060208501359250604085013567ffffffffffffffff811115612f35578283fd5b600060208284031215612fe5578081fd5b5035919050565b60008060408385031215612ffe578182fd5b82359150602083013567ffffffffffffffff8082111561301c578283fd5b818501915085601f83011261302f578283fd5b81358181111561304157613041613c2e565b604051601f82017fffffffffffffffffffffffffffffffffffffffffffffffffffffffffffffffe0908116603f0116810190838211818310171561308757613087613c2e565b8160405282815288602084870101111561309f578586fd5b82602086016020830137856020848301015280955050505050509250929050565b6000602082840312156130d1578081fd5b5051919050565b6000806000806000608086880312156130ef578081fd5b853594506020860135935060408601359250606086013567ffffffffffffffff81111561311a578182fd5b61312688828901612e25565b969995985093965092949392505050565b60008060006060848603121561314b578283fd5b505081359360208301359350604090920135919050565b6000815180845260208085019450808401835b8381101561319157815187529582019590820190600101613175565b509495945050505050565b60609190911b7fffffffffffffffffffffffffffffffffffffffff00000000000000000000000016815260140190565b600082516131de818460208701613b78565b9190910192915050565b6001600160a01b0391909116815260200190565b6001600160a01b039384168152919092166020820152604081019190915260600190565b6001600160a01b03929092168252602082015260400190565b901515815260200190565b6000602082528251806020840152613263816040850160208701613b78565b601f017fffffffffffffffffffffffffffffffffffffffffffffffffffffffffffffffe0169190910160400192915050565b60208082526023908201527f45524332303a207472616e7366657220746f20746865207a65726f206164647260408201527f6573730000000000000000000000000000000000000000000000000000000000606082015260800190565b60208082526025908201527f54686520626c6f636b696e672074696d6520686173206e6f742079657420657860408201527f7069726564000000000000000000000000000000000000000000000000000000606082015260800190565b60208082526018908201527f526f6f74206861736820616c7265616479206578697374730000000000000000604082015260600190565b6020808252600d908201527f526f6f74206e6f2076616c696400000000000000000000000000000000000000604082015260600190565b60208082526026908201527f4f776e61626c653a206e6577206f776e657220697320746865207a65726f206160408201527f6464726573730000000000000000000000000000000000000000000000000000606082015260800190565b60208082526022908201527f45524332303a20617070726f766520746f20746865207a65726f20616464726560408201527f7373000000000000000000000000000000000000000000000000000000000000606082015260800190565b6020808252600e908201527f43616e6e6f74207374616b652030000000000000000000000000000000000000604082015260600190565b6020808252601d908201527f45524332303a20696e73756666696369656e7420616c6c6f77616e6365000000604082015260600190565b6020808252601c908201527f5265776172642070657220626c6f636b2063616e6e6f74206265203000000000604082015260600190565b60208082526026908201527f45524332303a207472616e7366657220616d6f756e742065786365656473206260408201527f616c616e63650000000000000000000000000000000000000000000000000000606082015260800190565b60208082526026908201527f416464726573733a20696e73756666696369656e742062616c616e636520666f60408201527f722063616c6c0000000000000000000000000000000000000000000000000000606082015260800190565b60208082526013908201527f496e76616c6964206c6f636b206d6f6e74687300000000000000000000000000604082015260600190565b6020808252600f908201527f4e6f742077686974656c69737465640000000000000000000000000000000000604082015260600190565b60208082526011908201527f43616e6e6f742077697468647261772030000000000000000000000000000000604082015260600190565b6020808252601f908201527f52657761726420746f6b656e20616d6f756e742063616e6e6f74206265203000604082015260600190565b6020808252818101527f4f776e61626c653a2063616c6c6572206973206e6f7420746865206f776e6572604082015260600190565b60208082526013908201527f446976696465722063616e6e6f74206265203000000000000000000000000000604082015260600190565b6020808252600c908201527f7a65726f20616464726573730000000000000000000000000000000000000000604082015260600190565b60208082526014908201527f696e73756666696369656e742062616c616e6365000000000000000000000000604082015260600190565b60208082526025908201527f45524332303a207472616e736665722066726f6d20746865207a65726f20616460408201527f6472657373000000000000000000000000000000000000000000000000000000606082015260800190565b60208082526016908201527f43616c6c6572206973206e6f7420616e2061646d696e00000000000000000000604082015260600190565b60208082526024908201527f45524332303a20617070726f76652066726f6d20746865207a65726f2061646460408201527f7265737300000000000000000000000000000000000000000000000000000000606082015260800190565b60208082526018908201527f526577617264206475726174696f6e2066696e69736865640000000000000000604082015260600190565b6020808252601d908201527f416464726573733a2063616c6c20746f206e6f6e2d636f6e7472616374000000604082015260600190565b6020808252602a908201527f5361666545524332303a204552433230206f7065726174696f6e20646964206e60408201527f6f74207375636365656400000000000000000000000000000000000000000000606082015260800190565b6020808252601f908201527f5265656e7472616e637947756172643a207265656e7472616e742063616c6c00604082015260600190565b60208082526025908201527f45524332303a2064656372656173656420616c6c6f77616e63652062656c6f7760408201527f207a65726f000000000000000000000000000000000000000000000000000000606082015260800190565b6020808252601f908201527f45524332303a206d696e7420746f20746865207a65726f206164647265737300604082015260600190565b6000602082528251602083015260208301516040830152604083015160e06060840152613a44610100840182613162565b905060608401517fffffffffffffffffffffffffffffffffffffffffffffffffffffffffffffffe080858403016080860152613a808383613162565b925060808601519150808584030160a086015250613a9e8282613162565b91505060a084015160c084015260c084015160e08401528091505092915050565b90815260200190565b9283526020830191909152604082015260600190565b60ff91909116815260200190565b60008219821115613aff57613aff613c18565b500190565b600082613b1f57634e487b7160e01b81526012600452602481fd5b500490565b6000817fffffffffffffffffffffffffffffffffffffffffffffffffffffffffffffffff0483118215151615613b5c57613b5c613c18565b500290565b600082821015613b7357613b73613c18565b500390565b60005b83811015613b93578181015183820152602001613b7b565b83811115610b4f5750506000910152565b600281046001821680613bb857607f821691505b60208210811415613bd957634e487b7160e01b600052602260045260246000fd5b50919050565b60007fffffffffffffffffffffffffffffffffffffffffffffffffffffffffffffffff821415613c1157613c11613c18565b5060010190565b634e487b7160e01b600052601160045260246000fd5b634e487b7160e01b600052604160045260246000fd5b801515811461130557600080fdfea26469706673582212206b856b4a89672afb5323c04c9fbf6967aa291be165cabc24fd6c0f19c764636a64736f6c63430008010033",
  "devdoc": {
    "kind": "dev",
    "methods": {
      "addRoot(bytes32,string)": {
        "details": "Add a new merkle tree hash.",
        "params": {
          "root_": "Merkle tree root of treasurer.",
          "uriIPFS_": "IPFS URI.*"
        }
      },
      "allowance(address,address)": {
        "details": "See {IERC20-allowance}."
      },
      "approve(address,uint256)": {
        "details": "See {IERC20-approve}. NOTE: If `amount` is the maximum `uint256`, the allowance is not updated on `transferFrom`. This is semantically equivalent to an infinite approval. Requirements: - `spender` cannot be the zero address."
      },
      "balanceOf(address)": {
        "details": "See {IERC20-balanceOf}."
      },
      "constructor": {
        "params": {
          "name_": "Name of ERC20 reward token",
          "symbol_": "Symbol of ERC20 reward token*"
        }
      },
      "decimals()": {
        "details": "Returns the number of decimals used to get its user representation. For example, if `decimals` equals `2`, a balance of `505` tokens should be displayed to a user as `5.05` (`505 / 10 ** 2`). Tokens usually opt for a value of 18, imitating the relationship between Ether and Wei. This is the value {ERC20} uses, unless this function is overridden; NOTE: This information is only used for _display_ purposes: it in no way affects any of the arithmetic of the contract, including {IERC20-balanceOf} and {IERC20-transfer}."
      },
      "decreaseAllowance(address,uint256)": {
        "details": "Atomically decreases the allowance granted to `spender` by the caller. This is an alternative to {approve} that can be used as a mitigation for problems described in {IERC20-approve}. Emits an {Approval} event indicating the updated allowance. Requirements: - `spender` cannot be the zero address. - `spender` must have allowance for the caller of at least `subtractedValue`."
      },
      "exit()": {
        "details": "Withdraw all the staked tokens and claim earned rewards."
      },
      "getReward(bool,bytes32,bytes32[])": {
        "details": "Claim the accumulated rewards."
      },
      "increaseAllowance(address,uint256)": {
        "details": "Atomically increases the allowance granted to `spender` by the caller. This is an alternative to {approve} that can be used as a mitigation for problems described in {IERC20-approve}. Emits an {Approval} event indicating the updated allowance. Requirements: - `spender` cannot be the zero address."
      },
      "name()": {
        "details": "Returns the name of the token."
      },
      "owner()": {
        "details": "Returns the address of the current owner."
      },
      "renounceOwnership()": {
        "details": "Leaves the contract without owner. It will not be possible to call `onlyOwner` functions anymore. Can only be called by the current owner. NOTE: Renouncing ownership will leave the contract without an owner, thereby removing any functionality that is only available to the owner."
      },
      "rewardPerToken1()": {
        "details": "Calculate the rewards accumulated per token staked up to the current time.*"
      },
      "stake(uint256,uint256,bytes32,bytes32[])": {
        "details": "Staked tokens to receive rewards.",
        "params": {
          "amount_": "Amount of tokens to be staked.",
          "lockMonths_": "lockdown months.",
          "proof_": "Merkle proof.*",
          "root_": "Merkle tree root."
        }
      },
      "symbol()": {
        "details": "Returns the symbol of the token, usually a shorter version of the name."
      },
      "totalSupply()": {
        "details": "See {IERC20-totalSupply}."
      },
      "transfer(address,uint256)": {
        "details": "See {IERC20-transfer}. Requirements: - `to` cannot be the zero address. - the caller must have a balance of at least `amount`."
      },
      "transferFrom(address,address,uint256)": {
        "details": "See {IERC20-transferFrom}. Emits an {Approval} event indicating the updated allowance. This is not required by the EIP. See the note at the beginning of {ERC20}. NOTE: Does not update the allowance if the current allowance is the maximum `uint256`. Requirements: - `from` and `to` cannot be the zero address. - `from` must have a balance of at least `amount`. - the caller must have allowance for ``from``'s tokens of at least `amount`."
      },
      "transferOwnership(address)": {
        "details": "Transfers ownership of the contract to a new account (`newOwner`). Can only be called by the current owner."
      },
      "unstaked()": {
        "details": "Withdraw staked tokens.*"
      },
      "unstakedLock(uint256,uint256,uint256)": {
        "details": "Withdraw staked tokens.",
        "params": {
          "amount_": "Amount of tokens to be withdrawn.",
          "lockMonths_": "lockdown months.",
          "stakeDataIndex_": "index to access data for a specific stake `amount` `unlockDate`.*"
        }
      },
      "verifyProof(address,bytes32,bytes32[])": {
        "details": "Verify the validity of merkle proof associated with an address.",
        "params": {
          "proof_": "Merkle proof.*",
          "root_": "Merkle tree root.",
          "staker_": "Address of staker."
        }
      }
    },
    "stateVariables": {
      "STAKING_TOKEN": {
        "details": "Address of the token to partially pay rewards."
      },
      "_accountsWithStakeLocked": {
        "details": "account => months => StakeData"
      },
      "_balancesStaked": {
        "details": "The balance staked by an account. account => balance*"
      },
      "_monthsOfBlockingEnabled": {
        "details": "enabled blocked months: months => enabled?"
      },
      "_totalSumStakedByLock": {
        "details": "total sum of staked tokens with lock for months."
      },
      "accumulatedRewardsToken2": {
        "details": "account => cumulative token rewards 2."
      },
      "lastUpdateBlockNumber": {
        "details": "Block number of the last time the reward was received."
      },
      "rewardPerBlock": {
        "details": "Amount of reward tokens that will be distributed for each token staked."
      },
      "rewardPerToken1Stored": {
        "details": "Accumulated rewards per token staked up to the current block.number."
      },
      "rewardPerToken2Stored": {
        "details": "Accumulated rewards per token staked up to the current block.number."
      },
      "rewardTokenClaimed": {
        "details": "Total amount of token claimed."
      },
      "rewardTokenDistributed": {
        "details": "Total sum of the token distributed as a reward."
      },
      "rewardTokenSum": {
        "details": "Total token sum to be distributed as rewards."
      },
      "rootURIs": {
        "details": "of URIs for all the Merkle trees added to the contract."
      },
      "rootWhitelist": {
        "details": "Root hash record of valid vesting trees Root hash => valid*"
      },
      "sumAccumulatedRewardsToken2": {
        "details": "Total sum of accumulated rewards."
      },
      "tokenRewardDivider": {
        "details": "Each token staked must be divided by this `tokenRewardDivider` value and multiplied by each elapsed block to calculate the rewards in TML*"
      },
      "totalStakers": {
        "details": "Total stakers."
      },
      "totalSumStaked": {
        "details": "Total sum of staked tokens."
      },
      "totalSumStakedVirtual": {
        "details": "Total amount of tokens staked virtual. This is used to be able to calculate rewards with a multiplier when a user locks their stake for N amount of months*"
      },
      "userRewardPaidPerToken1": {
        "details": "This represents the accumulated reward per token staked up to the moment of the last (see: lastUpdateBlockNumber) update for a specific account. account => rewardCache*"
      }
    },
    "version": 1
  },
  "userdoc": {
    "kind": "user",
    "methods": {
      "finishingBlockNumber()": {
        "notice": "`finishingBlockNumber` will store the block number to determine until which block the rewards will continue to be generated. It is calculated based on the number of tokens to be distributed as rewards that are deposited into the contract.*"
      },
      "mapRootURIs(bytes32)": {
        "notice": "URI mapping to IPFS storing whitelist data root => URI (IPFS)*"
      }
    },
    "version": 1
  },
  "storageLayout": {
    "storage": [
      {
        "astId": 182,
        "contract": "contracts/MLStaking.sol:MLStaking",
        "label": "_balances",
        "offset": 0,
        "slot": "0",
        "type": "t_mapping(t_address,t_uint256)"
      },
      {
        "astId": 188,
        "contract": "contracts/MLStaking.sol:MLStaking",
        "label": "_allowances",
        "offset": 0,
        "slot": "1",
        "type": "t_mapping(t_address,t_mapping(t_address,t_uint256))"
      },
      {
        "astId": 190,
        "contract": "contracts/MLStaking.sol:MLStaking",
        "label": "_totalSupply",
        "offset": 0,
        "slot": "2",
        "type": "t_uint256"
      },
      {
        "astId": 192,
        "contract": "contracts/MLStaking.sol:MLStaking",
        "label": "_name",
        "offset": 0,
        "slot": "3",
        "type": "t_string_storage"
      },
      {
        "astId": 194,
        "contract": "contracts/MLStaking.sol:MLStaking",
        "label": "_symbol",
        "offset": 0,
        "slot": "4",
        "type": "t_string_storage"
      },
      {
        "astId": 7,
        "contract": "contracts/MLStaking.sol:MLStaking",
        "label": "_owner",
        "offset": 0,
        "slot": "5",
        "type": "t_address"
      },
      {
        "astId": 123,
        "contract": "contracts/MLStaking.sol:MLStaking",
        "label": "_status",
        "offset": 0,
        "slot": "6",
        "type": "t_uint256"
      },
      {
        "astId": 2392,
        "contract": "contracts/MLStaking.sol:MLStaking",
        "label": "_enabledMonths",
        "offset": 0,
        "slot": "7",
        "type": "t_array(t_uint256)dyn_storage"
      },
      {
        "astId": 2403,
        "contract": "contracts/MLStaking.sol:MLStaking",
        "label": "rootURIs",
        "offset": 0,
        "slot": "8",
        "type": "t_array(t_string_storage)dyn_storage"
      },
      {
        "astId": 2406,
        "contract": "contracts/MLStaking.sol:MLStaking",
        "label": "finishingBlockNumber",
        "offset": 0,
        "slot": "9",
        "type": "t_uint256"
      },
      {
        "astId": 2409,
        "contract": "contracts/MLStaking.sol:MLStaking",
        "label": "lastUpdateBlockNumber",
        "offset": 0,
        "slot": "10",
        "type": "t_uint256"
      },
      {
        "astId": 2412,
        "contract": "contracts/MLStaking.sol:MLStaking",
        "label": "totalStakers",
        "offset": 0,
        "slot": "11",
        "type": "t_uint256"
      },
      {
        "astId": 2415,
        "contract": "contracts/MLStaking.sol:MLStaking",
        "label": "rewardPerToken1Stored",
        "offset": 0,
        "slot": "12",
        "type": "t_uint256"
      },
      {
        "astId": 2418,
        "contract": "contracts/MLStaking.sol:MLStaking",
        "label": "rewardPerToken2Stored",
        "offset": 0,
        "slot": "13",
        "type": "t_uint256"
      },
      {
        "astId": 2421,
        "contract": "contracts/MLStaking.sol:MLStaking",
        "label": "rewardTokenDistributed",
        "offset": 0,
        "slot": "14",
        "type": "t_uint256"
      },
      {
        "astId": 2424,
        "contract": "contracts/MLStaking.sol:MLStaking",
        "label": "rewardTokenClaimed",
        "offset": 0,
        "slot": "15",
        "type": "t_uint256"
      },
      {
        "astId": 2427,
        "contract": "contracts/MLStaking.sol:MLStaking",
        "label": "rewardTokenSum",
        "offset": 0,
        "slot": "16",
        "type": "t_uint256"
      },
      {
        "astId": 2430,
        "contract": "contracts/MLStaking.sol:MLStaking",
        "label": "totalSumStaked",
        "offset": 0,
        "slot": "17",
        "type": "t_uint256"
      },
      {
        "astId": 2433,
        "contract": "contracts/MLStaking.sol:MLStaking",
        "label": "sumAccumulatedRewardsToken2",
        "offset": 0,
        "slot": "18",
        "type": "t_uint256"
      },
      {
        "astId": 2436,
        "contract": "contracts/MLStaking.sol:MLStaking",
        "label": "totalSumStakedVirtual",
        "offset": 0,
        "slot": "19",
        "type": "t_uint256"
      },
      {
        "astId": 2439,
        "contract": "contracts/MLStaking.sol:MLStaking",
        "label": "rewardPerBlock",
        "offset": 0,
        "slot": "20",
        "type": "t_uint256"
      },
      {
        "astId": 2442,
        "contract": "contracts/MLStaking.sol:MLStaking",
        "label": "tokenRewardDivider",
        "offset": 0,
        "slot": "21",
        "type": "t_uint256"
      },
      {
        "astId": 2447,
        "contract": "contracts/MLStaking.sol:MLStaking",
        "label": "mapRootURIs",
        "offset": 0,
        "slot": "22",
        "type": "t_mapping(t_bytes32,t_string_storage)"
      },
      {
        "astId": 2452,
        "contract": "contracts/MLStaking.sol:MLStaking",
        "label": "rootWhitelist",
        "offset": 0,
        "slot": "23",
        "type": "t_mapping(t_bytes32,t_bool)"
      },
      {
        "astId": 2457,
        "contract": "contracts/MLStaking.sol:MLStaking",
        "label": "userRewardPaidPerToken1",
        "offset": 0,
        "slot": "24",
        "type": "t_mapping(t_address,t_uint256)"
      },
      {
        "astId": 2461,
        "contract": "contracts/MLStaking.sol:MLStaking",
        "label": "userRewardPaidPerToken2",
        "offset": 0,
        "slot": "25",
        "type": "t_mapping(t_address,t_uint256)"
      },
      {
        "astId": 2465,
        "contract": "contracts/MLStaking.sol:MLStaking",
        "label": "_alreadyRegisteredStaker",
        "offset": 0,
        "slot": "26",
        "type": "t_mapping(t_address,t_bool)"
      },
      {
        "astId": 2469,
        "contract": "contracts/MLStaking.sol:MLStaking",
        "label": "_admins",
        "offset": 0,
        "slot": "27",
        "type": "t_mapping(t_address,t_bool)"
      },
      {
        "astId": 2474,
        "contract": "contracts/MLStaking.sol:MLStaking",
        "label": "_balancesStaked",
        "offset": 0,
        "slot": "28",
        "type": "t_mapping(t_address,t_uint256)"
      },
      {
        "astId": 2479,
        "contract": "contracts/MLStaking.sol:MLStaking",
        "label": "_totalSumStakedByLock",
        "offset": 0,
        "slot": "29",
        "type": "t_mapping(t_uint256,t_uint256)"
      },
      {
        "astId": 2484,
        "contract": "contracts/MLStaking.sol:MLStaking",
        "label": "_monthsOfBlockingEnabled",
        "offset": 0,
        "slot": "30",
        "type": "t_mapping(t_uint256,t_bool)"
      },
      {
        "astId": 2492,
        "contract": "contracts/MLStaking.sol:MLStaking",
        "label": "_accountsWithStakeLocked",
        "offset": 0,
        "slot": "31",
        "type": "t_mapping(t_address,t_mapping(t_uint256,t_struct(StakeData)2381_storage))"
      },
      {
        "astId": 2497,
        "contract": "contracts/MLStaking.sol:MLStaking",
        "label": "accumulatedRewardsToken2",
        "offset": 0,
        "slot": "32",
        "type": "t_mapping(t_address,t_uint256)"
      }
    ],
    "types": {
      "t_address": {
        "encoding": "inplace",
        "label": "address",
        "numberOfBytes": "20"
      },
      "t_array(t_string_storage)dyn_storage": {
        "base": "t_string_storage",
        "encoding": "dynamic_array",
        "label": "string[]",
        "numberOfBytes": "32"
      },
      "t_array(t_uint256)dyn_storage": {
        "base": "t_uint256",
        "encoding": "dynamic_array",
        "label": "uint256[]",
        "numberOfBytes": "32"
      },
      "t_bool": {
        "encoding": "inplace",
        "label": "bool",
        "numberOfBytes": "1"
      },
      "t_bytes32": {
        "encoding": "inplace",
        "label": "bytes32",
        "numberOfBytes": "32"
      },
      "t_mapping(t_address,t_bool)": {
        "encoding": "mapping",
        "key": "t_address",
        "label": "mapping(address => bool)",
        "numberOfBytes": "32",
        "value": "t_bool"
      },
      "t_mapping(t_address,t_mapping(t_address,t_uint256))": {
        "encoding": "mapping",
        "key": "t_address",
        "label": "mapping(address => mapping(address => uint256))",
        "numberOfBytes": "32",
        "value": "t_mapping(t_address,t_uint256)"
      },
      "t_mapping(t_address,t_mapping(t_uint256,t_struct(StakeData)2381_storage))": {
        "encoding": "mapping",
        "key": "t_address",
        "label": "mapping(address => mapping(uint256 => struct MLStaking.StakeData))",
        "numberOfBytes": "32",
        "value": "t_mapping(t_uint256,t_struct(StakeData)2381_storage)"
      },
      "t_mapping(t_address,t_uint256)": {
        "encoding": "mapping",
        "key": "t_address",
        "label": "mapping(address => uint256)",
        "numberOfBytes": "32",
        "value": "t_uint256"
      },
      "t_mapping(t_bytes32,t_bool)": {
        "encoding": "mapping",
        "key": "t_bytes32",
        "label": "mapping(bytes32 => bool)",
        "numberOfBytes": "32",
        "value": "t_bool"
      },
      "t_mapping(t_bytes32,t_string_storage)": {
        "encoding": "mapping",
        "key": "t_bytes32",
        "label": "mapping(bytes32 => string)",
        "numberOfBytes": "32",
        "value": "t_string_storage"
      },
      "t_mapping(t_uint256,t_bool)": {
        "encoding": "mapping",
        "key": "t_uint256",
        "label": "mapping(uint256 => bool)",
        "numberOfBytes": "32",
        "value": "t_bool"
      },
      "t_mapping(t_uint256,t_struct(StakeData)2381_storage)": {
        "encoding": "mapping",
        "key": "t_uint256",
        "label": "mapping(uint256 => struct MLStaking.StakeData)",
        "numberOfBytes": "32",
        "value": "t_struct(StakeData)2381_storage"
      },
      "t_mapping(t_uint256,t_uint256)": {
        "encoding": "mapping",
        "key": "t_uint256",
        "label": "mapping(uint256 => uint256)",
        "numberOfBytes": "32",
        "value": "t_uint256"
      },
      "t_string_storage": {
        "encoding": "bytes",
        "label": "string",
        "numberOfBytes": "32"
      },
      "t_struct(StakeData)2381_storage": {
        "encoding": "inplace",
        "label": "struct MLStaking.StakeData",
        "members": [
          {
            "astId": 2365,
            "contract": "contracts/MLStaking.sol:MLStaking",
            "label": "amount",
            "offset": 0,
            "slot": "0",
            "type": "t_uint256"
          },
          {
            "astId": 2367,
            "contract": "contracts/MLStaking.sol:MLStaking",
            "label": "amountVirtual",
            "offset": 0,
            "slot": "1",
            "type": "t_uint256"
          },
          {
            "astId": 2370,
            "contract": "contracts/MLStaking.sol:MLStaking",
            "label": "amounts",
            "offset": 0,
            "slot": "2",
            "type": "t_array(t_uint256)dyn_storage"
          },
          {
            "astId": 2373,
            "contract": "contracts/MLStaking.sol:MLStaking",
            "label": "unlockDates",
            "offset": 0,
            "slot": "3",
            "type": "t_array(t_uint256)dyn_storage"
          },
          {
            "astId": 2376,
            "contract": "contracts/MLStaking.sol:MLStaking",
            "label": "amountsVirtual",
            "offset": 0,
            "slot": "4",
            "type": "t_array(t_uint256)dyn_storage"
          },
          {
            "astId": 2378,
            "contract": "contracts/MLStaking.sol:MLStaking",
            "label": "rewardToken1",
            "offset": 0,
            "slot": "5",
            "type": "t_uint256"
          },
          {
            "astId": 2380,
            "contract": "contracts/MLStaking.sol:MLStaking",
            "label": "rewardToken2",
            "offset": 0,
            "slot": "6",
            "type": "t_uint256"
          }
        ],
        "numberOfBytes": "224"
      },
      "t_uint256": {
        "encoding": "inplace",
        "label": "uint256",
        "numberOfBytes": "32"
      }
    }
  }
}