{
  "address": "0x311064b94728213f40a20f1B42217FDC4B68f818",
  "abi": [
    {
      "inputs": [
        {
          "internalType": "string",
          "name": "name_",
          "type": "string"
        },
        {
          "internalType": "string",
          "name": "symbol_",
          "type": "string"
        }
      ],
      "stateMutability": "nonpayable",
      "type": "constructor"
    },
    {
      "anonymous": false,
      "inputs": [
        {
          "indexed": true,
          "internalType": "address",
          "name": "owner",
          "type": "address"
        },
        {
          "indexed": true,
          "internalType": "address",
          "name": "spender",
          "type": "address"
        },
        {
          "indexed": false,
          "internalType": "uint256",
          "name": "value",
          "type": "uint256"
        }
      ],
      "name": "Approval",
      "type": "event"
    },
    {
      "anonymous": false,
      "inputs": [
        {
          "indexed": true,
          "internalType": "address",
          "name": "previousOwner",
          "type": "address"
        },
        {
          "indexed": true,
          "internalType": "address",
          "name": "newOwner",
          "type": "address"
        }
      ],
      "name": "OwnershipTransferred",
      "type": "event"
    },
    {
      "anonymous": false,
      "inputs": [
        {
          "indexed": true,
          "internalType": "address",
          "name": "account_",
          "type": "address"
        },
        {
          "indexed": false,
          "internalType": "uint256",
          "name": "reward_",
          "type": "uint256"
        }
      ],
      "name": "RewardPaid",
      "type": "event"
    },
    {
      "anonymous": false,
      "inputs": [
        {
          "indexed": true,
          "internalType": "address",
          "name": "account_",
          "type": "address"
        },
        {
          "indexed": false,
          "internalType": "uint256",
          "name": "amount_",
          "type": "uint256"
        },
        {
          "indexed": false,
          "internalType": "uint256",
          "name": "lockMonths_",
          "type": "uint256"
        }
      ],
      "name": "Staked",
      "type": "event"
    },
    {
      "anonymous": false,
      "inputs": [
        {
          "indexed": true,
          "internalType": "address",
          "name": "from",
          "type": "address"
        },
        {
          "indexed": true,
          "internalType": "address",
          "name": "to",
          "type": "address"
        },
        {
          "indexed": false,
          "internalType": "uint256",
          "name": "value",
          "type": "uint256"
        }
      ],
      "name": "Transfer",
      "type": "event"
    },
    {
      "anonymous": false,
      "inputs": [
        {
          "indexed": true,
          "internalType": "address",
          "name": "account_",
          "type": "address"
        },
        {
          "indexed": false,
          "internalType": "uint256",
          "name": "amount_",
          "type": "uint256"
        }
      ],
      "name": "Unstaked",
      "type": "event"
    },
    {
      "inputs": [
        {
          "internalType": "address",
          "name": "",
          "type": "address"
        }
      ],
      "name": "accumulatedRewardsToken2",
      "outputs": [
        {
          "internalType": "uint256",
          "name": "",
          "type": "uint256"
        }
      ],
      "stateMutability": "view",
      "type": "function"
    },
    {
      "inputs": [
        {
          "internalType": "address",
          "name": "owner",
          "type": "address"
        },
        {
          "internalType": "address",
          "name": "spender",
          "type": "address"
        }
      ],
      "name": "allowance",
      "outputs": [
        {
          "internalType": "uint256",
          "name": "",
          "type": "uint256"
        }
      ],
      "stateMutability": "view",
      "type": "function"
    },
    {
      "inputs": [
        {
          "internalType": "address",
          "name": "spender",
          "type": "address"
        },
        {
          "internalType": "uint256",
          "name": "amount",
          "type": "uint256"
        }
      ],
      "name": "approve",
      "outputs": [
        {
          "internalType": "bool",
          "name": "",
          "type": "bool"
        }
      ],
      "stateMutability": "nonpayable",
      "type": "function"
    },
    {
      "inputs": [
        {
          "internalType": "address",
          "name": "account",
          "type": "address"
        }
      ],
      "name": "balanceOf",
      "outputs": [
        {
          "internalType": "uint256",
          "name": "",
          "type": "uint256"
        }
      ],
      "stateMutability": "view",
      "type": "function"
    },
    {
      "inputs": [
        {
          "internalType": "address",
          "name": "account_",
          "type": "address"
        },
        {
          "internalType": "uint256",
          "name": "lockMonths_",
          "type": "uint256"
        }
      ],
      "name": "balanceStakedLockOf",
      "outputs": [
        {
          "internalType": "uint256",
          "name": "",
          "type": "uint256"
        }
      ],
      "stateMutability": "view",
      "type": "function"
    },
    {
      "inputs": [
        {
          "internalType": "address",
          "name": "account",
          "type": "address"
        }
      ],
      "name": "balanceStakedOf",
      "outputs": [
        {
          "internalType": "uint256",
          "name": "",
          "type": "uint256"
        }
      ],
      "stateMutability": "view",
      "type": "function"
    },
    {
      "inputs": [],
      "name": "decimals",
      "outputs": [
        {
          "internalType": "uint8",
          "name": "",
          "type": "uint8"
        }
      ],
      "stateMutability": "view",
      "type": "function"
    },
    {
      "inputs": [
        {
          "internalType": "address",
          "name": "spender",
          "type": "address"
        },
        {
          "internalType": "uint256",
          "name": "subtractedValue",
          "type": "uint256"
        }
      ],
      "name": "decreaseAllowance",
      "outputs": [
        {
          "internalType": "bool",
          "name": "",
          "type": "bool"
        }
      ],
      "stateMutability": "nonpayable",
      "type": "function"
    },
    {
      "inputs": [
        {
          "internalType": "address",
          "name": "account_",
          "type": "address"
        }
      ],
      "name": "deliverRewards",
      "outputs": [],
      "stateMutability": "nonpayable",
      "type": "function"
    },
    {
      "inputs": [
        {
          "internalType": "address",
          "name": "account_",
          "type": "address"
        },
        {
          "internalType": "uint256",
          "name": "lockMonths_",
          "type": "uint256"
        }
      ],
      "name": "earnedLockToken1",
      "outputs": [
        {
          "internalType": "uint256",
          "name": "",
          "type": "uint256"
        }
      ],
      "stateMutability": "view",
      "type": "function"
    },
    {
      "inputs": [
        {
          "internalType": "address",
          "name": "account_",
          "type": "address"
        },
        {
          "internalType": "uint256",
          "name": "lockMonths_",
          "type": "uint256"
        }
      ],
      "name": "earnedLockToken2",
      "outputs": [
        {
          "internalType": "uint256",
          "name": "",
          "type": "uint256"
        }
      ],
      "stateMutability": "view",
      "type": "function"
    },
    {
      "inputs": [
        {
          "internalType": "address",
          "name": "account_",
          "type": "address"
        }
      ],
      "name": "earnedToken1",
      "outputs": [
        {
          "internalType": "uint256",
          "name": "",
          "type": "uint256"
        }
      ],
      "stateMutability": "view",
      "type": "function"
    },
    {
      "inputs": [
        {
          "internalType": "address",
          "name": "account_",
          "type": "address"
        },
        {
          "internalType": "uint256[]",
          "name": "lockMonths_",
          "type": "uint256[]"
        }
      ],
      "name": "earnedToken1Partial",
      "outputs": [
        {
          "internalType": "uint256",
          "name": "",
          "type": "uint256"
        }
      ],
      "stateMutability": "view",
      "type": "function"
    },
    {
      "inputs": [
        {
          "internalType": "address",
          "name": "account_",
          "type": "address"
        }
      ],
      "name": "earnedToken2",
      "outputs": [
        {
          "internalType": "uint256",
          "name": "",
          "type": "uint256"
        }
      ],
      "stateMutability": "view",
      "type": "function"
    },
    {
      "inputs": [],
      "name": "exit",
      "outputs": [],
      "stateMutability": "nonpayable",
      "type": "function"
    },
    {
      "inputs": [],
      "name": "finishingBlockNumber",
      "outputs": [
        {
          "internalType": "uint256",
          "name": "",
          "type": "uint256"
        }
      ],
      "stateMutability": "view",
      "type": "function"
    },
    {
      "inputs": [
        {
          "internalType": "bool",
          "name": "compose_",
          "type": "bool"
        }
      ],
      "name": "getReward",
      "outputs": [],
      "stateMutability": "nonpayable",
      "type": "function"
    },
    {
      "inputs": [],
      "name": "getRewardPerToken2Multiplier",
      "outputs": [
        {
          "internalType": "uint256",
          "name": "",
          "type": "uint256"
        }
      ],
      "stateMutability": "view",
      "type": "function"
    },
    {
      "inputs": [
        {
          "internalType": "address",
          "name": "spender",
          "type": "address"
        },
        {
          "internalType": "uint256",
          "name": "addedValue",
          "type": "uint256"
        }
      ],
      "name": "increaseAllowance",
      "outputs": [
        {
          "internalType": "bool",
          "name": "",
          "type": "bool"
        }
      ],
      "stateMutability": "nonpayable",
      "type": "function"
    },
    {
      "inputs": [],
      "name": "lastTimeRewardApplicable",
      "outputs": [
        {
          "internalType": "uint256",
          "name": "",
          "type": "uint256"
        }
      ],
      "stateMutability": "view",
      "type": "function"
    },
    {
      "inputs": [],
      "name": "lastUpdateBlockNumber",
      "outputs": [
        {
          "internalType": "uint256",
          "name": "",
          "type": "uint256"
        }
      ],
      "stateMutability": "view",
      "type": "function"
    },
    {
      "inputs": [],
      "name": "name",
      "outputs": [
        {
          "internalType": "string",
          "name": "",
          "type": "string"
        }
      ],
      "stateMutability": "view",
      "type": "function"
    },
    {
      "inputs": [],
      "name": "owner",
      "outputs": [
        {
          "internalType": "address",
          "name": "",
          "type": "address"
        }
      ],
      "stateMutability": "view",
      "type": "function"
    },
    {
      "inputs": [],
      "name": "renounceOwnership",
      "outputs": [],
      "stateMutability": "nonpayable",
      "type": "function"
    },
    {
      "inputs": [],
      "name": "rewardPerBlock",
      "outputs": [
        {
          "internalType": "uint256",
          "name": "",
          "type": "uint256"
        }
      ],
      "stateMutability": "view",
      "type": "function"
    },
    {
      "inputs": [],
      "name": "rewardPerToken1",
      "outputs": [
        {
          "internalType": "uint256",
          "name": "",
          "type": "uint256"
        }
      ],
      "stateMutability": "view",
      "type": "function"
    },
    {
      "inputs": [],
      "name": "rewardPerToken1Stored",
      "outputs": [
        {
          "internalType": "uint256",
          "name": "",
          "type": "uint256"
        }
      ],
      "stateMutability": "view",
      "type": "function"
    },
    {
      "inputs": [],
      "name": "rewardTokenClaimed",
      "outputs": [
        {
          "internalType": "uint256",
          "name": "",
          "type": "uint256"
        }
      ],
      "stateMutability": "view",
      "type": "function"
    },
    {
      "inputs": [],
      "name": "rewardTokenDistributed",
      "outputs": [
        {
          "internalType": "uint256",
          "name": "",
          "type": "uint256"
        }
      ],
      "stateMutability": "view",
      "type": "function"
    },
    {
      "inputs": [],
      "name": "rewardTokenSum",
      "outputs": [
        {
          "internalType": "uint256",
          "name": "",
          "type": "uint256"
        }
      ],
      "stateMutability": "view",
      "type": "function"
    },
    {
      "inputs": [
        {
          "internalType": "uint256",
          "name": "amount_",
          "type": "uint256"
        },
        {
          "internalType": "uint256",
          "name": "lockMonths_",
          "type": "uint256"
        }
      ],
      "name": "stake",
      "outputs": [],
      "stateMutability": "nonpayable",
      "type": "function"
    },
    {
      "inputs": [
        {
          "internalType": "address",
          "name": "account",
          "type": "address"
        },
        {
          "internalType": "uint256",
          "name": "lockMonths_",
          "type": "uint256"
        }
      ],
      "name": "stakeDataOfByLock",
      "outputs": [
        {
          "components": [
            {
              "internalType": "uint256",
              "name": "amount",
              "type": "uint256"
            },
            {
              "internalType": "uint256",
              "name": "amountVirtual",
              "type": "uint256"
            },
            {
              "internalType": "uint256[]",
              "name": "amounts",
              "type": "uint256[]"
            },
            {
              "internalType": "uint256[]",
              "name": "unlockDates",
              "type": "uint256[]"
            },
            {
              "internalType": "uint256[]",
              "name": "amountsVirtual",
              "type": "uint256[]"
            },
            {
              "internalType": "uint256",
              "name": "rewardToken1",
              "type": "uint256"
            },
            {
              "internalType": "uint256",
              "name": "rewardToken2",
              "type": "uint256"
            }
          ],
          "internalType": "struct MLStaking.StakeData",
          "name": "",
          "type": "tuple"
        }
      ],
      "stateMutability": "view",
      "type": "function"
    },
    {
      "inputs": [],
      "name": "sumAccumulatedRewardsToken2",
      "outputs": [
        {
          "internalType": "uint256",
          "name": "",
          "type": "uint256"
        }
      ],
      "stateMutability": "view",
      "type": "function"
    },
    {
      "inputs": [],
      "name": "symbol",
      "outputs": [
        {
          "internalType": "string",
          "name": "",
          "type": "string"
        }
      ],
      "stateMutability": "view",
      "type": "function"
    },
    {
      "inputs": [
        {
          "internalType": "uint256",
          "name": "lockMonths_",
          "type": "uint256"
        }
      ],
      "name": "totalStakedLockSum",
      "outputs": [
        {
          "internalType": "uint256",
          "name": "",
          "type": "uint256"
        }
      ],
      "stateMutability": "view",
      "type": "function"
    },
    {
      "inputs": [],
      "name": "totalStakers",
      "outputs": [
        {
          "internalType": "uint256",
          "name": "",
          "type": "uint256"
        }
      ],
      "stateMutability": "view",
      "type": "function"
    },
    {
      "inputs": [],
      "name": "totalSumStaked",
      "outputs": [
        {
          "internalType": "uint256",
          "name": "",
          "type": "uint256"
        }
      ],
      "stateMutability": "view",
      "type": "function"
    },
    {
      "inputs": [],
      "name": "totalSumStakedVirtual",
      "outputs": [
        {
          "internalType": "uint256",
          "name": "",
          "type": "uint256"
        }
      ],
      "stateMutability": "view",
      "type": "function"
    },
    {
      "inputs": [],
      "name": "totalSupply",
      "outputs": [
        {
          "internalType": "uint256",
          "name": "",
          "type": "uint256"
        }
      ],
      "stateMutability": "view",
      "type": "function"
    },
    {
      "inputs": [
        {
          "internalType": "address",
          "name": "to",
          "type": "address"
        },
        {
          "internalType": "uint256",
          "name": "amount",
          "type": "uint256"
        }
      ],
      "name": "transfer",
      "outputs": [
        {
          "internalType": "bool",
          "name": "",
          "type": "bool"
        }
      ],
      "stateMutability": "nonpayable",
      "type": "function"
    },
    {
      "inputs": [
        {
          "internalType": "address",
          "name": "from",
          "type": "address"
        },
        {
          "internalType": "address",
          "name": "to",
          "type": "address"
        },
        {
          "internalType": "uint256",
          "name": "amount",
          "type": "uint256"
        }
      ],
      "name": "transferFrom",
      "outputs": [
        {
          "internalType": "bool",
          "name": "",
          "type": "bool"
        }
      ],
      "stateMutability": "nonpayable",
      "type": "function"
    },
    {
      "inputs": [
        {
          "internalType": "address",
          "name": "newOwner",
          "type": "address"
        }
      ],
      "name": "transferOwnership",
      "outputs": [],
      "stateMutability": "nonpayable",
      "type": "function"
    },
    {
      "inputs": [],
      "name": "unstaked",
      "outputs": [],
      "stateMutability": "nonpayable",
      "type": "function"
    },
    {
      "inputs": [
        {
          "internalType": "uint256",
          "name": "amount_",
          "type": "uint256"
        },
        {
          "internalType": "uint256",
          "name": "lockMonths_",
          "type": "uint256"
        },
        {
          "internalType": "uint256",
          "name": "stakeDataIndex_",
          "type": "uint256"
        }
      ],
      "name": "unstakedLock",
      "outputs": [],
      "stateMutability": "nonpayable",
      "type": "function"
    },
    {
      "inputs": [
        {
          "internalType": "uint256",
          "name": "rewardPerBlock_",
          "type": "uint256"
        }
      ],
      "name": "updateRewardPerBlock",
      "outputs": [],
      "stateMutability": "nonpayable",
      "type": "function"
    },
    {
      "inputs": [
        {
          "internalType": "uint256",
          "name": "amountReward_",
          "type": "uint256"
        }
      ],
      "name": "updateRewardToDistribute",
      "outputs": [],
      "stateMutability": "nonpayable",
      "type": "function"
    },
    {
      "inputs": [
        {
          "internalType": "uint256",
          "name": "divider_",
          "type": "uint256"
        }
      ],
      "name": "updateTokenRewardDivider",
      "outputs": [],
      "stateMutability": "nonpayable",
      "type": "function"
    },
    {
      "inputs": [
        {
          "internalType": "address",
          "name": "",
          "type": "address"
        }
      ],
      "name": "userRewardPaidPerToken1",
      "outputs": [
        {
          "internalType": "uint256",
          "name": "",
          "type": "uint256"
        }
      ],
      "stateMutability": "view",
      "type": "function"
    },
    {
      "inputs": [],
      "name": "withdrawUnclaimedRewards",
      "outputs": [],
      "stateMutability": "nonpayable",
      "type": "function"
    }
  ],
  "transactionHash": "0xfa69758dbb9fc1e8eb7d7be69187757dbd42b02b64cd3e5cad632531ee57caf8",
  "args": [
    "Testnet TML",
    "TML"
  ],
  "numDeployments": 1,
  "solcInputHash": "fe5507863542775f5b65b32a16a8100d",
  "bytecode": "0x61016060405260006080908152600160a052600260c052600360e0526004610100526005610120526006610140526200003c9060079081620001ab565b503480156200004a57600080fd5b5060405162003851380380620038518339810160408190526200006d9162000347565b8151829082906200008690600390602085019062000200565b5080516200009c90600490602084019062000200565b505050620000b9620000b36200015560201b60201c565b62000159565b60016006556103e86013556706830064d233c00060125560005b6007548110156200014c57600160186000600784815481106200010657634e487b7160e01b600052603260045260246000fd5b9060005260206000200154815260200190815260200160002060006101000a81548160ff02191690831515021790555080806200014390620003eb565b915050620000d3565b50505062000429565b3390565b600580546001600160a01b038381166001600160a01b0319831681179093556040519116919082907f8be0079c531659141344cd1fd0a4f28419497f9722a3daafe3b4186f6b6457e090600090a35050565b828054828255906000526020600020908101928215620001ee579160200282015b82811115620001ee578251829060ff16905591602001919060010190620001cc565b50620001fc9291506200027d565b5090565b8280546200020e90620003ae565b90600052602060002090601f016020900481019282620002325760008555620001ee565b82601f106200024d57805160ff1916838001178555620001ee565b82800160010185558215620001ee579182015b82811115620001ee57825182559160200191906001019062000260565b5b80821115620001fc57600081556001016200027e565b600082601f830112620002a5578081fd5b81516001600160401b0380821115620002c257620002c262000413565b604051601f8301601f19908116603f01168101908282118183101715620002ed57620002ed62000413565b8160405283815260209250868385880101111562000309578485fd5b8491505b838210156200032c57858201830151818301840152908201906200030d565b838211156200033d57848385830101525b9695505050505050565b600080604083850312156200035a578182fd5b82516001600160401b038082111562000371578384fd5b6200037f8683870162000294565b9350602085015191508082111562000395578283fd5b50620003a48582860162000294565b9150509250929050565b600281046001821680620003c357607f821691505b60208210811415620003e557634e487b7160e01b600052602260045260246000fd5b50919050565b60006000198214156200040c57634e487b7160e01b81526011600452602481fd5b5060010190565b634e487b7160e01b600052604160045260246000fd5b61341880620004396000396000f3fe608060405234801561001057600080fd5b506004361061032b5760003560e01c806386989038116101b2578063b4c6e416116100f9578063c43bafaf116100a2578063e9fad8ee1161007c578063e9fad8ee146105ee578063f2fde38b146105f6578063f32e023614610609578063fb3db8691461061c5761032b565b8063c43bafaf146105c0578063d7282ff0146105c8578063dd62ed3e146105db5761032b565b8063bb561524116100d3578063bb56152414610592578063bf9c89bb1461059a578063c014574f146105ad5761032b565b8063b4c6e4161461056f578063b5d2673814610577578063b67cf2901461058a5761032b565b80639ca9b6431161015b578063a9059cbb11610135578063a9059cbb14610541578063acbc2e8a14610554578063ae7e3b6c1461055c5761032b565b80639ca9b64314610508578063a457c2d71461051b578063a4698feb1461052e5761032b565b80638da5cb5b1161018c5780638da5cb5b146104e3578063936f72a4146104f857806395d89b41146105005761032b565b806386989038146104cb5780638ae39cac146104d35780638da4c7c9146104db5761032b565b806341c351e8116102765780636c9db0411161021f57806379e95a1e116101f957806379e95a1e146104a85780637b0472f0146104b057806380faa57d146104c35761032b565b80636c9db0411461047a57806370a082311461048d578063715018a6146104a05761032b565b806355db62001161025057806355db6200146104575780635fc1aa391461046a5780636616a4ae146104725761032b565b806341c351e814610429578063446154641461043c5780635031be68146104445761032b565b80631a77398f116102d8578063313ce567116102b2578063313ce567146103ee57806336d187ab1461040357806339509351146104165761032b565b80631a77398f146103c057806323b872dd146103c85780632a74bfa4146103db5761032b565b8063078ea0bb11610309578063078ea0bb14610378578063095ea7b31461039857806318160ddd146103b85761032b565b806301f8a97614610330578063060690531461034557806306fdde0314610363575b600080fd5b61034361033e366004612a55565b61062f565b005b61034d610683565b60405161035a9190613257565b60405180910390f35b61036b610689565b60405161035a9190612b83565b61038b6103863660046129f4565b61071c565b60405161035a91906131ab565b6103ab6103a63660046129f4565b61087d565b60405161035a9190612b78565b61034d61089f565b61034d6108a5565b6103ab6103d63660046128c9565b610918565b61034d6103e936600461287d565b610946565b6103f66109b1565b60405161035a919061326e565b61034d6104113660046129f4565b6109b6565b6103ab6104243660046129f4565b6109de565b61034d6104373660046129f4565b610a0a565b61034d610a97565b61034d61045236600461287d565b610a9d565b61034d61046536600461287d565b610aaf565b61034d610ac1565b61034d610ac7565b610343610488366004612a55565b610acd565b61034d61049b36600461287d565b610d7a565b610343610d95565b61034d610da9565b6103436104be366004612a85565b610dcc565b61034d610dea565b61034d610e02565b61034d610e08565b61034d610e0e565b6104eb610e14565b60405161035a9190612b27565b61034d610e23565b61036b610e29565b61034361051636600461287d565b610e38565b6103ab6105293660046129f4565b610e96565b61034361053c366004612a1d565b610ede565b6103ab61054f3660046129f4565b610f3a565b610343610f52565b61034d61056a36600461287d565b6110c6565b61034d611121565b610343610585366004612a55565b611127565b61034d611154565b61034361115a565b61034d6105a836600461287d565b6111b2565b6103436105bb366004612aa6565b6111cd565b61034d6111ed565b61034d6105d63660046129f4565b6111f3565b61034d6105e9366004612897565b6112e8565b610343611313565b61034361060436600461287d565b611477565b61034d610617366004612a55565b6114ae565b61034d61062a366004612904565b6114c0565b61063761151e565b600081116106605760405162461bcd60e51b815260040161065790612db6565b60405180910390fd5b6012819055600e5461067d90610676908361155d565b4390611570565b60085550565b600d5481565b60606003805461069890613334565b80601f01602080910402602001604051908101604052809291908181526020018280546106c490613334565b80156107115780601f106106e657610100808354040283529160200191610711565b820191906000526020600020905b8154815290600101906020018083116106f457829003601f168201915b505050505090505b90565b6107246127f7565b6001600160a01b0383166000908152601960209081526040808320858452825291829020825160e08101845281548152600182015481840152600282018054855181860281018601875281815292959394938601938301828280156107a857602002820191906000526020600020905b815481526020019060010190808311610794575b505050505081526020016003820180548060200260200160405190810160405280929190818152602001828054801561080057602002820191906000526020600020905b8154815260200190600101908083116107ec575b505050505081526020016004820180548060200260200160405190810160405280929190818152602001828054801561085857602002820191906000526020600020905b815481526020019060010190808311610844575b5050505050815260200160058201548152602001600682015481525050905092915050565b60008061088861157c565b9050610895818585611580565b5060019392505050565b60025490565b6000600f54600014156108bb5750600b54610719565b61091361090a6108d8601154600f5461157090919063ffffffff16565b610904670de0b6b3a76400006108fe6012546108fe6009546108f8610dea565b90611634565b90611640565b9061155d565b600b5490611570565b905090565b60008061092361157c565b905061093085828561164c565b61093b8585856116b4565b506001949350505050565b600080805b6007548110156109a85761099461098d856007848154811061097d57634e487b7160e01b600052603260045260246000fd5b90600052602060002001546111f3565b8390611570565b9150806109a08161336f565b91505061094b565b5090505b919050565b601290565b6001600160a01b03919091166000908152601960209081526040808320938352929052205490565b6000806109e961157c565b90506108958185856109fb85896112e8565b610a05919061327c565b611580565b600081815260186020526040812054829060ff16610a3a5760405162461bcd60e51b815260040161065790612e4a565b6000610a44610da9565b6013546001600160a01b0387166000908152601960209081526040808320898452909152902060018101549054929350610a8e92610a8792916109049190611570565b8290611640565b95945050505050565b600e5481565b601a6020526000908152604090205481565b60146020526000908152604090205481565b600b5481565b600c5481565b6000610ad76108a5565b600b556000610ae4610da9565b9050610aee610dea565b6009556001600160a01b03821615610ced5760005b600754811015610ccf57610b1783826111f3565b6001600160a01b03841660009081526019602052604081206007805491929185908110610b5457634e487b7160e01b600052603260045260246000fd5b9060005260206000200154815260200190815260200160002060050181905550610c5f610c5860135461090460196000886001600160a01b03166001600160a01b03168152602001908152602001600020600060078781548110610bc857634e487b7160e01b600052603260045260246000fd5b906000526020600020015481526020019081526020016000206001015460196000896001600160a01b03166001600160a01b03168152602001908152602001600020600060078881548110610c2d57634e487b7160e01b600052603260045260246000fd5b906000526020600020015481526020019081526020016000206000015461157090919063ffffffff16565b8390611640565b6001600160a01b03841660009081526019602052604081206007805491929185908110610c9c57634e487b7160e01b600052603260045260246000fd5b90600052602060002001548152602001908152602001600020600601819055508080610cc79061336f565b915050610b03565b50600b546001600160a01b0383166000908152601460205260409020555b610cf561151e565b60008311610d155760405162461bcd60e51b815260040161065790612eb8565b610d3573281e2cc83bd4a9930903aaa0a8cd1b521c1eb5623330866117b5565b600e54610d429084611570565b600e819055600c8054600090610d5990849061327c565b9091555050601254600e54610d7291610676919061155d565b600855505050565b6001600160a01b031660009081526020819052604090205490565b610d9d61151e565b610da76000611858565b565b6000600f5460001415610dbe57506000610719565b6109136009546108f8610dea565b610dd46118c2565b610dde82826118ec565b610de6611cdc565b5050565b60006008544310610dfd57600854610913565b504390565b600a5481565b60125481565b60085481565b6005546001600160a01b031690565b60115481565b60606004805461069890613334565b610e406118c2565b610e4861151e565b6001600160a01b0381166000908152601a60205260409020548015610e8a576001600160a01b0382166000908152601a6020526040812055610e8a8282611ce3565b50610e93611cdc565b50565b600080610ea161157c565b90506000610eaf82866112e8565b905083811015610ed15760405162461bcd60e51b815260040161065790613117565b61093b8286868403611580565b610ee66118c2565b60005b600754811015610e8a57610f2860078281548110610f1757634e487b7160e01b600052603260045260246000fd5b906000526020600020015483611d8d565b80610f328161336f565b915050610ee9565b600080610f4561157c565b90506108958185856116b4565b610f5a6118c2565b60005b6007548110156110bd573360009081526019602052604081206007805483919085908110610f9b57634e487b7160e01b600052603260045260246000fd5b90600052602060002001548152602001908152602001600020905060005b60028201548110156110a8576000826002018281548110610fea57634e487b7160e01b600052603260045260246000fd5b906000526020600020015411801561102e57504282600301828154811061102157634e487b7160e01b600052603260045260246000fd5b9060005260206000200154105b156110965761109682600201828154811061105957634e487b7160e01b600052603260045260246000fd5b90600052602060002001546007858154811061108557634e487b7160e01b600052603260045260246000fd5b906000526020600020015483612139565b806110a08161336f565b915050610fb9565b505080806110b59061336f565b915050610f5d565b50610da7611cdc565b600080805b6007548110156109a85761110d61098d85600784815481106110fd57634e487b7160e01b600052603260045260246000fd5b9060005260206000200154610a0a565b9150806111198161336f565b9150506110cb565b60095481565b61112f61151e565b6000811161114f5760405162461bcd60e51b815260040161065790612f24565b601255565b60105481565b6111626118c2565b61116a61151e565b6008544311801561117d57506000600e54115b156111aa57600e805460009091556110bd73281e2cc83bd4a9930903aaa0a8cd1b521c1eb5623383612629565b610da7611cdc565b6001600160a01b031660009081526016602052604090205490565b6111d56118c2565b6111e0838383612139565b6111e8611cdc565b505050565b600f5481565b600081815260186020526040812054829060ff166112235760405162461bcd60e51b815260040161065790612e4a565b6001600160a01b03841660009081526019602090815260408083208684529091529020600501546112e0906112da670de0b6b3a76400006109046064816112698a612648565b6001600160a01b038c166000908152601460205260409020546108fe90611292906108f86108a5565b601960008f6001600160a01b03166001600160a01b0316815260200190815260200160002060008e81526020019081526020016000206000015461164090919063ffffffff16565b90611570565b949350505050565b6001600160a01b03918216600090815260016020908152604080832093909416825291909152205490565b61131b6118c2565b60005b6007548110156110bd5761135e6007828154811061134c57634e487b7160e01b600052603260045260246000fd5b90600052602060002001546000611d8d565b336000908152601960205260408120600780548391908590811061139257634e487b7160e01b600052603260045260246000fd5b90600052602060002001548152602001908152602001600020905060005b60028201548110156114625760008260020182815481106113e157634e487b7160e01b600052603260045260246000fd5b906000526020600020015411801561142557504282600301828154811061141857634e487b7160e01b600052603260045260246000fd5b9060005260206000200154105b156114505761145082600201828154811061105957634e487b7160e01b600052603260045260246000fd5b8061145a8161336f565b9150506113b0565b5050808061146f9061336f565b91505061131e565b61147f61151e565b6001600160a01b0381166114a55760405162461bcd60e51b815260040161065790612c8e565b610e9381611858565b60009081526017602052604090205490565b600080805b83518110156115165761150261098d868684815181106114f557634e487b7160e01b600052603260045260246000fd5b60200260200101516111f3565b91508061150e8161336f565b9150506114c5565b509392505050565b61152661157c565b6001600160a01b0316611537610e14565b6001600160a01b031614610da75760405162461bcd60e51b815260040161065790612eef565b60006115698284613294565b9392505050565b6000611569828461327c565b3390565b6001600160a01b0383166115a65760405162461bcd60e51b815260040161065790612fef565b6001600160a01b0382166115cc5760405162461bcd60e51b815260040161065790612ceb565b6001600160a01b0380841660008181526001602090815260408083209487168084529490915290819020849055517f8c5be1e5ebec7d5bd14f71427d1e84f3dd0314c0f7b2291e5b200ac8c7c3b92590611627908590613257565b60405180910390a3505050565b600061156982846132f1565b600061156982846132b4565b600061165884846112e8565b90507fffffffffffffffffffffffffffffffffffffffffffffffffffffffffffffffff81146116ae57818110156116a15760405162461bcd60e51b815260040161065790612d7f565b6116ae8484848403611580565b50505050565b6001600160a01b0383166116da5760405162461bcd60e51b815260040161065790612f92565b6001600160a01b0382166117005760405162461bcd60e51b815260040161065790612bd4565b61170b8383836111e8565b6001600160a01b038316600090815260208190526040902054818110156117445760405162461bcd60e51b815260040161065790612ded565b6001600160a01b0380851660008181526020819052604080822086860390559286168082529083902080548601905591517fddf252ad1be2c89b69c2b068fc378daa952ba7f163c4a11628f55a4df523b3ef906117a2908690613257565b60405180910390a36116ae8484846111e8565b6116ae846323b872dd60e01b8585856040516024016117d693929190612b3b565b604080517fffffffffffffffffffffffffffffffffffffffffffffffffffffffffffffffe08184030181529190526020810180517bffffffffffffffffffffffffffffffffffffffffffffffffffffffff167fffffffff0000000000000000000000000000000000000000000000000000000090931692909217909152612666565b600580546001600160a01b038381167fffffffffffffffffffffffff0000000000000000000000000000000000000000831681179093556040519116919082907f8be0079c531659141344cd1fd0a4f28419497f9722a3daafe3b4186f6b6457e090600090a35050565b600260065414156118e55760405162461bcd60e51b8152600401610657906130e0565b6002600655565b600081815260186020526040902054819060ff1661191c5760405162461bcd60e51b815260040161065790612e4a565b336119256108a5565b600b556000611932610da9565b905061193c610dea565b6009556001600160a01b03821615611aa45760005b600754811015611a865761196583826111f3565b6001600160a01b038416600090815260196020526040812060078054919291859081106119a257634e487b7160e01b600052603260045260246000fd5b9060005260206000200154815260200190815260200160002060050181905550611a16610c5860135461090460196000886001600160a01b03166001600160a01b03168152602001908152602001600020600060078781548110610bc857634e487b7160e01b600052603260045260246000fd5b6001600160a01b03841660009081526019602052604081206007805491929185908110611a5357634e487b7160e01b600052603260045260246000fd5b90600052602060002001548152602001908152602001600020600601819055508080611a7e9061336f565b915050611951565b50600b546001600160a01b0383166000908152601460205260409020555b60008511611ac45760405162461bcd60e51b815260040161065790612d48565b6000611ae2866108f86064610904611adb8a612648565b8b90611640565b601154909150611af29082611570565b601155600f54611b029087611570565b600f55600085815260176020526040902054611b1e9087611570565b600086815260176020908152604080832093909355338252601690522054611b469087611570565b33600081815260166020526040902091909155611b7a9073281e2cc83bd4a9930903aaa0a8cd1b521c1eb5629030896117b5565b3360009081526019602090815260408083208884529091528120805490918891839190611ba890849061327c565b9250508190555081816001016000828254611bc3919061327c565b909155505060028101805460018181018355600092835260208084209092018a90556004840180549182018155835291200182905560038101611c13611c0c8862278d006132b4565b4290611570565b8154600181018355600092835260208084209091019190915533825260159052604090205460ff16611c90576001600a6000828254611c52919061327c565b909155505033600090815260156020526040902080547fffffffffffffffffffffffffffffffffffffffffffffffffffffffffffffff001660011790555b336001600160a01b03167f1449c6dd7851abc30abf37f57715f492010519147cc2652fbc38202c18a6ee908888604051611ccb929190613260565b60405180910390a250505050505050565b6001600655565b6001600160a01b038216611d095760405162461bcd60e51b815260040161065790613174565b611d15600083836111e8565b8060026000828254611d27919061327c565b90915550506001600160a01b038216600081815260208190526040808220805485019055517fddf252ad1be2c89b69c2b068fc378daa952ba7f163c4a11628f55a4df523b3ef90611d79908590613257565b60405180910390a3610de6600083836111e8565b600082815260186020526040902054829060ff16611dbd5760405162461bcd60e51b815260040161065790612e4a565b33611dc66108a5565b600b556000611dd3610da9565b9050611ddd610dea565b6009556001600160a01b03821615611f455760005b600754811015611f2757611e0683826111f3565b6001600160a01b03841660009081526019602052604081206007805491929185908110611e4357634e487b7160e01b600052603260045260246000fd5b9060005260206000200154815260200190815260200160002060050181905550611eb7610c5860135461090460196000886001600160a01b03166001600160a01b03168152602001908152602001600020600060078781548110610bc857634e487b7160e01b600052603260045260246000fd5b6001600160a01b03841660009081526019602052604081206007805491929185908110611ef457634e487b7160e01b600052603260045260246000fd5b90600052602060002001548152602001908152602001600020600601819055508080611f1f9061336f565b915050611df2565b50600b546001600160a01b0383166000908152601460205260409020555b3360009081526019602090815260408083208884529091529020600581015460068201548015611fb557600083600601819055508060106000828254611f8b919061327c565b9091555050336000908152601a602052604081208054839290611faf90849061327c565b90915550505b60008211801561206c5750600f546040517f70a0823100000000000000000000000000000000000000000000000000000000815283916120699173281e2cc83bd4a9930903aaa0a8cd1b521c1eb562906370a0823190612019903090600401612b27565b60206040518083038186803b15801561203157600080fd5b505afa158015612045573d6000803e3d6000fd5b505050506040513d601f19601f820116820180604052508101906108f89190612a6d565b10155b1561212f5781600e600082825461208391906132f1565b9250508190555081600d600082825461209c919061327c565b92505081905550818360050160008282546120b791906132f1565b909155506120dc905073281e2cc83bd4a9930903aaa0a8cd1b521c1eb5623384612629565b86156120ed576120ed8260006118ec565b336001600160a01b03167fe2403640ba68fed3a2f88b7557551d1993f84b99bb10ff833f0cf8db0c5e0486836040516121269190613257565b60405180910390a25b5050505050505050565b600082815260186020526040902054829060ff166121695760405162461bcd60e51b815260040161065790612e4a565b336121726108a5565b600b55600061217f610da9565b9050612189610dea565b6009556001600160a01b038216156122f15760005b6007548110156122d3576121b283826111f3565b6001600160a01b038416600090815260196020526040812060078054919291859081106121ef57634e487b7160e01b600052603260045260246000fd5b9060005260206000200154815260200190815260200160002060050181905550612263610c5860135461090460196000886001600160a01b03166001600160a01b03168152602001908152602001600020600060078781548110610bc857634e487b7160e01b600052603260045260246000fd5b6001600160a01b038416600090815260196020526040812060078054919291859081106122a057634e487b7160e01b600052603260045260246000fd5b906000526020600020015481526020019081526020016000206006018190555080806122cb9061336f565b91505061219e565b50600b546001600160a01b0383166000908152601460205260409020555b600086116123115760405162461bcd60e51b815260040161065790612e81565b33600090815260196020908152604080832088845290915290206002810180548690811061234f57634e487b7160e01b600052603260045260246000fd5b90600052602060002001548711156123795760405162461bcd60e51b815260040161065790612f5b565b4281600301868154811061239d57634e487b7160e01b600052603260045260246000fd5b9060005260206000200154106123c55760405162461bcd60e51b815260040161065790612c31565b60006123e3886108f860646109046123dc8c612648565b8d90611640565b6011549091506123f39082611634565b601155600f546124039089611634565b600f5560008781526017602052604090205461241f9089611634565b6000888152601760209081526040808320939093553382526016905220546124479089611634565b3360009081526016602052604081209190915582548991849161246b9084906132f1565b925050819055508082600101600082825461248691906132f1565b9250508190555060008260030187815481106124b257634e487b7160e01b600052603260045260246000fd5b9060005260206000200181905550878260020187815481106124e457634e487b7160e01b600052603260045260246000fd5b9060005260206000200160008282546124fd91906132f1565b925050819055508082600401878154811061252857634e487b7160e01b600052603260045260246000fd5b90600052602060002001600082825461254191906132f1565b9091555050336000908152601660205260409020546125d1576001600a600082825461256d91906132f1565b909155505033600090815260156020526040812080547fffffffffffffffffffffffffffffffffffffffffffffffffffffffffffffff001690556125b5906002840190612834565b6125c3600383016000612834565b6125d1600483016000612834565b6125f073281e2cc83bd4a9930903aaa0a8cd1b521c1eb562338a612629565b336001600160a01b03167f0f5bb82176feb1b5e747e28471aa92156a04d9f3ab9f45f28e2d704232b93f75896040516121269190613257565b6111e88363a9059cbb60e01b84846040516024016117d6929190612b5f565b60006126558260196132b4565b61266090606461327c565b92915050565b60006126bb826040518060400160405280602081526020017f5361666545524332303a206c6f772d6c6576656c2063616c6c206661696c6564815250856001600160a01b03166126f59092919063ffffffff16565b8051909150156111e857808060200190518101906126d99190612a39565b6111e85760405162461bcd60e51b815260040161065790613083565b60606112e0848460008585600080866001600160a01b0316858760405161271c9190612b0b565b60006040518083038185875af1925050503d8060008114612759576040519150601f19603f3d011682016040523d82523d6000602084013e61275e565b606091505b509150915061276f8783838761277a565b979650505050505050565b606083156127b45782516127ad57612791856127be565b6127ad5760405162461bcd60e51b81526004016106579061304c565b50816112e0565b6112e083836127cd565b6001600160a01b03163b151590565b8151156127dd5781518083602001fd5b8060405162461bcd60e51b81526004016106579190612b83565b6040518060e00160405280600081526020016000815260200160608152602001606081526020016060815260200160008152602001600081525090565b5080546000825590600052602060002090810190610e9391905b80821115612862576000815560010161284e565b5090565b80356001600160a01b03811681146109ac57600080fd5b60006020828403121561288e578081fd5b61156982612866565b600080604083850312156128a9578081fd5b6128b283612866565b91506128c060208401612866565b90509250929050565b6000806000606084860312156128dd578081fd5b6128e684612866565b92506128f460208501612866565b9150604084013590509250925092565b60008060408385031215612916578182fd5b61291f83612866565b915060208084013567ffffffffffffffff8082111561293c578384fd5b818601915086601f83011261294f578384fd5b813581811115612961576129616133be565b8381026040517fffffffffffffffffffffffffffffffffffffffffffffffffffffffffffffffe0603f830116810181811085821117156129a3576129a36133be565b604052828152858101935084860182860187018b10156129c1578788fd5b8795505b838610156129e35780358552600195909501949386019386016129c5565b508096505050505050509250929050565b60008060408385031215612a06578182fd5b612a0f83612866565b946020939093013593505050565b600060208284031215612a2e578081fd5b8135611569816133d4565b600060208284031215612a4a578081fd5b8151611569816133d4565b600060208284031215612a66578081fd5b5035919050565b600060208284031215612a7e578081fd5b5051919050565b60008060408385031215612a97578182fd5b50508035926020909101359150565b600080600060608486031215612aba578283fd5b505081359360208301359350604090920135919050565b6000815180845260208085019450808401835b83811015612b0057815187529582019590820190600101612ae4565b509495945050505050565b60008251612b1d818460208701613308565b9190910192915050565b6001600160a01b0391909116815260200190565b6001600160a01b039384168152919092166020820152604081019190915260600190565b6001600160a01b03929092168252602082015260400190565b901515815260200190565b6000602082528251806020840152612ba2816040850160208701613308565b601f017fffffffffffffffffffffffffffffffffffffffffffffffffffffffffffffffe0169190910160400192915050565b60208082526023908201527f45524332303a207472616e7366657220746f20746865207a65726f206164647260408201527f6573730000000000000000000000000000000000000000000000000000000000606082015260800190565b60208082526025908201527f54686520626c6f636b696e672074696d6520686173206e6f742079657420657860408201527f7069726564000000000000000000000000000000000000000000000000000000606082015260800190565b60208082526026908201527f4f776e61626c653a206e6577206f776e657220697320746865207a65726f206160408201527f6464726573730000000000000000000000000000000000000000000000000000606082015260800190565b60208082526022908201527f45524332303a20617070726f766520746f20746865207a65726f20616464726560408201527f7373000000000000000000000000000000000000000000000000000000000000606082015260800190565b6020808252600e908201527f43616e6e6f74207374616b652030000000000000000000000000000000000000604082015260600190565b6020808252601d908201527f45524332303a20696e73756666696369656e7420616c6c6f77616e6365000000604082015260600190565b6020808252601c908201527f5265776172642070657220626c6f636b2063616e6e6f74206265203000000000604082015260600190565b60208082526026908201527f45524332303a207472616e7366657220616d6f756e742065786365656473206260408201527f616c616e63650000000000000000000000000000000000000000000000000000606082015260800190565b60208082526013908201527f496e76616c6964206c6f636b206d6f6e74687300000000000000000000000000604082015260600190565b60208082526011908201527f43616e6e6f742077697468647261772030000000000000000000000000000000604082015260600190565b6020808252601f908201527f52657761726420746f6b656e20616d6f756e742063616e6e6f74206265203000604082015260600190565b6020808252818101527f4f776e61626c653a2063616c6c6572206973206e6f7420746865206f776e6572604082015260600190565b60208082526013908201527f446976696465722063616e6e6f74206265203000000000000000000000000000604082015260600190565b60208082526014908201527f696e73756666696369656e742062616c616e6365000000000000000000000000604082015260600190565b60208082526025908201527f45524332303a207472616e736665722066726f6d20746865207a65726f20616460408201527f6472657373000000000000000000000000000000000000000000000000000000606082015260800190565b60208082526024908201527f45524332303a20617070726f76652066726f6d20746865207a65726f2061646460408201527f7265737300000000000000000000000000000000000000000000000000000000606082015260800190565b6020808252601d908201527f416464726573733a2063616c6c20746f206e6f6e2d636f6e7472616374000000604082015260600190565b6020808252602a908201527f5361666545524332303a204552433230206f7065726174696f6e20646964206e60408201527f6f74207375636365656400000000000000000000000000000000000000000000606082015260800190565b6020808252601f908201527f5265656e7472616e637947756172643a207265656e7472616e742063616c6c00604082015260600190565b60208082526025908201527f45524332303a2064656372656173656420616c6c6f77616e63652062656c6f7760408201527f207a65726f000000000000000000000000000000000000000000000000000000606082015260800190565b6020808252601f908201527f45524332303a206d696e7420746f20746865207a65726f206164647265737300604082015260600190565b6000602082528251602083015260208301516040830152604083015160e060608401526131dc610100840182612ad1565b905060608401517fffffffffffffffffffffffffffffffffffffffffffffffffffffffffffffffe0808584030160808601526132188383612ad1565b925060808601519150808584030160a0860152506132368282612ad1565b91505060a084015160c084015260c084015160e08401528091505092915050565b90815260200190565b918252602082015260400190565b60ff91909116815260200190565b6000821982111561328f5761328f6133a8565b500190565b6000826132af57634e487b7160e01b81526012600452602481fd5b500490565b6000817fffffffffffffffffffffffffffffffffffffffffffffffffffffffffffffffff04831182151516156132ec576132ec6133a8565b500290565b600082821015613303576133036133a8565b500390565b60005b8381101561332357818101518382015260200161330b565b838111156116ae5750506000910152565b60028104600182168061334857607f821691505b6020821081141561336957634e487b7160e01b600052602260045260246000fd5b50919050565b60007fffffffffffffffffffffffffffffffffffffffffffffffffffffffffffffffff8214156133a1576133a16133a8565b5060010190565b634e487b7160e01b600052601160045260246000fd5b634e487b7160e01b600052604160045260246000fd5b8015158114610e9357600080fdfea2646970667358221220f63d2ccb00c30646850871e2446c065032c68ae0d9d20bc609d65fdf700dde3d64736f6c63430008010033",
  "devdoc": {
    "kind": "dev",
    "methods": {
      "allowance(address,address)": {
        "details": "See {IERC20-allowance}."
      },
      "approve(address,uint256)": {
        "details": "See {IERC20-approve}. NOTE: If `amount` is the maximum `uint256`, the allowance is not updated on `transferFrom`. This is semantically equivalent to an infinite approval. Requirements: - `spender` cannot be the zero address."
      },
      "balanceOf(address)": {
        "details": "See {IERC20-balanceOf}."
      },
      "constructor": {
        "params": {
          "name_": "Name of ERC20 reward token",
          "symbol_": "Symbol of ERC20 reward token*"
        }
      },
      "decimals()": {
        "details": "Returns the number of decimals used to get its user representation. For example, if `decimals` equals `2`, a balance of `505` tokens should be displayed to a user as `5.05` (`505 / 10 ** 2`). Tokens usually opt for a value of 18, imitating the relationship between Ether and Wei. This is the value {ERC20} uses, unless this function is overridden; NOTE: This information is only used for _display_ purposes: it in no way affects any of the arithmetic of the contract, including {IERC20-balanceOf} and {IERC20-transfer}."
      },
      "decreaseAllowance(address,uint256)": {
        "details": "Atomically decreases the allowance granted to `spender` by the caller. This is an alternative to {approve} that can be used as a mitigation for problems described in {IERC20-approve}. Emits an {Approval} event indicating the updated allowance. Requirements: - `spender` cannot be the zero address. - `spender` must have allowance for the caller of at least `subtractedValue`."
      },
      "exit()": {
        "details": "Withdraw all the staked tokens and claim earned rewards."
      },
      "getReward(bool)": {
        "details": "Claim the accumulated rewards."
      },
      "getRewardPerToken2Multiplier()": {
        "details": "Calculate the reward multiplier for the second token*"
      },
      "increaseAllowance(address,uint256)": {
        "details": "Atomically increases the allowance granted to `spender` by the caller. This is an alternative to {approve} that can be used as a mitigation for problems described in {IERC20-approve}. Emits an {Approval} event indicating the updated allowance. Requirements: - `spender` cannot be the zero address."
      },
      "name()": {
        "details": "Returns the name of the token."
      },
      "owner()": {
        "details": "Returns the address of the current owner."
      },
      "renounceOwnership()": {
        "details": "Leaves the contract without owner. It will not be possible to call `onlyOwner` functions anymore. Can only be called by the current owner. NOTE: Renouncing ownership will leave the contract without an owner, thereby removing any functionality that is only available to the owner."
      },
      "rewardPerToken1()": {
        "details": "Calculate the rewards accumulated per token staked up to the current time.*"
      },
      "stake(uint256,uint256)": {
        "details": "Staked tokens to receive rewards.",
        "params": {
          "amount_": "Amount of tokens to be staked.",
          "lockMonths_": "lockdown months.*"
        }
      },
      "symbol()": {
        "details": "Returns the symbol of the token, usually a shorter version of the name."
      },
      "totalSupply()": {
        "details": "See {IERC20-totalSupply}."
      },
      "transfer(address,uint256)": {
        "details": "See {IERC20-transfer}. Requirements: - `to` cannot be the zero address. - the caller must have a balance of at least `amount`."
      },
      "transferFrom(address,address,uint256)": {
        "details": "See {IERC20-transferFrom}. Emits an {Approval} event indicating the updated allowance. This is not required by the EIP. See the note at the beginning of {ERC20}. NOTE: Does not update the allowance if the current allowance is the maximum `uint256`. Requirements: - `from` and `to` cannot be the zero address. - `from` must have a balance of at least `amount`. - the caller must have allowance for ``from``'s tokens of at least `amount`."
      },
      "transferOwnership(address)": {
        "details": "Transfers ownership of the contract to a new account (`newOwner`). Can only be called by the current owner."
      },
      "unstaked()": {
        "details": "Withdraw staked tokens.*"
      },
      "unstakedLock(uint256,uint256,uint256)": {
        "details": "Withdraw staked tokens.",
        "params": {
          "amount_": "Amount of tokens to be withdrawn.",
          "lockMonths_": "lockdown months.",
          "stakeDataIndex_": "index to access data for a specific stake `amount` `unlockDate`.*"
        }
      }
    },
    "stateVariables": {
      "STAKING_TOKEN": {
        "details": "Address of the token to partially pay rewards."
      },
      "_accountsWithStakeLocked": {
        "details": "account => months => StakeData"
      },
      "_balancesStaked": {
        "details": "The balance staked by an account. account => balance*"
      },
      "_monthsOfBlockingEnabled": {
        "details": "enabled blocked months: months => enabled?"
      },
      "_totalSumStakedByLock": {
        "details": "total sum of staked tokens with lock for months."
      },
      "accumulatedRewardsToken2": {
        "details": "account => cumulative token rewards 2."
      },
      "lastUpdateBlockNumber": {
        "details": "Block number of the last time the reward was received."
      },
      "rewardPerBlock": {
        "details": "Amount of reward tokens that will be distributed for each token staked."
      },
      "rewardPerToken1Stored": {
        "details": "Accumulated rewards per token staked up to the current block.number."
      },
      "rewardTokenClaimed": {
        "details": "Total amount of token claimed."
      },
      "rewardTokenDistributed": {
        "details": "Total sum of the token distributed as a reward."
      },
      "rewardTokenSum": {
        "details": "Total token sum to be distributed as rewards."
      },
      "sumAccumulatedRewardsToken2": {
        "details": "Total sum of accumulated rewards."
      },
      "tokenRewardDivider": {
        "details": "Each token staked must be divided by this `tokenRewardDivider` value and multiplied by each elapsed block to calculate the rewards in TML*"
      },
      "totalStakers": {
        "details": "Total stakers."
      },
      "totalSumStaked": {
        "details": "Total sum of staked tokens."
      },
      "totalSumStakedVirtual": {
        "details": "Total amount of tokens staked virtual. This is used to be able to calculate rewards with a multiplier when a user locks their stake for N amount of months*"
      },
      "userRewardPaidPerToken1": {
        "details": "This represents the accumulated reward per token staked up to the moment of the last (see: lastUpdateBlockNumber) update for a specific account. account => rewardCache*"
      }
    },
    "version": 1
  },
  "userdoc": {
    "kind": "user",
    "methods": {
      "finishingBlockNumber()": {
        "notice": "`finishingBlockNumber` will store the block number to determine until which block the rewards will continue to be generated. It is calculated based on the number of tokens to be distributed as rewards that are deposited into the contract.*"
      }
    },
    "version": 1
  },
  "storageLayout": {
    "storage": [
      {
        "astId": 182,
        "contract": "contracts/MLStaking.sol:MLStaking",
        "label": "_balances",
        "offset": 0,
        "slot": "0",
        "type": "t_mapping(t_address,t_uint256)"
      },
      {
        "astId": 188,
        "contract": "contracts/MLStaking.sol:MLStaking",
        "label": "_allowances",
        "offset": 0,
        "slot": "1",
        "type": "t_mapping(t_address,t_mapping(t_address,t_uint256))"
      },
      {
        "astId": 190,
        "contract": "contracts/MLStaking.sol:MLStaking",
        "label": "_totalSupply",
        "offset": 0,
        "slot": "2",
        "type": "t_uint256"
      },
      {
        "astId": 192,
        "contract": "contracts/MLStaking.sol:MLStaking",
        "label": "_name",
        "offset": 0,
        "slot": "3",
        "type": "t_string_storage"
      },
      {
        "astId": 194,
        "contract": "contracts/MLStaking.sol:MLStaking",
        "label": "_symbol",
        "offset": 0,
        "slot": "4",
        "type": "t_string_storage"
      },
      {
        "astId": 7,
        "contract": "contracts/MLStaking.sol:MLStaking",
        "label": "_owner",
        "offset": 0,
        "slot": "5",
        "type": "t_address"
      },
      {
        "astId": 123,
        "contract": "contracts/MLStaking.sol:MLStaking",
        "label": "_status",
        "offset": 0,
        "slot": "6",
        "type": "t_uint256"
      },
      {
        "astId": 1889,
        "contract": "contracts/MLStaking.sol:MLStaking",
        "label": "_enabledMonths",
        "offset": 0,
        "slot": "7",
        "type": "t_array(t_uint256)dyn_storage"
      },
      {
        "astId": 1899,
        "contract": "contracts/MLStaking.sol:MLStaking",
        "label": "finishingBlockNumber",
        "offset": 0,
        "slot": "8",
        "type": "t_uint256"
      },
      {
        "astId": 1902,
        "contract": "contracts/MLStaking.sol:MLStaking",
        "label": "lastUpdateBlockNumber",
        "offset": 0,
        "slot": "9",
        "type": "t_uint256"
      },
      {
        "astId": 1905,
        "contract": "contracts/MLStaking.sol:MLStaking",
        "label": "totalStakers",
        "offset": 0,
        "slot": "10",
        "type": "t_uint256"
      },
      {
        "astId": 1908,
        "contract": "contracts/MLStaking.sol:MLStaking",
        "label": "rewardPerToken1Stored",
        "offset": 0,
        "slot": "11",
        "type": "t_uint256"
      },
      {
        "astId": 1911,
        "contract": "contracts/MLStaking.sol:MLStaking",
        "label": "rewardTokenDistributed",
        "offset": 0,
        "slot": "12",
        "type": "t_uint256"
      },
      {
        "astId": 1914,
        "contract": "contracts/MLStaking.sol:MLStaking",
        "label": "rewardTokenClaimed",
        "offset": 0,
        "slot": "13",
        "type": "t_uint256"
      },
      {
        "astId": 1917,
        "contract": "contracts/MLStaking.sol:MLStaking",
        "label": "rewardTokenSum",
        "offset": 0,
        "slot": "14",
        "type": "t_uint256"
      },
      {
        "astId": 1920,
        "contract": "contracts/MLStaking.sol:MLStaking",
        "label": "totalSumStaked",
        "offset": 0,
        "slot": "15",
        "type": "t_uint256"
      },
      {
        "astId": 1923,
        "contract": "contracts/MLStaking.sol:MLStaking",
        "label": "sumAccumulatedRewardsToken2",
        "offset": 0,
        "slot": "16",
        "type": "t_uint256"
      },
      {
        "astId": 1926,
        "contract": "contracts/MLStaking.sol:MLStaking",
        "label": "totalSumStakedVirtual",
        "offset": 0,
        "slot": "17",
        "type": "t_uint256"
      },
      {
        "astId": 1929,
        "contract": "contracts/MLStaking.sol:MLStaking",
        "label": "rewardPerBlock",
        "offset": 0,
        "slot": "18",
        "type": "t_uint256"
      },
      {
        "astId": 1932,
        "contract": "contracts/MLStaking.sol:MLStaking",
        "label": "tokenRewardDivider",
        "offset": 0,
        "slot": "19",
        "type": "t_uint256"
      },
      {
        "astId": 1937,
        "contract": "contracts/MLStaking.sol:MLStaking",
        "label": "userRewardPaidPerToken1",
        "offset": 0,
        "slot": "20",
        "type": "t_mapping(t_address,t_uint256)"
      },
      {
        "astId": 1941,
        "contract": "contracts/MLStaking.sol:MLStaking",
        "label": "_alreadyRegisteredStaker",
        "offset": 0,
        "slot": "21",
        "type": "t_mapping(t_address,t_bool)"
      },
      {
        "astId": 1946,
        "contract": "contracts/MLStaking.sol:MLStaking",
        "label": "_balancesStaked",
        "offset": 0,
        "slot": "22",
        "type": "t_mapping(t_address,t_uint256)"
      },
      {
        "astId": 1951,
        "contract": "contracts/MLStaking.sol:MLStaking",
        "label": "_totalSumStakedByLock",
        "offset": 0,
        "slot": "23",
        "type": "t_mapping(t_uint256,t_uint256)"
      },
      {
        "astId": 1956,
        "contract": "contracts/MLStaking.sol:MLStaking",
        "label": "_monthsOfBlockingEnabled",
        "offset": 0,
        "slot": "24",
        "type": "t_mapping(t_uint256,t_bool)"
      },
      {
        "astId": 1964,
        "contract": "contracts/MLStaking.sol:MLStaking",
        "label": "_accountsWithStakeLocked",
        "offset": 0,
        "slot": "25",
        "type": "t_mapping(t_address,t_mapping(t_uint256,t_struct(StakeData)1878_storage))"
      },
      {
        "astId": 1969,
        "contract": "contracts/MLStaking.sol:MLStaking",
        "label": "accumulatedRewardsToken2",
        "offset": 0,
        "slot": "26",
        "type": "t_mapping(t_address,t_uint256)"
      }
    ],
    "types": {
      "t_address": {
        "encoding": "inplace",
        "label": "address",
        "numberOfBytes": "20"
      },
      "t_array(t_uint256)dyn_storage": {
        "base": "t_uint256",
        "encoding": "dynamic_array",
        "label": "uint256[]",
        "numberOfBytes": "32"
      },
      "t_bool": {
        "encoding": "inplace",
        "label": "bool",
        "numberOfBytes": "1"
      },
      "t_mapping(t_address,t_bool)": {
        "encoding": "mapping",
        "key": "t_address",
        "label": "mapping(address => bool)",
        "numberOfBytes": "32",
        "value": "t_bool"
      },
      "t_mapping(t_address,t_mapping(t_address,t_uint256))": {
        "encoding": "mapping",
        "key": "t_address",
        "label": "mapping(address => mapping(address => uint256))",
        "numberOfBytes": "32",
        "value": "t_mapping(t_address,t_uint256)"
      },
      "t_mapping(t_address,t_mapping(t_uint256,t_struct(StakeData)1878_storage))": {
        "encoding": "mapping",
        "key": "t_address",
        "label": "mapping(address => mapping(uint256 => struct MLStaking.StakeData))",
        "numberOfBytes": "32",
        "value": "t_mapping(t_uint256,t_struct(StakeData)1878_storage)"
      },
      "t_mapping(t_address,t_uint256)": {
        "encoding": "mapping",
        "key": "t_address",
        "label": "mapping(address => uint256)",
        "numberOfBytes": "32",
        "value": "t_uint256"
      },
      "t_mapping(t_uint256,t_bool)": {
        "encoding": "mapping",
        "key": "t_uint256",
        "label": "mapping(uint256 => bool)",
        "numberOfBytes": "32",
        "value": "t_bool"
      },
      "t_mapping(t_uint256,t_struct(StakeData)1878_storage)": {
        "encoding": "mapping",
        "key": "t_uint256",
        "label": "mapping(uint256 => struct MLStaking.StakeData)",
        "numberOfBytes": "32",
        "value": "t_struct(StakeData)1878_storage"
      },
      "t_mapping(t_uint256,t_uint256)": {
        "encoding": "mapping",
        "key": "t_uint256",
        "label": "mapping(uint256 => uint256)",
        "numberOfBytes": "32",
        "value": "t_uint256"
      },
      "t_string_storage": {
        "encoding": "bytes",
        "label": "string",
        "numberOfBytes": "32"
      },
      "t_struct(StakeData)1878_storage": {
        "encoding": "inplace",
        "label": "struct MLStaking.StakeData",
        "members": [
          {
            "astId": 1862,
            "contract": "contracts/MLStaking.sol:MLStaking",
            "label": "amount",
            "offset": 0,
            "slot": "0",
            "type": "t_uint256"
          },
          {
            "astId": 1864,
            "contract": "contracts/MLStaking.sol:MLStaking",
            "label": "amountVirtual",
            "offset": 0,
            "slot": "1",
            "type": "t_uint256"
          },
          {
            "astId": 1867,
            "contract": "contracts/MLStaking.sol:MLStaking",
            "label": "amounts",
            "offset": 0,
            "slot": "2",
            "type": "t_array(t_uint256)dyn_storage"
          },
          {
            "astId": 1870,
            "contract": "contracts/MLStaking.sol:MLStaking",
            "label": "unlockDates",
            "offset": 0,
            "slot": "3",
            "type": "t_array(t_uint256)dyn_storage"
          },
          {
            "astId": 1873,
            "contract": "contracts/MLStaking.sol:MLStaking",
            "label": "amountsVirtual",
            "offset": 0,
            "slot": "4",
            "type": "t_array(t_uint256)dyn_storage"
          },
          {
            "astId": 1875,
            "contract": "contracts/MLStaking.sol:MLStaking",
            "label": "rewardToken1",
            "offset": 0,
            "slot": "5",
            "type": "t_uint256"
          },
          {
            "astId": 1877,
            "contract": "contracts/MLStaking.sol:MLStaking",
            "label": "rewardToken2",
            "offset": 0,
            "slot": "6",
            "type": "t_uint256"
          }
        ],
        "numberOfBytes": "224"
      },
      "t_uint256": {
        "encoding": "inplace",
        "label": "uint256",
        "numberOfBytes": "32"
      }
    }
  }
}