{
  "address": "0x311064b94728213f40a20f1B42217FDC4B68f818",
  "abi": [
    {
      "inputs": [
        {
          "internalType": "string",
          "name": "name_",
          "type": "string"
        },
        {
          "internalType": "string",
          "name": "symbol_",
          "type": "string"
        }
      ],
      "stateMutability": "nonpayable",
      "type": "constructor"
    },
    {
      "anonymous": false,
      "inputs": [
        {
          "indexed": true,
          "internalType": "address",
          "name": "owner",
          "type": "address"
        },
        {
          "indexed": true,
          "internalType": "address",
          "name": "spender",
          "type": "address"
        },
        {
          "indexed": false,
          "internalType": "uint256",
          "name": "value",
          "type": "uint256"
        }
      ],
      "name": "Approval",
      "type": "event"
    },
    {
      "anonymous": false,
      "inputs": [
        {
          "indexed": true,
          "internalType": "address",
          "name": "previousOwner",
          "type": "address"
        },
        {
          "indexed": true,
          "internalType": "address",
          "name": "newOwner",
          "type": "address"
        }
      ],
      "name": "OwnershipTransferred",
      "type": "event"
    },
    {
      "anonymous": false,
      "inputs": [
        {
          "indexed": true,
          "internalType": "address",
          "name": "account_",
          "type": "address"
        },
        {
          "indexed": false,
          "internalType": "uint256",
          "name": "reward_",
          "type": "uint256"
        }
      ],
      "name": "RewardPaid",
      "type": "event"
    },
    {
      "anonymous": false,
      "inputs": [
        {
          "indexed": true,
          "internalType": "address",
          "name": "account_",
          "type": "address"
        },
        {
          "indexed": false,
          "internalType": "uint256",
          "name": "amount_",
          "type": "uint256"
        },
        {
          "indexed": false,
          "internalType": "uint256",
          "name": "lockMonths_",
          "type": "uint256"
        }
      ],
      "name": "Staked",
      "type": "event"
    },
    {
      "anonymous": false,
      "inputs": [
        {
          "indexed": true,
          "internalType": "address",
          "name": "from",
          "type": "address"
        },
        {
          "indexed": true,
          "internalType": "address",
          "name": "to",
          "type": "address"
        },
        {
          "indexed": false,
          "internalType": "uint256",
          "name": "value",
          "type": "uint256"
        }
      ],
      "name": "Transfer",
      "type": "event"
    },
    {
      "anonymous": false,
      "inputs": [
        {
          "indexed": true,
          "internalType": "address",
          "name": "account_",
          "type": "address"
        },
        {
          "indexed": false,
          "internalType": "uint256",
          "name": "amount_",
          "type": "uint256"
        }
      ],
      "name": "Unstaked",
      "type": "event"
    },
    {
      "inputs": [
        {
          "internalType": "address",
          "name": "",
          "type": "address"
        }
      ],
      "name": "accumulatedRewardsToken2",
      "outputs": [
        {
          "internalType": "uint256",
          "name": "",
          "type": "uint256"
        }
      ],
      "stateMutability": "view",
      "type": "function"
    },
    {
      "inputs": [
        {
          "internalType": "address",
          "name": "owner",
          "type": "address"
        },
        {
          "internalType": "address",
          "name": "spender",
          "type": "address"
        }
      ],
      "name": "allowance",
      "outputs": [
        {
          "internalType": "uint256",
          "name": "",
          "type": "uint256"
        }
      ],
      "stateMutability": "view",
      "type": "function"
    },
    {
      "inputs": [
        {
          "internalType": "address",
          "name": "spender",
          "type": "address"
        },
        {
          "internalType": "uint256",
          "name": "amount",
          "type": "uint256"
        }
      ],
      "name": "approve",
      "outputs": [
        {
          "internalType": "bool",
          "name": "",
          "type": "bool"
        }
      ],
      "stateMutability": "nonpayable",
      "type": "function"
    },
    {
      "inputs": [
        {
          "internalType": "address",
          "name": "account",
          "type": "address"
        }
      ],
      "name": "balanceOf",
      "outputs": [
        {
          "internalType": "uint256",
          "name": "",
          "type": "uint256"
        }
      ],
      "stateMutability": "view",
      "type": "function"
    },
    {
      "inputs": [
        {
          "internalType": "address",
          "name": "account_",
          "type": "address"
        },
        {
          "internalType": "uint256",
          "name": "lockMonths_",
          "type": "uint256"
        }
      ],
      "name": "balanceStakedLockOf",
      "outputs": [
        {
          "internalType": "uint256",
          "name": "",
          "type": "uint256"
        }
      ],
      "stateMutability": "view",
      "type": "function"
    },
    {
      "inputs": [
        {
          "internalType": "address",
          "name": "account",
          "type": "address"
        }
      ],
      "name": "balanceStakedOf",
      "outputs": [
        {
          "internalType": "uint256",
          "name": "",
          "type": "uint256"
        }
      ],
      "stateMutability": "view",
      "type": "function"
    },
    {
      "inputs": [],
      "name": "decimals",
      "outputs": [
        {
          "internalType": "uint8",
          "name": "",
          "type": "uint8"
        }
      ],
      "stateMutability": "view",
      "type": "function"
    },
    {
      "inputs": [
        {
          "internalType": "address",
          "name": "spender",
          "type": "address"
        },
        {
          "internalType": "uint256",
          "name": "subtractedValue",
          "type": "uint256"
        }
      ],
      "name": "decreaseAllowance",
      "outputs": [
        {
          "internalType": "bool",
          "name": "",
          "type": "bool"
        }
      ],
      "stateMutability": "nonpayable",
      "type": "function"
    },
    {
      "inputs": [
        {
          "internalType": "address",
          "name": "account_",
          "type": "address"
        }
      ],
      "name": "deliverRewards",
      "outputs": [],
      "stateMutability": "nonpayable",
      "type": "function"
    },
    {
      "inputs": [
        {
          "internalType": "address",
          "name": "account_",
          "type": "address"
        },
        {
          "internalType": "uint256",
          "name": "lockMonths_",
          "type": "uint256"
        }
      ],
      "name": "earnedLockToken1",
      "outputs": [
        {
          "internalType": "uint256",
          "name": "",
          "type": "uint256"
        }
      ],
      "stateMutability": "view",
      "type": "function"
    },
    {
      "inputs": [
        {
          "internalType": "address",
          "name": "account_",
          "type": "address"
        },
        {
          "internalType": "uint256",
          "name": "lockMonths_",
          "type": "uint256"
        }
      ],
      "name": "earnedLockToken2",
      "outputs": [
        {
          "internalType": "uint256",
          "name": "",
          "type": "uint256"
        }
      ],
      "stateMutability": "view",
      "type": "function"
    },
    {
      "inputs": [
        {
          "internalType": "address",
          "name": "account_",
          "type": "address"
        }
      ],
      "name": "earnedToken1",
      "outputs": [
        {
          "internalType": "uint256",
          "name": "",
          "type": "uint256"
        }
      ],
      "stateMutability": "view",
      "type": "function"
    },
    {
      "inputs": [
        {
          "internalType": "address",
          "name": "account_",
          "type": "address"
        },
        {
          "internalType": "uint256[]",
          "name": "lockMonths_",
          "type": "uint256[]"
        }
      ],
      "name": "earnedToken1Partial",
      "outputs": [
        {
          "internalType": "uint256",
          "name": "",
          "type": "uint256"
        }
      ],
      "stateMutability": "view",
      "type": "function"
    },
    {
      "inputs": [
        {
          "internalType": "address",
          "name": "account_",
          "type": "address"
        }
      ],
      "name": "earnedToken2",
      "outputs": [
        {
          "internalType": "uint256",
          "name": "",
          "type": "uint256"
        }
      ],
      "stateMutability": "view",
      "type": "function"
    },
    {
      "inputs": [],
      "name": "exit",
      "outputs": [],
      "stateMutability": "nonpayable",
      "type": "function"
    },
    {
      "inputs": [],
      "name": "finishingBlockNumber",
      "outputs": [
        {
          "internalType": "uint256",
          "name": "",
          "type": "uint256"
        }
      ],
      "stateMutability": "view",
      "type": "function"
    },
    {
      "inputs": [
        {
          "internalType": "bool",
          "name": "compose_",
          "type": "bool"
        }
      ],
      "name": "getReward",
      "outputs": [],
      "stateMutability": "nonpayable",
      "type": "function"
    },
    {
      "inputs": [],
      "name": "getRewardPerToken2Multiplier",
      "outputs": [
        {
          "internalType": "uint256",
          "name": "",
          "type": "uint256"
        }
      ],
      "stateMutability": "view",
      "type": "function"
    },
    {
      "inputs": [
        {
          "internalType": "address",
          "name": "spender",
          "type": "address"
        },
        {
          "internalType": "uint256",
          "name": "addedValue",
          "type": "uint256"
        }
      ],
      "name": "increaseAllowance",
      "outputs": [
        {
          "internalType": "bool",
          "name": "",
          "type": "bool"
        }
      ],
      "stateMutability": "nonpayable",
      "type": "function"
    },
    {
      "inputs": [],
      "name": "lastTimeRewardApplicable",
      "outputs": [
        {
          "internalType": "uint256",
          "name": "",
          "type": "uint256"
        }
      ],
      "stateMutability": "view",
      "type": "function"
    },
    {
      "inputs": [],
      "name": "lastUpdateBlockNumber",
      "outputs": [
        {
          "internalType": "uint256",
          "name": "",
          "type": "uint256"
        }
      ],
      "stateMutability": "view",
      "type": "function"
    },
    {
      "inputs": [],
      "name": "name",
      "outputs": [
        {
          "internalType": "string",
          "name": "",
          "type": "string"
        }
      ],
      "stateMutability": "view",
      "type": "function"
    },
    {
      "inputs": [],
      "name": "owner",
      "outputs": [
        {
          "internalType": "address",
          "name": "",
          "type": "address"
        }
      ],
      "stateMutability": "view",
      "type": "function"
    },
    {
      "inputs": [],
      "name": "renounceOwnership",
      "outputs": [],
      "stateMutability": "nonpayable",
      "type": "function"
    },
    {
      "inputs": [],
      "name": "rewardPerBlock",
      "outputs": [
        {
          "internalType": "uint256",
          "name": "",
          "type": "uint256"
        }
      ],
      "stateMutability": "view",
      "type": "function"
    },
    {
      "inputs": [],
      "name": "rewardPerToken1",
      "outputs": [
        {
          "internalType": "uint256",
          "name": "",
          "type": "uint256"
        }
      ],
      "stateMutability": "view",
      "type": "function"
    },
    {
      "inputs": [],
      "name": "rewardPerToken1Stored",
      "outputs": [
        {
          "internalType": "uint256",
          "name": "",
          "type": "uint256"
        }
      ],
      "stateMutability": "view",
      "type": "function"
    },
    {
      "inputs": [],
      "name": "rewardTokenClaimed",
      "outputs": [
        {
          "internalType": "uint256",
          "name": "",
          "type": "uint256"
        }
      ],
      "stateMutability": "view",
      "type": "function"
    },
    {
      "inputs": [],
      "name": "rewardTokenDistributed",
      "outputs": [
        {
          "internalType": "uint256",
          "name": "",
          "type": "uint256"
        }
      ],
      "stateMutability": "view",
      "type": "function"
    },
    {
      "inputs": [],
      "name": "rewardTokenSum",
      "outputs": [
        {
          "internalType": "uint256",
          "name": "",
          "type": "uint256"
        }
      ],
      "stateMutability": "view",
      "type": "function"
    },
    {
      "inputs": [
        {
          "internalType": "uint256",
          "name": "amount_",
          "type": "uint256"
        },
        {
          "internalType": "uint256",
          "name": "lockMonths_",
          "type": "uint256"
        }
      ],
      "name": "stake",
      "outputs": [],
      "stateMutability": "nonpayable",
      "type": "function"
    },
    {
      "inputs": [
        {
          "internalType": "address",
          "name": "account",
          "type": "address"
        },
        {
          "internalType": "uint256",
          "name": "lockMonths_",
          "type": "uint256"
        }
      ],
      "name": "stakeDataOfByLock",
      "outputs": [
        {
          "components": [
            {
              "internalType": "uint256",
              "name": "amount",
              "type": "uint256"
            },
            {
              "internalType": "uint256",
              "name": "amountVirtual",
              "type": "uint256"
            },
            {
              "internalType": "uint256",
              "name": "unlockDate",
              "type": "uint256"
            },
            {
              "internalType": "uint256",
              "name": "rewardToken1",
              "type": "uint256"
            },
            {
              "internalType": "uint256",
              "name": "rewardToken2",
              "type": "uint256"
            }
          ],
          "internalType": "struct MLStaking.StakeData",
          "name": "",
          "type": "tuple"
        }
      ],
      "stateMutability": "view",
      "type": "function"
    },
    {
      "inputs": [],
      "name": "sumAccumulatedRewardsToken2",
      "outputs": [
        {
          "internalType": "uint256",
          "name": "",
          "type": "uint256"
        }
      ],
      "stateMutability": "view",
      "type": "function"
    },
    {
      "inputs": [],
      "name": "symbol",
      "outputs": [
        {
          "internalType": "string",
          "name": "",
          "type": "string"
        }
      ],
      "stateMutability": "view",
      "type": "function"
    },
    {
      "inputs": [
        {
          "internalType": "uint256",
          "name": "lockMonths_",
          "type": "uint256"
        }
      ],
      "name": "totalStakedLockSum",
      "outputs": [
        {
          "internalType": "uint256",
          "name": "",
          "type": "uint256"
        }
      ],
      "stateMutability": "view",
      "type": "function"
    },
    {
      "inputs": [],
      "name": "totalStakers",
      "outputs": [
        {
          "internalType": "uint256",
          "name": "",
          "type": "uint256"
        }
      ],
      "stateMutability": "view",
      "type": "function"
    },
    {
      "inputs": [],
      "name": "totalSumStaked",
      "outputs": [
        {
          "internalType": "uint256",
          "name": "",
          "type": "uint256"
        }
      ],
      "stateMutability": "view",
      "type": "function"
    },
    {
      "inputs": [],
      "name": "totalSupply",
      "outputs": [
        {
          "internalType": "uint256",
          "name": "",
          "type": "uint256"
        }
      ],
      "stateMutability": "view",
      "type": "function"
    },
    {
      "inputs": [
        {
          "internalType": "address",
          "name": "to",
          "type": "address"
        },
        {
          "internalType": "uint256",
          "name": "amount",
          "type": "uint256"
        }
      ],
      "name": "transfer",
      "outputs": [
        {
          "internalType": "bool",
          "name": "",
          "type": "bool"
        }
      ],
      "stateMutability": "nonpayable",
      "type": "function"
    },
    {
      "inputs": [
        {
          "internalType": "address",
          "name": "from",
          "type": "address"
        },
        {
          "internalType": "address",
          "name": "to",
          "type": "address"
        },
        {
          "internalType": "uint256",
          "name": "amount",
          "type": "uint256"
        }
      ],
      "name": "transferFrom",
      "outputs": [
        {
          "internalType": "bool",
          "name": "",
          "type": "bool"
        }
      ],
      "stateMutability": "nonpayable",
      "type": "function"
    },
    {
      "inputs": [
        {
          "internalType": "address",
          "name": "newOwner",
          "type": "address"
        }
      ],
      "name": "transferOwnership",
      "outputs": [],
      "stateMutability": "nonpayable",
      "type": "function"
    },
    {
      "inputs": [],
      "name": "unstaked",
      "outputs": [],
      "stateMutability": "nonpayable",
      "type": "function"
    },
    {
      "inputs": [
        {
          "internalType": "uint256",
          "name": "amount_",
          "type": "uint256"
        },
        {
          "internalType": "uint256",
          "name": "lockMonths_",
          "type": "uint256"
        }
      ],
      "name": "unstakedLock",
      "outputs": [],
      "stateMutability": "nonpayable",
      "type": "function"
    },
    {
      "inputs": [
        {
          "internalType": "uint256",
          "name": "rewardPerBlock_",
          "type": "uint256"
        }
      ],
      "name": "updateRewardPerBlock",
      "outputs": [],
      "stateMutability": "nonpayable",
      "type": "function"
    },
    {
      "inputs": [
        {
          "internalType": "uint256",
          "name": "amountReward_",
          "type": "uint256"
        }
      ],
      "name": "updateRewardToDistribute",
      "outputs": [],
      "stateMutability": "nonpayable",
      "type": "function"
    },
    {
      "inputs": [
        {
          "internalType": "address",
          "name": "",
          "type": "address"
        }
      ],
      "name": "userRewardPaidPerToken1",
      "outputs": [
        {
          "internalType": "uint256",
          "name": "",
          "type": "uint256"
        }
      ],
      "stateMutability": "view",
      "type": "function"
    },
    {
      "inputs": [],
      "name": "withdrawUnclaimedRewards",
      "outputs": [],
      "stateMutability": "nonpayable",
      "type": "function"
    }
  ],
  "transactionHash": "0x3345bacf74b61d3b7503f58718205cddd27c00d8f47971df32597280915e3bde",
  "args": [
    "Testnet TML",
    "TML"
  ],
  "numDeployments": 1,
  "solcInputHash": "5100e5df6b48d79c90af29b8f4ce7c55",
  "bytecode": "0x61016060405260006080908152600160a052600260c052600360e0526004610100526005610120526006610140526200003c9060079081620001a5565b503480156200004a57600080fd5b5060405162003071380380620030718339810160408190526200006d9162000341565b81518290829062000086906003906020850190620001fa565b5080516200009c906004906020840190620001fa565b505050620000b9620000b36200014f60201b60201c565b62000153565b600160065567a98b689fdda0e40060125560005b6007548110156200014657600160176000600784815481106200010057634e487b7160e01b600052603260045260246000fd5b9060005260206000200154815260200190815260200160002060006101000a81548160ff02191690831515021790555080806200013d90620003e5565b915050620000cd565b50505062000423565b3390565b600580546001600160a01b038381166001600160a01b0319831681179093556040519116919082907f8be0079c531659141344cd1fd0a4f28419497f9722a3daafe3b4186f6b6457e090600090a35050565b828054828255906000526020600020908101928215620001e8579160200282015b82811115620001e8578251829060ff16905591602001919060010190620001c6565b50620001f692915062000277565b5090565b8280546200020890620003a8565b90600052602060002090601f0160209004810192826200022c5760008555620001e8565b82601f106200024757805160ff1916838001178555620001e8565b82800160010185558215620001e8579182015b82811115620001e85782518255916020019190600101906200025a565b5b80821115620001f6576000815560010162000278565b600082601f8301126200029f578081fd5b81516001600160401b0380821115620002bc57620002bc6200040d565b604051601f8301601f19908116603f01168101908282118183101715620002e757620002e76200040d565b8160405283815260209250868385880101111562000303578485fd5b8491505b8382101562000326578582018301518183018401529082019062000307565b838211156200033757848385830101525b9695505050505050565b6000806040838503121562000354578182fd5b82516001600160401b03808211156200036b578384fd5b62000379868387016200028e565b935060208501519150808211156200038f578283fd5b506200039e858286016200028e565b9150509250929050565b600281046001821680620003bd57607f821691505b60208210811415620003df57634e487b7160e01b600052602260045260246000fd5b50919050565b60006000198214156200040657634e487b7160e01b81526011600452602481fd5b5060010190565b634e487b7160e01b600052604160045260246000fd5b612c3e80620004336000396000f3fe608060405234801561001057600080fd5b50600436106103155760003560e01c80637b0472f0116101a7578063ae7e3b6c116100ee578063d7282ff011610097578063f2fde38b11610071578063f2fde38b146105c5578063f32e0236146105d8578063fb3db869146105eb57610315565b8063d7282ff014610597578063dd62ed3e146105aa578063e9fad8ee146105bd57610315565b8063bb561524116100c8578063bb56152414610574578063bf9c89bb1461057c578063c43bafaf1461058f57610315565b8063ae7e3b6c14610551578063b4c6e41614610564578063b67cf2901461056c57610315565b806395d89b4111610150578063a4698feb1161012a578063a4698feb14610523578063a9059cbb14610536578063acbc2e8a1461054957610315565b806395d89b41146104f55780639ca9b643146104fd578063a457c2d71461051057610315565b80638ae39cac116101815780638ae39cac146104d05780638da4c7c9146104d85780638da5cb5b146104e057610315565b80637b0472f0146104ad57806380faa57d146104c057806386989038146104c857610315565b806336d187ab1161026b5780635fc1aa391161021457806370a08231116101ee57806370a082311461048a578063715018a61461049d57806379e95a1e146104a557610315565b80635fc1aa39146104675780636616a4ae1461046f5780636c9db0411461047757610315565b8063446154641161024557806344615464146104395780635031be681461044157806355db62001461045457610315565b806336d187ab14610400578063395093511461041357806341c351e81461042657610315565b8063095ea7b3116102cd57806323b872dd116102a757806323b872dd146103c55780632a74bfa4146103d8578063313ce567146103eb57610315565b8063095ea7b31461039557806318160ddd146103b55780631a77398f146103bd57610315565b806306069053116102fe578063060690531461034257806306fdde0314610360578063078ea0bb1461037557610315565b806301f7180b1461031a57806301f8a9761461032f575b600080fd5b61032d610328366004612393565b6105fe565b005b61032d61033d366004612363565b61061c565b61034a610670565b6040516103579190612a7d565b60405180910390f35b610368610676565b604051610357919061242c565b610388610383366004612302565b610709565b6040516103579190612a43565b6103a86103a3366004612302565b610775565b6040516103579190612421565b61034a610797565b61034a61079d565b6103a86103d33660046121d7565b610810565b61034a6103e636600461218b565b61083e565b6103f36108a9565b6040516103579190612a94565b61034a61040e366004612302565b6108ae565b6103a8610421366004612302565b6108d6565b61034a610434366004612302565b610902565b61034a610986565b61034a61044f36600461218b565b61098c565b61034a61046236600461218b565b61099e565b61034a6109b0565b61034a6109b6565b61032d610485366004612363565b6109bc565b61034a61049836600461218b565b610b0a565b61032d610b25565b61034a610b39565b61032d6104bb366004612393565b610b5c565b61034a610b66565b61034a610b7e565b61034a610b84565b61034a610b8a565b6104e8610b90565b60405161035791906123d0565b610368610b9f565b61032d61050b36600461218b565b610bae565b6103a861051e366004612302565b610c0c565b61032d61053136600461232b565b610c54565b6103a8610544366004612302565b610cb0565b61032d610cc8565b61034a61055f36600461218b565b610e2f565b61034a610e8a565b61034a610e90565b61032d610e96565b61034a61058a36600461218b565b610eee565b61034a610f09565b61034a6105a5366004612302565b610f0f565b61034a6105b83660046121a5565b611004565b61032d61102f565b61032d6105d336600461218b565b61111a565b61034a6105e6366004612363565b611151565b61034a6105f9366004612212565b611163565b6106066111c1565b61061082826111eb565b610618611529565b5050565b610624611530565b6000811161064d5760405162461bcd60e51b81526004016106449061265f565b60405180910390fd5b6012819055600e5461066a90610663908361156f565b4390611582565b60085550565b600d5481565b60606003805461068590612b5a565b80601f01602080910402602001604051908101604052809291908181526020018280546106b190612b5a565b80156106fe5780601f106106d3576101008083540402835291602001916106fe565b820191906000526020600020905b8154815290600101906020018083116106e157829003601f168201915b505050505090505b90565b610711612145565b506001600160a01b0382166000908152601860209081526040808320848452825291829020825160a0810184528154815260018201549281019290925260028101549282019290925260038201546060820152600490910154608082015292915050565b60008061078061158e565b905061078d818585611592565b5060019392505050565b60025490565b6000600f54600014156107b35750600b54610706565b61080b6108026107d0601154600f5461158290919063ffffffff16565b6107fc670de0b6b3a76400006107f66012546107f66009546107f0610b66565b90611646565b90611652565b9061156f565b600b5490611582565b905090565b60008061081b61158e565b905061082885828561165e565b6108338585856116c6565b506001949350505050565b600080805b6007548110156108a05761088c610885856007848154811061087557634e487b7160e01b600052603260045260246000fd5b9060005260206000200154610f0f565b8390611582565b91508061089881612b95565b915050610843565b5090505b919050565b601290565b6001600160a01b03919091166000908152601860209081526040808320938352929052205490565b6000806108e161158e565b905061078d8185856108f38589611004565b6108fd9190612aa2565b611592565b600081815260176020526040812054829060ff166109325760405162461bcd60e51b8152600401610644906126f3565b600061093c610b39565b6001600160a01b038616600090815260186020908152604080832088845290915290206001810154905491925061097d9161097691611582565b8290611652565b95945050505050565b600e5481565b60196020526000908152604090205481565b60136020526000908152604090205481565b600b5481565b600c5481565b6000806109c761079d565b600b5560006109d4610b39565b90506109de610b66565b6009556001600160a01b03831615610a7c576109fa8383610f0f565b6001600160a01b03841660009081526018602090815260408083208684529091529020600381019190915560018101549054610a4291610976916103e8916107fc9190611582565b6001600160a01b0384166000818152601860209081526040808320878452825280832060040194909455600b549282526013905291909120555b610a84611530565b60008411610aa45760405162461bcd60e51b815260040161064490612761565b610ac473281e2cc83bd4a9930903aaa0a8cd1b521c1eb5623330876117c7565b600e54610ad19085611582565b600e819055600c8054600090610ae8908490612aa2565b9091555050601254600e54610b0191610663919061156f565b60085550505050565b6001600160a01b031660009081526020819052604090205490565b610b2d611530565b610b37600061186a565b565b6000600f5460001415610b4e57506000610706565b61080b6009546107f0610b66565b61061882826118d4565b60006008544310610b795760085461080b565b504390565b600a5481565b60125481565b60085481565b6005546001600160a01b031690565b60606004805461068590612b5a565b610bb66111c1565b610bbe611530565b6001600160a01b0381166000908152601960205260409020548015610c00576001600160a01b038216600090815260196020526040812055610c008282611bbe565b50610c09611529565b50565b600080610c1761158e565b90506000610c258286611004565b905083811015610c475760405162461bcd60e51b8152600401610644906129af565b6108338286868403611592565b610c5c6111c1565b60005b600754811015610c0057610c9e60078281548110610c8d57634e487b7160e01b600052603260045260246000fd5b906000526020600020015483611c68565b80610ca881612b95565b915050610c5f565b600080610cbb61158e565b905061078d8185856116c6565b610cd06111c1565b60005b600754811015610e26573360009081526018602052604081206007805483919085908110610d1157634e487b7160e01b600052603260045260246000fd5b9060005260206000200154815260200190815260200160002060000154118015610d8a5750336000908152601860205260408120600780544293919085908110610d6b57634e487b7160e01b600052603260045260246000fd5b9060005260206000200154815260200190815260200160002060020154105b15610e145733600090815260186020526040812060078054610e1493919085908110610dc657634e487b7160e01b600052603260045260246000fd5b906000526020600020015481526020019081526020016000206000015460078381548110610e0457634e487b7160e01b600052603260045260246000fd5b90600052602060002001546111eb565b80610e1e81612b95565b915050610cd3565b50610b37611529565b600080805b6007548110156108a057610e766108858560078481548110610e6657634e487b7160e01b600052603260045260246000fd5b9060005260206000200154610902565b915080610e8281612b95565b915050610e34565b60095481565b60105481565b610e9e6111c1565b610ea6611530565b60085443118015610eb957506000600e54115b15610ee657600e80546000909155610e2673281e2cc83bd4a9930903aaa0a8cd1b521c1eb5623383611f72565b610b37611529565b6001600160a01b031660009081526015602052604090205490565b600f5481565b600081815260176020526040812054829060ff16610f3f5760405162461bcd60e51b8152600401610644906126f3565b6001600160a01b0384166000908152601860209081526040808320868452909152902060030154610ffc90610ff6670de0b6b3a76400006107fc606481610f858a611f96565b6001600160a01b038c166000908152601360205260409020546107f690610fae906107f061079d565b601860008f6001600160a01b03166001600160a01b0316815260200190815260200160002060008e81526020019081526020016000206000015461165290919063ffffffff16565b90611582565b949350505050565b6001600160a01b03918216600090815260016020908152604080832093909416825291909152205490565b6110376111c1565b60005b600754811015610e265761107a6007828154811061106857634e487b7160e01b600052603260045260246000fd5b90600052602060002001546000611c68565b33600090815260186020526040812060078054839190859081106110ae57634e487b7160e01b600052603260045260246000fd5b90600052602060002001548152602001908152602001600020600001541115611108573360009081526018602052604081206007805461110893919085908110610dc657634e487b7160e01b600052603260045260246000fd5b8061111281612b95565b91505061103a565b611122611530565b6001600160a01b0381166111485760405162461bcd60e51b815260040161064490612537565b610c098161186a565b60009081526016602052604090205490565b600080805b83518110156111b9576111a56108858686848151811061119857634e487b7160e01b600052603260045260246000fd5b6020026020010151610f0f565b9150806111b181612b95565b915050611168565b509392505050565b600260065414156111e45760405162461bcd60e51b815260040161064490612978565b6002600655565b600081815260176020526040902054819060ff1661121b5760405162461bcd60e51b8152600401610644906126f3565b338261122561079d565b600b556000611232610b39565b905061123c610b66565b6009556001600160a01b038316156112da576112588383610f0f565b6001600160a01b038416600090815260186020908152604080832086845290915290206003810191909155600181015490546112a091610976916103e8916107fc9190611582565b6001600160a01b0384166000818152601860209081526040808320878452825280832060040194909455600b549282526013905291909120555b600086116112fa5760405162461bcd60e51b81526004016106449061272a565b33600090815260186020908152604080832088845290915290206002015442116113365760405162461bcd60e51b8152600401610644906124da565b3360009081526018602090815260408083208884529091529020548611156113705760405162461bcd60e51b8152600401610644906127cd565b600061138e876107f060646107fc6113878b611f96565b8c90611652565b60115490915061139e9082611646565b601155600f546113ae9088611646565b600f556000868152601660205260409020546113ca9088611646565b6000878152601660209081526040808320939093553382526015905220546113f29088611646565b336000908152601560209081526040808320939093556018815282822089835290529081208054899290611427908490612b17565b909155505033600090815260186020908152604080832089845290915281206001018054839290611459908490612b17565b9091555050336000908152601560205260409020546114c0576001600a60008282546114859190612b17565b909155505033600090815260146020526040902080547fffffffffffffffffffffffffffffffffffffffffffffffffffffffffffffff001690555b6114df73281e2cc83bd4a9930903aaa0a8cd1b521c1eb5623389611f72565b336001600160a01b03167f0f5bb82176feb1b5e747e28471aa92156a04d9f3ab9f45f28e2d704232b93f75886040516115189190612a7d565b60405180910390a250505050505050565b6001600655565b61153861158e565b6001600160a01b0316611549610b90565b6001600160a01b031614610b375760405162461bcd60e51b815260040161064490612798565b600061157b8284612aba565b9392505050565b600061157b8284612aa2565b3390565b6001600160a01b0383166115b85760405162461bcd60e51b815260040161064490612887565b6001600160a01b0382166115de5760405162461bcd60e51b815260040161064490612594565b6001600160a01b0380841660008181526001602090815260408083209487168084529490915290819020849055517f8c5be1e5ebec7d5bd14f71427d1e84f3dd0314c0f7b2291e5b200ac8c7c3b92590611639908590612a7d565b60405180910390a3505050565b600061157b8284612b17565b600061157b8284612ada565b600061166a8484611004565b90507fffffffffffffffffffffffffffffffffffffffffffffffffffffffffffffffff81146116c057818110156116b35760405162461bcd60e51b815260040161064490612628565b6116c08484848403611592565b50505050565b6001600160a01b0383166116ec5760405162461bcd60e51b81526004016106449061282a565b6001600160a01b0382166117125760405162461bcd60e51b81526004016106449061247d565b61171d838383611f91565b6001600160a01b038316600090815260208190526040902054818110156117565760405162461bcd60e51b815260040161064490612696565b6001600160a01b0380851660008181526020819052604080822086860390559286168082529083902080548601905591517fddf252ad1be2c89b69c2b068fc378daa952ba7f163c4a11628f55a4df523b3ef906117b4908690612a7d565b60405180910390a36116c0848484611f91565b6116c0846323b872dd60e01b8585856040516024016117e8939291906123e4565b604080517fffffffffffffffffffffffffffffffffffffffffffffffffffffffffffffffe08184030181529190526020810180517bffffffffffffffffffffffffffffffffffffffffffffffffffffffff167fffffffff0000000000000000000000000000000000000000000000000000000090931692909217909152611fb4565b600580546001600160a01b038381167fffffffffffffffffffffffff0000000000000000000000000000000000000000831681179093556040519116919082907f8be0079c531659141344cd1fd0a4f28419497f9722a3daafe3b4186f6b6457e090600090a35050565b6118dc6111c1565b600081815260176020526040902054819060ff1661190c5760405162461bcd60e51b8152600401610644906126f3565b338261191661079d565b600b556000611923610b39565b905061192d610b66565b6009556001600160a01b038316156119cb576119498383610f0f565b6001600160a01b0384166000908152601860209081526040808320868452909152902060038101919091556001810154905461199191610976916103e8916107fc9190611582565b6001600160a01b0384166000818152601860209081526040808320878452825280832060040194909455600b549282526013905291909120555b600086116119eb5760405162461bcd60e51b8152600401610644906125f1565b6000611a02876107f060646107fc6113878b611f96565b601154909150611a129082611582565b601155600f54611a229088611582565b600f55600086815260166020526040902054611a3e9088611582565b600087815260166020908152604080832093909355338252601590522054611a669088611582565b33600081815260156020526040902091909155611a9a9073281e2cc83bd4a9930903aaa0a8cd1b521c1eb56290308a6117c7565b3360009081526018602090815260408083208984529091528120805490918991839190611ac8908490612aa2565b9250508190555081816001016000828254611ae39190612aa2565b90915550611b009050611af98862278d00612ada565b4290611582565b60028201553360009081526014602052604090205460ff16611b6d576001600a6000828254611b2f9190612aa2565b909155505033600090815260146020526040902080547fffffffffffffffffffffffffffffffffffffffffffffffffffffffffffffff001660011790555b336001600160a01b03167f1449c6dd7851abc30abf37f57715f492010519147cc2652fbc38202c18a6ee908989604051611ba8929190612a86565b60405180910390a2505050505050610618611529565b6001600160a01b038216611be45760405162461bcd60e51b815260040161064490612a0c565b611bf060008383611f91565b8060026000828254611c029190612aa2565b90915550506001600160a01b038216600081815260208190526040808220805485019055517fddf252ad1be2c89b69c2b068fc378daa952ba7f163c4a11628f55a4df523b3ef90611c54908590612a7d565b60405180910390a361061860008383611f91565b600082815260176020526040902054829060ff16611c985760405162461bcd60e51b8152600401610644906126f3565b3383611ca261079d565b600b556000611caf610b39565b9050611cb9610b66565b6009556001600160a01b03831615611d5757611cd58383610f0f565b6001600160a01b03841660009081526018602090815260408083208684529091529020600381019190915560018101549054611d1d91610976916103e8916107fc9190611582565b6001600160a01b0384166000818152601860209081526040808320878452825280832060040194909455600b549282526013905291909120555b336000908152601860209081526040808320898452909152902060038101546004820154600290920154909190421115611f68578015611ded573360009081526018602090815260408083208b8452909152812060040181905560108054839290611dc3908490612aa2565b90915550503360009081526019602052604081208054839290611de7908490612aa2565b90915550505b600082118015611ea45750600f546040517f70a082310000000000000000000000000000000000000000000000000000000081528391611ea19173281e2cc83bd4a9930903aaa0a8cd1b521c1eb562906370a0823190611e519030906004016123d0565b60206040518083038186803b158015611e6957600080fd5b505afa158015611e7d573d6000803e3d6000fd5b505050506040513d601f19601f820116820180604052508101906107f0919061237b565b10155b15611f68573360009081526018602090815260408083208b8452909152812060030155600e54611ed49083611646565b600e8190555081600d6000828254611eec9190612aa2565b90915550508615611f0757611f028260006118d4565b611f26565b611f2673281e2cc83bd4a9930903aaa0a8cd1b521c1eb5623384611f72565b336001600160a01b03167fe2403640ba68fed3a2f88b7557551d1993f84b99bb10ff833f0cf8db0c5e048683604051611f5f9190612a7d565b60405180910390a25b5050505050505050565b611f918363a9059cbb60e01b84846040516024016117e8929190612408565b505050565b6000611fa3826019612ada565b611fae906064612aa2565b92915050565b6000612009826040518060400160405280602081526020017f5361666545524332303a206c6f772d6c6576656c2063616c6c206661696c6564815250856001600160a01b03166120439092919063ffffffff16565b805190915015611f9157808060200190518101906120279190612347565b611f915760405162461bcd60e51b81526004016106449061291b565b6060610ffc848460008585600080866001600160a01b0316858760405161206a91906123b4565b60006040518083038185875af1925050503d80600081146120a7576040519150601f19603f3d011682016040523d82523d6000602084013e6120ac565b606091505b50915091506120bd878383876120c8565b979650505050505050565b606083156121025782516120fb576120df8561210c565b6120fb5760405162461bcd60e51b8152600401610644906128e4565b5081610ffc565b610ffc838361211b565b6001600160a01b03163b151590565b81511561212b5781518083602001fd5b8060405162461bcd60e51b8152600401610644919061242c565b6040518060a0016040528060008152602001600081526020016000815260200160008152602001600081525090565b80356001600160a01b03811681146108a457600080fd5b60006020828403121561219c578081fd5b61157b82612174565b600080604083850312156121b7578081fd5b6121c083612174565b91506121ce60208401612174565b90509250929050565b6000806000606084860312156121eb578081fd5b6121f484612174565b925061220260208501612174565b9150604084013590509250925092565b60008060408385031215612224578182fd5b61222d83612174565b915060208084013567ffffffffffffffff8082111561224a578384fd5b818601915086601f83011261225d578384fd5b81358181111561226f5761226f612be4565b8381026040517fffffffffffffffffffffffffffffffffffffffffffffffffffffffffffffffe0603f830116810181811085821117156122b1576122b1612be4565b604052828152858101935084860182860187018b10156122cf578788fd5b8795505b838610156122f15780358552600195909501949386019386016122d3565b508096505050505050509250929050565b60008060408385031215612314578182fd5b61231d83612174565b946020939093013593505050565b60006020828403121561233c578081fd5b813561157b81612bfa565b600060208284031215612358578081fd5b815161157b81612bfa565b600060208284031215612374578081fd5b5035919050565b60006020828403121561238c578081fd5b5051919050565b600080604083850312156123a5578182fd5b50508035926020909101359150565b600082516123c6818460208701612b2e565b9190910192915050565b6001600160a01b0391909116815260200190565b6001600160a01b039384168152919092166020820152604081019190915260600190565b6001600160a01b03929092168252602082015260400190565b901515815260200190565b600060208252825180602084015261244b816040850160208701612b2e565b601f017fffffffffffffffffffffffffffffffffffffffffffffffffffffffffffffffe0169190910160400192915050565b60208082526023908201527f45524332303a207472616e7366657220746f20746865207a65726f206164647260408201527f6573730000000000000000000000000000000000000000000000000000000000606082015260800190565b60208082526025908201527f54686520626c6f636b696e672074696d6520686173206e6f742079657420657860408201527f7069726564000000000000000000000000000000000000000000000000000000606082015260800190565b60208082526026908201527f4f776e61626c653a206e6577206f776e657220697320746865207a65726f206160408201527f6464726573730000000000000000000000000000000000000000000000000000606082015260800190565b60208082526022908201527f45524332303a20617070726f766520746f20746865207a65726f20616464726560408201527f7373000000000000000000000000000000000000000000000000000000000000606082015260800190565b6020808252600e908201527f43616e6e6f74207374616b652030000000000000000000000000000000000000604082015260600190565b6020808252601d908201527f45524332303a20696e73756666696369656e7420616c6c6f77616e6365000000604082015260600190565b6020808252601c908201527f5265776172642070657220626c6f636b2063616e6e6f74206265203000000000604082015260600190565b60208082526026908201527f45524332303a207472616e7366657220616d6f756e742065786365656473206260408201527f616c616e63650000000000000000000000000000000000000000000000000000606082015260800190565b60208082526013908201527f496e76616c6964206c6f636b206d6f6e74687300000000000000000000000000604082015260600190565b60208082526011908201527f43616e6e6f742077697468647261772030000000000000000000000000000000604082015260600190565b6020808252601f908201527f52657761726420746f6b656e20616d6f756e742063616e6e6f74206265203000604082015260600190565b6020808252818101527f4f776e61626c653a2063616c6c6572206973206e6f7420746865206f776e6572604082015260600190565b60208082526039908201527f74686520616d6f756e7420746f2062652077697468647261776e20697320677260408201527f6561746572207468616e207468617420617661696c61626c6500000000000000606082015260800190565b60208082526025908201527f45524332303a207472616e736665722066726f6d20746865207a65726f20616460408201527f6472657373000000000000000000000000000000000000000000000000000000606082015260800190565b60208082526024908201527f45524332303a20617070726f76652066726f6d20746865207a65726f2061646460408201527f7265737300000000000000000000000000000000000000000000000000000000606082015260800190565b6020808252601d908201527f416464726573733a2063616c6c20746f206e6f6e2d636f6e7472616374000000604082015260600190565b6020808252602a908201527f5361666545524332303a204552433230206f7065726174696f6e20646964206e60408201527f6f74207375636365656400000000000000000000000000000000000000000000606082015260800190565b6020808252601f908201527f5265656e7472616e637947756172643a207265656e7472616e742063616c6c00604082015260600190565b60208082526025908201527f45524332303a2064656372656173656420616c6c6f77616e63652062656c6f7760408201527f207a65726f000000000000000000000000000000000000000000000000000000606082015260800190565b6020808252601f908201527f45524332303a206d696e7420746f20746865207a65726f206164647265737300604082015260600190565b600060a082019050825182526020830151602083015260408301516040830152606083015160608301526080830151608083015292915050565b90815260200190565b918252602082015260400190565b60ff91909116815260200190565b60008219821115612ab557612ab5612bce565b500190565b600082612ad557634e487b7160e01b81526012600452602481fd5b500490565b6000817fffffffffffffffffffffffffffffffffffffffffffffffffffffffffffffffff0483118215151615612b1257612b12612bce565b500290565b600082821015612b2957612b29612bce565b500390565b60005b83811015612b49578181015183820152602001612b31565b838111156116c05750506000910152565b600281046001821680612b6e57607f821691505b60208210811415612b8f57634e487b7160e01b600052602260045260246000fd5b50919050565b60007fffffffffffffffffffffffffffffffffffffffffffffffffffffffffffffffff821415612bc757612bc7612bce565b5060010190565b634e487b7160e01b600052601160045260246000fd5b634e487b7160e01b600052604160045260246000fd5b8015158114610c0957600080fdfea2646970667358221220c00115cfa9236113b24aff0848d560f13159164e2d3e42300e8c3b898a07aa3964736f6c63430008010033",
  "devdoc": {
    "kind": "dev",
    "methods": {
      "allowance(address,address)": {
        "details": "See {IERC20-allowance}."
      },
      "approve(address,uint256)": {
        "details": "See {IERC20-approve}. NOTE: If `amount` is the maximum `uint256`, the allowance is not updated on `transferFrom`. This is semantically equivalent to an infinite approval. Requirements: - `spender` cannot be the zero address."
      },
      "balanceOf(address)": {
        "details": "See {IERC20-balanceOf}."
      },
      "constructor": {
        "params": {
          "name_": "Name of ERC20 reward token",
          "symbol_": "Symbol of ERC20 reward token*"
        }
      },
      "decimals()": {
        "details": "Returns the number of decimals used to get its user representation. For example, if `decimals` equals `2`, a balance of `505` tokens should be displayed to a user as `5.05` (`505 / 10 ** 2`). Tokens usually opt for a value of 18, imitating the relationship between Ether and Wei. This is the value {ERC20} uses, unless this function is overridden; NOTE: This information is only used for _display_ purposes: it in no way affects any of the arithmetic of the contract, including {IERC20-balanceOf} and {IERC20-transfer}."
      },
      "decreaseAllowance(address,uint256)": {
        "details": "Atomically decreases the allowance granted to `spender` by the caller. This is an alternative to {approve} that can be used as a mitigation for problems described in {IERC20-approve}. Emits an {Approval} event indicating the updated allowance. Requirements: - `spender` cannot be the zero address. - `spender` must have allowance for the caller of at least `subtractedValue`."
      },
      "exit()": {
        "details": "Withdraw all the staked tokens and claim earned rewards."
      },
      "getReward(bool)": {
        "details": "Claim the accumulated rewards."
      },
      "getRewardPerToken2Multiplier()": {
        "details": "Calculate the reward multiplier for the second token*"
      },
      "increaseAllowance(address,uint256)": {
        "details": "Atomically increases the allowance granted to `spender` by the caller. This is an alternative to {approve} that can be used as a mitigation for problems described in {IERC20-approve}. Emits an {Approval} event indicating the updated allowance. Requirements: - `spender` cannot be the zero address."
      },
      "name()": {
        "details": "Returns the name of the token."
      },
      "owner()": {
        "details": "Returns the address of the current owner."
      },
      "renounceOwnership()": {
        "details": "Leaves the contract without owner. It will not be possible to call `onlyOwner` functions anymore. Can only be called by the current owner. NOTE: Renouncing ownership will leave the contract without an owner, thereby removing any functionality that is only available to the owner."
      },
      "rewardPerToken1()": {
        "details": "Calculate the rewards accumulated per token staked up to the current time.*"
      },
      "stake(uint256,uint256)": {
        "details": "Staked tokens to receive rewards.",
        "params": {
          "amount_": "Amount of tokens to be staked.",
          "lockMonths_": "lockdown months.*"
        }
      },
      "symbol()": {
        "details": "Returns the symbol of the token, usually a shorter version of the name."
      },
      "totalSupply()": {
        "details": "See {IERC20-totalSupply}."
      },
      "transfer(address,uint256)": {
        "details": "See {IERC20-transfer}. Requirements: - `to` cannot be the zero address. - the caller must have a balance of at least `amount`."
      },
      "transferFrom(address,address,uint256)": {
        "details": "See {IERC20-transferFrom}. Emits an {Approval} event indicating the updated allowance. This is not required by the EIP. See the note at the beginning of {ERC20}. NOTE: Does not update the allowance if the current allowance is the maximum `uint256`. Requirements: - `from` and `to` cannot be the zero address. - `from` must have a balance of at least `amount`. - the caller must have allowance for ``from``'s tokens of at least `amount`."
      },
      "transferOwnership(address)": {
        "details": "Transfers ownership of the contract to a new account (`newOwner`). Can only be called by the current owner."
      },
      "unstaked()": {
        "details": "Withdraw staked tokens.*"
      },
      "unstakedLock(uint256,uint256)": {
        "details": "Withdraw staked tokens.",
        "params": {
          "amount_": "Amount of tokens to be withdrawn.",
          "lockMonths_": "lockdown months.*"
        }
      }
    },
    "stateVariables": {
      "STAKING_TOKEN": {
        "details": "Address of the token to partially pay rewards."
      },
      "_accountsWithStakeLocked": {
        "details": "account => months => StakeData"
      },
      "_balancesStaked": {
        "details": "The balance staked by an account. account => balance*"
      },
      "_monthsOfBlockingEnabled": {
        "details": "enabled blocked months: months => enabled?"
      },
      "_totalSumStakedByLock": {
        "details": "total sum of staked tokens with lock for months."
      },
      "_totalSumStakedVirtual": {
        "details": "Total amount of tokens staked virtual. This is used to be able to calculate rewards with a multiplier when a user locks their stake for N amount of months*"
      },
      "accumulatedRewardsToken2": {
        "details": "account => cumulative token rewards 2."
      },
      "lastUpdateBlockNumber": {
        "details": "Block number of the last time the reward was received."
      },
      "rewardPerBlock": {
        "details": "Amount of reward tokens that will be distributed for each token staked."
      },
      "rewardPerToken1Stored": {
        "details": "Accumulated rewards per token staked up to the current block.number."
      },
      "rewardTokenClaimed": {
        "details": "Total amount of token claimed."
      },
      "rewardTokenDistributed": {
        "details": "Total sum of the token distributed as a reward."
      },
      "rewardTokenSum": {
        "details": "Total token sum to be distributed as rewards."
      },
      "sumAccumulatedRewardsToken2": {
        "details": "Total sum of accumulated rewards."
      },
      "totalStakers": {
        "details": "Total stakers."
      },
      "totalSumStaked": {
        "details": "Total sum of staked tokens."
      },
      "userRewardPaidPerToken1": {
        "details": "This represents the accumulated reward per token staked up to the moment of the last (see: lastUpdateBlockNumber) update for a specific account. account => rewardCache*"
      }
    },
    "version": 1
  },
  "userdoc": {
    "kind": "user",
    "methods": {
      "finishingBlockNumber()": {
        "notice": "`finishingBlockNumber` will store the block number to determine until which block the rewards will continue to be generated. It is calculated based on the number of tokens to be distributed as rewards that are deposited into the contract.*"
      }
    },
    "version": 1
  },
  "storageLayout": {
    "storage": [
      {
        "astId": 182,
        "contract": "contracts/MLStaking.sol:MLStaking",
        "label": "_balances",
        "offset": 0,
        "slot": "0",
        "type": "t_mapping(t_address,t_uint256)"
      },
      {
        "astId": 188,
        "contract": "contracts/MLStaking.sol:MLStaking",
        "label": "_allowances",
        "offset": 0,
        "slot": "1",
        "type": "t_mapping(t_address,t_mapping(t_address,t_uint256))"
      },
      {
        "astId": 190,
        "contract": "contracts/MLStaking.sol:MLStaking",
        "label": "_totalSupply",
        "offset": 0,
        "slot": "2",
        "type": "t_uint256"
      },
      {
        "astId": 192,
        "contract": "contracts/MLStaking.sol:MLStaking",
        "label": "_name",
        "offset": 0,
        "slot": "3",
        "type": "t_string_storage"
      },
      {
        "astId": 194,
        "contract": "contracts/MLStaking.sol:MLStaking",
        "label": "_symbol",
        "offset": 0,
        "slot": "4",
        "type": "t_string_storage"
      },
      {
        "astId": 7,
        "contract": "contracts/MLStaking.sol:MLStaking",
        "label": "_owner",
        "offset": 0,
        "slot": "5",
        "type": "t_address"
      },
      {
        "astId": 123,
        "contract": "contracts/MLStaking.sol:MLStaking",
        "label": "_status",
        "offset": 0,
        "slot": "6",
        "type": "t_uint256"
      },
      {
        "astId": 1882,
        "contract": "contracts/MLStaking.sol:MLStaking",
        "label": "_enabledMonths",
        "offset": 0,
        "slot": "7",
        "type": "t_array(t_uint256)dyn_storage"
      },
      {
        "astId": 1892,
        "contract": "contracts/MLStaking.sol:MLStaking",
        "label": "finishingBlockNumber",
        "offset": 0,
        "slot": "8",
        "type": "t_uint256"
      },
      {
        "astId": 1895,
        "contract": "contracts/MLStaking.sol:MLStaking",
        "label": "lastUpdateBlockNumber",
        "offset": 0,
        "slot": "9",
        "type": "t_uint256"
      },
      {
        "astId": 1898,
        "contract": "contracts/MLStaking.sol:MLStaking",
        "label": "totalStakers",
        "offset": 0,
        "slot": "10",
        "type": "t_uint256"
      },
      {
        "astId": 1901,
        "contract": "contracts/MLStaking.sol:MLStaking",
        "label": "rewardPerToken1Stored",
        "offset": 0,
        "slot": "11",
        "type": "t_uint256"
      },
      {
        "astId": 1904,
        "contract": "contracts/MLStaking.sol:MLStaking",
        "label": "rewardTokenDistributed",
        "offset": 0,
        "slot": "12",
        "type": "t_uint256"
      },
      {
        "astId": 1907,
        "contract": "contracts/MLStaking.sol:MLStaking",
        "label": "rewardTokenClaimed",
        "offset": 0,
        "slot": "13",
        "type": "t_uint256"
      },
      {
        "astId": 1910,
        "contract": "contracts/MLStaking.sol:MLStaking",
        "label": "rewardTokenSum",
        "offset": 0,
        "slot": "14",
        "type": "t_uint256"
      },
      {
        "astId": 1913,
        "contract": "contracts/MLStaking.sol:MLStaking",
        "label": "totalSumStaked",
        "offset": 0,
        "slot": "15",
        "type": "t_uint256"
      },
      {
        "astId": 1916,
        "contract": "contracts/MLStaking.sol:MLStaking",
        "label": "sumAccumulatedRewardsToken2",
        "offset": 0,
        "slot": "16",
        "type": "t_uint256"
      },
      {
        "astId": 1919,
        "contract": "contracts/MLStaking.sol:MLStaking",
        "label": "_totalSumStakedVirtual",
        "offset": 0,
        "slot": "17",
        "type": "t_uint256"
      },
      {
        "astId": 1922,
        "contract": "contracts/MLStaking.sol:MLStaking",
        "label": "rewardPerBlock",
        "offset": 0,
        "slot": "18",
        "type": "t_uint256"
      },
      {
        "astId": 1927,
        "contract": "contracts/MLStaking.sol:MLStaking",
        "label": "userRewardPaidPerToken1",
        "offset": 0,
        "slot": "19",
        "type": "t_mapping(t_address,t_uint256)"
      },
      {
        "astId": 1931,
        "contract": "contracts/MLStaking.sol:MLStaking",
        "label": "_alreadyRegisteredStaker",
        "offset": 0,
        "slot": "20",
        "type": "t_mapping(t_address,t_bool)"
      },
      {
        "astId": 1936,
        "contract": "contracts/MLStaking.sol:MLStaking",
        "label": "_balancesStaked",
        "offset": 0,
        "slot": "21",
        "type": "t_mapping(t_address,t_uint256)"
      },
      {
        "astId": 1941,
        "contract": "contracts/MLStaking.sol:MLStaking",
        "label": "_totalSumStakedByLock",
        "offset": 0,
        "slot": "22",
        "type": "t_mapping(t_uint256,t_uint256)"
      },
      {
        "astId": 1946,
        "contract": "contracts/MLStaking.sol:MLStaking",
        "label": "_monthsOfBlockingEnabled",
        "offset": 0,
        "slot": "23",
        "type": "t_mapping(t_uint256,t_bool)"
      },
      {
        "astId": 1954,
        "contract": "contracts/MLStaking.sol:MLStaking",
        "label": "_accountsWithStakeLocked",
        "offset": 0,
        "slot": "24",
        "type": "t_mapping(t_address,t_mapping(t_uint256,t_struct(StakeData)1871_storage))"
      },
      {
        "astId": 1959,
        "contract": "contracts/MLStaking.sol:MLStaking",
        "label": "accumulatedRewardsToken2",
        "offset": 0,
        "slot": "25",
        "type": "t_mapping(t_address,t_uint256)"
      }
    ],
    "types": {
      "t_address": {
        "encoding": "inplace",
        "label": "address",
        "numberOfBytes": "20"
      },
      "t_array(t_uint256)dyn_storage": {
        "base": "t_uint256",
        "encoding": "dynamic_array",
        "label": "uint256[]",
        "numberOfBytes": "32"
      },
      "t_bool": {
        "encoding": "inplace",
        "label": "bool",
        "numberOfBytes": "1"
      },
      "t_mapping(t_address,t_bool)": {
        "encoding": "mapping",
        "key": "t_address",
        "label": "mapping(address => bool)",
        "numberOfBytes": "32",
        "value": "t_bool"
      },
      "t_mapping(t_address,t_mapping(t_address,t_uint256))": {
        "encoding": "mapping",
        "key": "t_address",
        "label": "mapping(address => mapping(address => uint256))",
        "numberOfBytes": "32",
        "value": "t_mapping(t_address,t_uint256)"
      },
      "t_mapping(t_address,t_mapping(t_uint256,t_struct(StakeData)1871_storage))": {
        "encoding": "mapping",
        "key": "t_address",
        "label": "mapping(address => mapping(uint256 => struct MLStaking.StakeData))",
        "numberOfBytes": "32",
        "value": "t_mapping(t_uint256,t_struct(StakeData)1871_storage)"
      },
      "t_mapping(t_address,t_uint256)": {
        "encoding": "mapping",
        "key": "t_address",
        "label": "mapping(address => uint256)",
        "numberOfBytes": "32",
        "value": "t_uint256"
      },
      "t_mapping(t_uint256,t_bool)": {
        "encoding": "mapping",
        "key": "t_uint256",
        "label": "mapping(uint256 => bool)",
        "numberOfBytes": "32",
        "value": "t_bool"
      },
      "t_mapping(t_uint256,t_struct(StakeData)1871_storage)": {
        "encoding": "mapping",
        "key": "t_uint256",
        "label": "mapping(uint256 => struct MLStaking.StakeData)",
        "numberOfBytes": "32",
        "value": "t_struct(StakeData)1871_storage"
      },
      "t_mapping(t_uint256,t_uint256)": {
        "encoding": "mapping",
        "key": "t_uint256",
        "label": "mapping(uint256 => uint256)",
        "numberOfBytes": "32",
        "value": "t_uint256"
      },
      "t_string_storage": {
        "encoding": "bytes",
        "label": "string",
        "numberOfBytes": "32"
      },
      "t_struct(StakeData)1871_storage": {
        "encoding": "inplace",
        "label": "struct MLStaking.StakeData",
        "members": [
          {
            "astId": 1862,
            "contract": "contracts/MLStaking.sol:MLStaking",
            "label": "amount",
            "offset": 0,
            "slot": "0",
            "type": "t_uint256"
          },
          {
            "astId": 1864,
            "contract": "contracts/MLStaking.sol:MLStaking",
            "label": "amountVirtual",
            "offset": 0,
            "slot": "1",
            "type": "t_uint256"
          },
          {
            "astId": 1866,
            "contract": "contracts/MLStaking.sol:MLStaking",
            "label": "unlockDate",
            "offset": 0,
            "slot": "2",
            "type": "t_uint256"
          },
          {
            "astId": 1868,
            "contract": "contracts/MLStaking.sol:MLStaking",
            "label": "rewardToken1",
            "offset": 0,
            "slot": "3",
            "type": "t_uint256"
          },
          {
            "astId": 1870,
            "contract": "contracts/MLStaking.sol:MLStaking",
            "label": "rewardToken2",
            "offset": 0,
            "slot": "4",
            "type": "t_uint256"
          }
        ],
        "numberOfBytes": "160"
      },
      "t_uint256": {
        "encoding": "inplace",
        "label": "uint256",
        "numberOfBytes": "32"
      }
    }
  }
}