{
  "address": "0xdA2F1CB631342Fad0654015b5D4D52d3faA55197",
  "abi": [
    {
      "inputs": [
        {
          "internalType": "string",
          "name": "name_",
          "type": "string"
        },
        {
          "internalType": "string",
          "name": "symbol_",
          "type": "string"
        }
      ],
      "stateMutability": "nonpayable",
      "type": "constructor"
    },
    {
      "anonymous": false,
      "inputs": [
        {
          "indexed": true,
          "internalType": "address",
          "name": "owner",
          "type": "address"
        },
        {
          "indexed": true,
          "internalType": "address",
          "name": "spender",
          "type": "address"
        },
        {
          "indexed": false,
          "internalType": "uint256",
          "name": "value",
          "type": "uint256"
        }
      ],
      "name": "Approval",
      "type": "event"
    },
    {
      "anonymous": false,
      "inputs": [
        {
          "indexed": true,
          "internalType": "address",
          "name": "previousOwner",
          "type": "address"
        },
        {
          "indexed": true,
          "internalType": "address",
          "name": "newOwner",
          "type": "address"
        }
      ],
      "name": "OwnershipTransferred",
      "type": "event"
    },
    {
      "anonymous": false,
      "inputs": [
        {
          "indexed": true,
          "internalType": "address",
          "name": "account_",
          "type": "address"
        },
        {
          "indexed": false,
          "internalType": "uint256",
          "name": "reward_",
          "type": "uint256"
        }
      ],
      "name": "RewardPaid",
      "type": "event"
    },
    {
      "anonymous": false,
      "inputs": [
        {
          "indexed": true,
          "internalType": "address",
          "name": "account_",
          "type": "address"
        },
        {
          "indexed": false,
          "internalType": "uint256",
          "name": "amount_",
          "type": "uint256"
        },
        {
          "indexed": false,
          "internalType": "uint256",
          "name": "lockMonths_",
          "type": "uint256"
        },
        {
          "indexed": false,
          "internalType": "uint256",
          "name": "unlockDate_",
          "type": "uint256"
        }
      ],
      "name": "Staked",
      "type": "event"
    },
    {
      "anonymous": false,
      "inputs": [
        {
          "indexed": true,
          "internalType": "address",
          "name": "from",
          "type": "address"
        },
        {
          "indexed": true,
          "internalType": "address",
          "name": "to",
          "type": "address"
        },
        {
          "indexed": false,
          "internalType": "uint256",
          "name": "value",
          "type": "uint256"
        }
      ],
      "name": "Transfer",
      "type": "event"
    },
    {
      "anonymous": false,
      "inputs": [
        {
          "indexed": true,
          "internalType": "address",
          "name": "account_",
          "type": "address"
        },
        {
          "indexed": false,
          "internalType": "uint256",
          "name": "amount_",
          "type": "uint256"
        }
      ],
      "name": "Unstaked",
      "type": "event"
    },
    {
      "inputs": [
        {
          "internalType": "address",
          "name": "",
          "type": "address"
        }
      ],
      "name": "accumulatedRewardsToken2",
      "outputs": [
        {
          "internalType": "uint256",
          "name": "",
          "type": "uint256"
        }
      ],
      "stateMutability": "view",
      "type": "function"
    },
    {
      "inputs": [
        {
          "internalType": "address",
          "name": "owner",
          "type": "address"
        },
        {
          "internalType": "address",
          "name": "spender",
          "type": "address"
        }
      ],
      "name": "allowance",
      "outputs": [
        {
          "internalType": "uint256",
          "name": "",
          "type": "uint256"
        }
      ],
      "stateMutability": "view",
      "type": "function"
    },
    {
      "inputs": [
        {
          "internalType": "address",
          "name": "spender",
          "type": "address"
        },
        {
          "internalType": "uint256",
          "name": "amount",
          "type": "uint256"
        }
      ],
      "name": "approve",
      "outputs": [
        {
          "internalType": "bool",
          "name": "",
          "type": "bool"
        }
      ],
      "stateMutability": "nonpayable",
      "type": "function"
    },
    {
      "inputs": [
        {
          "internalType": "address",
          "name": "account",
          "type": "address"
        }
      ],
      "name": "balanceOf",
      "outputs": [
        {
          "internalType": "uint256",
          "name": "",
          "type": "uint256"
        }
      ],
      "stateMutability": "view",
      "type": "function"
    },
    {
      "inputs": [
        {
          "internalType": "address",
          "name": "account_",
          "type": "address"
        },
        {
          "internalType": "uint256",
          "name": "lockMonths_",
          "type": "uint256"
        }
      ],
      "name": "balanceStakedLockOf",
      "outputs": [
        {
          "internalType": "uint256",
          "name": "",
          "type": "uint256"
        }
      ],
      "stateMutability": "view",
      "type": "function"
    },
    {
      "inputs": [
        {
          "internalType": "address",
          "name": "account",
          "type": "address"
        }
      ],
      "name": "balanceStakedOf",
      "outputs": [
        {
          "internalType": "uint256",
          "name": "",
          "type": "uint256"
        }
      ],
      "stateMutability": "view",
      "type": "function"
    },
    {
      "inputs": [],
      "name": "decimals",
      "outputs": [
        {
          "internalType": "uint8",
          "name": "",
          "type": "uint8"
        }
      ],
      "stateMutability": "view",
      "type": "function"
    },
    {
      "inputs": [
        {
          "internalType": "address",
          "name": "spender",
          "type": "address"
        },
        {
          "internalType": "uint256",
          "name": "subtractedValue",
          "type": "uint256"
        }
      ],
      "name": "decreaseAllowance",
      "outputs": [
        {
          "internalType": "bool",
          "name": "",
          "type": "bool"
        }
      ],
      "stateMutability": "nonpayable",
      "type": "function"
    },
    {
      "inputs": [
        {
          "internalType": "address",
          "name": "account_",
          "type": "address"
        }
      ],
      "name": "deliverRewards",
      "outputs": [],
      "stateMutability": "nonpayable",
      "type": "function"
    },
    {
      "inputs": [
        {
          "internalType": "address",
          "name": "account_",
          "type": "address"
        },
        {
          "internalType": "uint256",
          "name": "lockMonths_",
          "type": "uint256"
        }
      ],
      "name": "earnedLockToken1",
      "outputs": [
        {
          "internalType": "uint256",
          "name": "",
          "type": "uint256"
        }
      ],
      "stateMutability": "view",
      "type": "function"
    },
    {
      "inputs": [
        {
          "internalType": "address",
          "name": "account_",
          "type": "address"
        },
        {
          "internalType": "uint256",
          "name": "lockMonths_",
          "type": "uint256"
        }
      ],
      "name": "earnedLockToken2",
      "outputs": [
        {
          "internalType": "uint256",
          "name": "",
          "type": "uint256"
        }
      ],
      "stateMutability": "view",
      "type": "function"
    },
    {
      "inputs": [
        {
          "internalType": "address",
          "name": "account_",
          "type": "address"
        }
      ],
      "name": "earnedToken1",
      "outputs": [
        {
          "internalType": "uint256",
          "name": "",
          "type": "uint256"
        }
      ],
      "stateMutability": "view",
      "type": "function"
    },
    {
      "inputs": [
        {
          "internalType": "address",
          "name": "account_",
          "type": "address"
        }
      ],
      "name": "earnedToken2",
      "outputs": [
        {
          "internalType": "uint256",
          "name": "",
          "type": "uint256"
        }
      ],
      "stateMutability": "view",
      "type": "function"
    },
    {
      "inputs": [],
      "name": "exit",
      "outputs": [],
      "stateMutability": "nonpayable",
      "type": "function"
    },
    {
      "inputs": [],
      "name": "finishingBlockNumber",
      "outputs": [
        {
          "internalType": "uint256",
          "name": "",
          "type": "uint256"
        }
      ],
      "stateMutability": "view",
      "type": "function"
    },
    {
      "inputs": [
        {
          "internalType": "bool",
          "name": "compose_",
          "type": "bool"
        }
      ],
      "name": "getReward",
      "outputs": [],
      "stateMutability": "nonpayable",
      "type": "function"
    },
    {
      "inputs": [
        {
          "internalType": "address",
          "name": "spender",
          "type": "address"
        },
        {
          "internalType": "uint256",
          "name": "addedValue",
          "type": "uint256"
        }
      ],
      "name": "increaseAllowance",
      "outputs": [
        {
          "internalType": "bool",
          "name": "",
          "type": "bool"
        }
      ],
      "stateMutability": "nonpayable",
      "type": "function"
    },
    {
      "inputs": [],
      "name": "lastUpdateBlockNumber",
      "outputs": [
        {
          "internalType": "uint256",
          "name": "",
          "type": "uint256"
        }
      ],
      "stateMutability": "view",
      "type": "function"
    },
    {
      "inputs": [],
      "name": "name",
      "outputs": [
        {
          "internalType": "string",
          "name": "",
          "type": "string"
        }
      ],
      "stateMutability": "view",
      "type": "function"
    },
    {
      "inputs": [],
      "name": "owner",
      "outputs": [
        {
          "internalType": "address",
          "name": "",
          "type": "address"
        }
      ],
      "stateMutability": "view",
      "type": "function"
    },
    {
      "inputs": [],
      "name": "renounceOwnership",
      "outputs": [],
      "stateMutability": "nonpayable",
      "type": "function"
    },
    {
      "inputs": [],
      "name": "rewardPerBlock",
      "outputs": [
        {
          "internalType": "uint256",
          "name": "",
          "type": "uint256"
        }
      ],
      "stateMutability": "view",
      "type": "function"
    },
    {
      "inputs": [],
      "name": "rewardPerToken1",
      "outputs": [
        {
          "internalType": "uint256",
          "name": "",
          "type": "uint256"
        }
      ],
      "stateMutability": "view",
      "type": "function"
    },
    {
      "inputs": [],
      "name": "rewardPerToken1Stored",
      "outputs": [
        {
          "internalType": "uint256",
          "name": "",
          "type": "uint256"
        }
      ],
      "stateMutability": "view",
      "type": "function"
    },
    {
      "inputs": [],
      "name": "rewardPerToken2",
      "outputs": [
        {
          "internalType": "uint256",
          "name": "",
          "type": "uint256"
        }
      ],
      "stateMutability": "view",
      "type": "function"
    },
    {
      "inputs": [],
      "name": "rewardPerToken2Stored",
      "outputs": [
        {
          "internalType": "uint256",
          "name": "",
          "type": "uint256"
        }
      ],
      "stateMutability": "view",
      "type": "function"
    },
    {
      "inputs": [],
      "name": "rewardTokenClaimed",
      "outputs": [
        {
          "internalType": "uint256",
          "name": "",
          "type": "uint256"
        }
      ],
      "stateMutability": "view",
      "type": "function"
    },
    {
      "inputs": [],
      "name": "rewardTokenDistributed",
      "outputs": [
        {
          "internalType": "uint256",
          "name": "",
          "type": "uint256"
        }
      ],
      "stateMutability": "view",
      "type": "function"
    },
    {
      "inputs": [],
      "name": "rewardTokenSum",
      "outputs": [
        {
          "internalType": "uint256",
          "name": "",
          "type": "uint256"
        }
      ],
      "stateMutability": "view",
      "type": "function"
    },
    {
      "inputs": [
        {
          "internalType": "uint256",
          "name": "amount_",
          "type": "uint256"
        },
        {
          "internalType": "uint256",
          "name": "lockMonths_",
          "type": "uint256"
        }
      ],
      "name": "stake",
      "outputs": [],
      "stateMutability": "nonpayable",
      "type": "function"
    },
    {
      "inputs": [
        {
          "internalType": "address",
          "name": "account",
          "type": "address"
        },
        {
          "internalType": "uint256",
          "name": "lockMonths_",
          "type": "uint256"
        }
      ],
      "name": "stakeDataOfByLock",
      "outputs": [
        {
          "components": [
            {
              "internalType": "uint256",
              "name": "amount",
              "type": "uint256"
            },
            {
              "internalType": "uint256",
              "name": "amountVirtual",
              "type": "uint256"
            },
            {
              "internalType": "uint256[]",
              "name": "amounts",
              "type": "uint256[]"
            },
            {
              "internalType": "uint256[]",
              "name": "unlockDates",
              "type": "uint256[]"
            },
            {
              "internalType": "uint256[]",
              "name": "amountsVirtual",
              "type": "uint256[]"
            },
            {
              "internalType": "uint256",
              "name": "rewardToken1",
              "type": "uint256"
            },
            {
              "internalType": "uint256",
              "name": "rewardToken2",
              "type": "uint256"
            }
          ],
          "internalType": "struct MLStaking.StakeData",
          "name": "",
          "type": "tuple"
        }
      ],
      "stateMutability": "view",
      "type": "function"
    },
    {
      "inputs": [],
      "name": "sumAccumulatedRewardsToken2",
      "outputs": [
        {
          "internalType": "uint256",
          "name": "",
          "type": "uint256"
        }
      ],
      "stateMutability": "view",
      "type": "function"
    },
    {
      "inputs": [],
      "name": "symbol",
      "outputs": [
        {
          "internalType": "string",
          "name": "",
          "type": "string"
        }
      ],
      "stateMutability": "view",
      "type": "function"
    },
    {
      "inputs": [
        {
          "internalType": "uint256",
          "name": "lockMonths_",
          "type": "uint256"
        }
      ],
      "name": "totalStakedLockSum",
      "outputs": [
        {
          "internalType": "uint256",
          "name": "",
          "type": "uint256"
        }
      ],
      "stateMutability": "view",
      "type": "function"
    },
    {
      "inputs": [],
      "name": "totalStakers",
      "outputs": [
        {
          "internalType": "uint256",
          "name": "",
          "type": "uint256"
        }
      ],
      "stateMutability": "view",
      "type": "function"
    },
    {
      "inputs": [],
      "name": "totalSumStaked",
      "outputs": [
        {
          "internalType": "uint256",
          "name": "",
          "type": "uint256"
        }
      ],
      "stateMutability": "view",
      "type": "function"
    },
    {
      "inputs": [],
      "name": "totalSumStakedVirtual",
      "outputs": [
        {
          "internalType": "uint256",
          "name": "",
          "type": "uint256"
        }
      ],
      "stateMutability": "view",
      "type": "function"
    },
    {
      "inputs": [],
      "name": "totalSupply",
      "outputs": [
        {
          "internalType": "uint256",
          "name": "",
          "type": "uint256"
        }
      ],
      "stateMutability": "view",
      "type": "function"
    },
    {
      "inputs": [
        {
          "internalType": "address",
          "name": "to",
          "type": "address"
        },
        {
          "internalType": "uint256",
          "name": "amount",
          "type": "uint256"
        }
      ],
      "name": "transfer",
      "outputs": [
        {
          "internalType": "bool",
          "name": "",
          "type": "bool"
        }
      ],
      "stateMutability": "nonpayable",
      "type": "function"
    },
    {
      "inputs": [
        {
          "internalType": "address",
          "name": "from",
          "type": "address"
        },
        {
          "internalType": "address",
          "name": "to",
          "type": "address"
        },
        {
          "internalType": "uint256",
          "name": "amount",
          "type": "uint256"
        }
      ],
      "name": "transferFrom",
      "outputs": [
        {
          "internalType": "bool",
          "name": "",
          "type": "bool"
        }
      ],
      "stateMutability": "nonpayable",
      "type": "function"
    },
    {
      "inputs": [
        {
          "internalType": "address",
          "name": "newOwner",
          "type": "address"
        }
      ],
      "name": "transferOwnership",
      "outputs": [],
      "stateMutability": "nonpayable",
      "type": "function"
    },
    {
      "inputs": [],
      "name": "unstaked",
      "outputs": [],
      "stateMutability": "nonpayable",
      "type": "function"
    },
    {
      "inputs": [
        {
          "internalType": "uint256",
          "name": "amount_",
          "type": "uint256"
        },
        {
          "internalType": "uint256",
          "name": "lockMonths_",
          "type": "uint256"
        },
        {
          "internalType": "uint256",
          "name": "stakeDataIndex_",
          "type": "uint256"
        }
      ],
      "name": "unstakedLock",
      "outputs": [],
      "stateMutability": "nonpayable",
      "type": "function"
    },
    {
      "inputs": [
        {
          "internalType": "uint256",
          "name": "rewardPerBlock_",
          "type": "uint256"
        }
      ],
      "name": "updateRewardPerBlock",
      "outputs": [],
      "stateMutability": "nonpayable",
      "type": "function"
    },
    {
      "inputs": [
        {
          "internalType": "uint256",
          "name": "amountReward_",
          "type": "uint256"
        }
      ],
      "name": "updateRewardToDistribute",
      "outputs": [],
      "stateMutability": "nonpayable",
      "type": "function"
    },
    {
      "inputs": [
        {
          "internalType": "uint256",
          "name": "divider_",
          "type": "uint256"
        }
      ],
      "name": "updateTokenRewardDivider",
      "outputs": [],
      "stateMutability": "nonpayable",
      "type": "function"
    },
    {
      "inputs": [
        {
          "internalType": "address",
          "name": "",
          "type": "address"
        }
      ],
      "name": "userRewardPaidPerToken1",
      "outputs": [
        {
          "internalType": "uint256",
          "name": "",
          "type": "uint256"
        }
      ],
      "stateMutability": "view",
      "type": "function"
    },
    {
      "inputs": [
        {
          "internalType": "address",
          "name": "",
          "type": "address"
        }
      ],
      "name": "userRewardPaidPerToken2",
      "outputs": [
        {
          "internalType": "uint256",
          "name": "",
          "type": "uint256"
        }
      ],
      "stateMutability": "view",
      "type": "function"
    },
    {
      "inputs": [],
      "name": "withdrawUnclaimedRewards",
      "outputs": [],
      "stateMutability": "nonpayable",
      "type": "function"
    }
  ],
  "transactionHash": "0x22f311c4dd95e82e7c4eb7bb85d7d5ee192b17de5fa9fdf04bf45da6e7960424",
  "args": [
    "Testnet TML",
    "TML"
  ],
  "numDeployments": 21,
  "solcInputHash": "b74c86ed1f24e706b2d085439f440cfb",
  "bytecode": "0x61016060405260006080908152600160a052600260c052600360e0526004610100526005610120526006610140526200003c9060079081620001ac565b503480156200004a57600080fd5b5060405162003757380380620037578339810160408190526200006d9162000348565b8151829082906200008690600390602085019062000201565b5080516200009c90600490602084019062000201565b505050620000b9620000b36200015660201b60201c565b6200015a565b600160065562030d406014556706830064d233c00060135560005b6007548110156200014d576001601a6000600784815481106200010757634e487b7160e01b600052603260045260246000fd5b9060005260206000200154815260200190815260200160002060006101000a81548160ff02191690831515021790555080806200014490620003ec565b915050620000d4565b5050506200042a565b3390565b600580546001600160a01b038381166001600160a01b0319831681179093556040519116919082907f8be0079c531659141344cd1fd0a4f28419497f9722a3daafe3b4186f6b6457e090600090a35050565b828054828255906000526020600020908101928215620001ef579160200282015b82811115620001ef578251829060ff16905591602001919060010190620001cd565b50620001fd9291506200027e565b5090565b8280546200020f90620003af565b90600052602060002090601f016020900481019282620002335760008555620001ef565b82601f106200024e57805160ff1916838001178555620001ef565b82800160010185558215620001ef579182015b82811115620001ef57825182559160200191906001019062000261565b5b80821115620001fd57600081556001016200027f565b600082601f830112620002a6578081fd5b81516001600160401b0380821115620002c357620002c362000414565b604051601f8301601f19908116603f01168101908282118183101715620002ee57620002ee62000414565b816040528381526020925086838588010111156200030a578485fd5b8491505b838210156200032d57858201830151818301840152908201906200030e565b838211156200033e57848385830101525b9695505050505050565b600080604083850312156200035b578182fd5b82516001600160401b038082111562000372578384fd5b620003808683870162000295565b9350602085015191508082111562000396578283fd5b50620003a58582860162000295565b9150509250929050565b600281046001821680620003c457607f821691505b60208210811415620003e657634e487b7160e01b600052602260045260246000fd5b50919050565b60006000198214156200040d57634e487b7160e01b81526011600452602481fd5b5060010190565b634e487b7160e01b600052604160045260246000fd5b61331d806200043a6000396000f3fe608060405234801561001057600080fd5b506004361061032b5760003560e01c80638da4c7c9116101b2578063b5d26738116100f9578063d7282ff0116100a2578063e9fad8ee1161007c578063e9fad8ee146105f9578063ee890db214610601578063f2fde38b14610609578063f32e02361461061c5761032b565b8063d7282ff0146105c0578063dd62ed3e146105d3578063e66990fb146105e65761032b565b8063bf9c89bb116100d3578063bf9c89bb14610592578063c014574f146105a5578063c43bafaf146105b85761032b565b8063b5d267381461056f578063b67cf29014610582578063bb5615241461058a5761032b565b8063a457c2d71161015b578063acbc2e8a11610135578063acbc2e8a1461054c578063ae7e3b6c14610554578063b4c6e416146105675761032b565b8063a457c2d714610513578063a4698feb14610526578063a9059cbb146105395761032b565b806395d89b411161018c57806395d89b41146104f05780639646961a146104f85780639ca9b643146105005761032b565b80638da4c7c9146104cb5780638da5cb5b146104d3578063936f72a4146104e85761032b565b806341c351e8116102765780636c9db0411161021f5780637b0472f0116101f95780637b0472f0146104a857806386989038146104bb5780638ae39cac146104c35761032b565b80636c9db0411461047a57806370a082311461048d578063715018a6146104a05761032b565b806355db62001161025057806355db6200146104575780635fc1aa391461046a5780636616a4ae146104725761032b565b806341c351e814610429578063446154641461043c5780635031be68146104445761032b565b80631a77398f116102d8578063313ce567116102b2578063313ce567146103ee57806336d187ab1461040357806339509351146104165761032b565b80631a77398f146103c057806323b872dd146103c85780632a74bfa4146103db5761032b565b8063078ea0bb11610309578063078ea0bb14610378578063095ea7b31461039857806318160ddd146103b85761032b565b806301f8a97614610330578063060690531461034557806306fdde0314610363575b600080fd5b61034361033e366004612931565b61062f565b005b61034d610683565b60405161035a919061316a565b60405180910390f35b61036b610689565b60405161035a9190612a5f565b61038b6103863660046128d0565b61071c565b60405161035a91906130be565b6103ab6103a63660046128d0565b61087d565b60405161035a9190612a54565b61034d61089f565b61034d6108a5565b6103ab6103d6366004612895565b610918565b61034d6103e9366004612849565b610946565b6103f66109b1565b60405161035a9190613189565b61034d6104113660046128d0565b6109b6565b6103ab6104243660046128d0565b6109de565b61034d6104373660046128d0565b610a0a565b61034d610aff565b61034d610452366004612849565b610b05565b61034d610465366004612849565b610b17565b61034d610b29565b61034d610b2f565b610343610488366004612931565b610b35565b61034d61049b366004612849565b610d11565b610343610d2c565b6103436104b6366004612961565b610d40565b61034d610d5e565b61034d610d64565b61034d610d6a565b6104db610d70565b60405161035a9190612a03565b61034d610d7f565b61036b610d85565b61034d610d94565b61034361050e366004612849565b610dd6565b6103ab6105213660046128d0565b610e34565b6103436105343660046128f9565b610e7c565b6103ab6105473660046128d0565b610f16565b610343610f2e565b61034d610562366004612849565b6110ad565b61034d611108565b61034361057d366004612931565b61110e565b61034d61113b565b610343611141565b61034d6105a0366004612849565b611199565b6103436105b3366004612982565b6111b4565b61034d6111d4565b61034d6105ce3660046128d0565b6111da565b61034d6105e1366004612863565b611279565b61034d6105f4366004612849565b6112a4565b6103436112b6565b61034d611426565b610343610617366004612849565b61142c565b61034d61062a366004612931565b611463565b610637611475565b600081116106605760405162461bcd60e51b815260040161065790612c92565b60405180910390fd5b6013819055600f5461067d9061067690836114b4565b43906114c7565b60085550565b600e5481565b6060600380546106989061324f565b80601f01602080910402602001604051908101604052809291908181526020018280546106c49061324f565b80156107115780601f106106e657610100808354040283529160200191610711565b820191906000526020600020905b8154815290600101906020018083116106f457829003601f168201915b505050505090505b90565b6107246127c3565b6001600160a01b0383166000908152601b60209081526040808320858452825291829020825160e08101845281548152600182015481840152600282018054855181860281018601875281815292959394938601938301828280156107a857602002820191906000526020600020905b815481526020019060010190808311610794575b505050505081526020016003820180548060200260200160405190810160405280929190818152602001828054801561080057602002820191906000526020600020905b8154815260200190600101908083116107ec575b505050505081526020016004820180548060200260200160405190810160405280929190818152602001828054801561085857602002820191906000526020600020905b815481526020019060010190808311610844575b5050505050815260200160058201548152602001600682015481525050905092915050565b6000806108886114d3565b90506108958185856114d7565b5060019392505050565b60025490565b6000601054600014156108bb5750600b54610719565b61091361090a6108d86012546010546114c790919063ffffffff16565b610904670de0b6b3a76400006108fe6013546108fe6009546108f861158b565b906115a3565b906115af565b906114b4565b600b54906114c7565b905090565b6000806109236114d3565b90506109308582856115bb565b61093b858585611623565b506001949350505050565b600080805b6007548110156109a85761099461098d856007848154811061097d57634e487b7160e01b600052603260045260246000fd5b90600052602060002001546111da565b83906114c7565b9150806109a08161328a565b91505061094b565b5090505b919050565b601290565b6001600160a01b03919091166000908152601b60209081526040808320938352929052205490565b6000806109e96114d3565b90506108958185856109fb8589611279565b610a059190613197565b6114d7565b6000818152601a6020526040812054829060ff16610a3a5760405162461bcd60e51b815260040161065790612d26565b6001600160a01b0384166000908152601b60209081526040808320868452909152902060060154610af790610af1670de0b6b3a7640000610904606481610a808a611724565b6001600160a01b038c166000908152601660205260409020546108fe90610aa9906108f8610d94565b601b60008f6001600160a01b03166001600160a01b0316815260200190815260200160002060008e8152602001908152602001600020600001546115af90919063ffffffff16565b906114c7565b949350505050565b600f5481565b601c6020526000908152604090205481565b60156020526000908152604090205481565b600b5481565b600d5481565b6000610b3f6108a5565b600b55610b4a610d94565b600c55610b5561158b565b6009556001600160a01b03811615610c855760005b600754811015610c5557610b7e82826111da565b6001600160a01b0383166000908152601b602052604081206007805491929185908110610bbb57634e487b7160e01b600052603260045260246000fd5b9060005260206000200154815260200190815260200160002060050181905550610be58282610a0a565b6001600160a01b0383166000908152601b602052604081206007805491929185908110610c2257634e487b7160e01b600052603260045260246000fd5b90600052602060002001548152602001908152602001600020600601819055508080610c4d9061328a565b915050610b6a565b50600b546001600160a01b038216600090815260156020908152604080832093909355600c546016909152919020555b610c8d611475565b60008211610cad5760405162461bcd60e51b815260040161065790612d94565b610ccd730c703e0cd79107354934f87743ff26b0d87b7905333085611742565b600f54610cda90836114c7565b600f819055600d8054600090610cf1908490613197565b9091555050601354600f54610d0a9161067691906114b4565b6008555050565b6001600160a01b031660009081526020819052604090205490565b610d34611475565b610d3e60006117e5565b565b610d4861184f565b610d528282611879565b610d5a611d2d565b5050565b600a5481565b60135481565b60085481565b6005546001600160a01b031690565b60125481565b6060600480546106989061324f565b600060105460001415610daa5750600c54610719565b610913610dcd601454610904670de0b6b3a76400006108fe6009546108f861158b565b600c54906114c7565b610dde61184f565b610de6611475565b6001600160a01b0381166000908152601c60205260409020548015610e28576001600160a01b0382166000908152601c6020526040812055610e288282611d34565b50610e31611d2d565b50565b600080610e3f6114d3565b90506000610e4d8286611279565b905083811015610e6f5760405162461bcd60e51b81526004016106579061302a565b61093b82868684036114d7565b610e8461184f565b6000805b600754811015610ee557610ec760078281548110610eb657634e487b7160e01b600052603260045260246000fd5b906000526020600020015484611dde565b610ed19083613197565b915080610edd8161328a565b915050610e88565b508115610e2857610f0b730c703e0cd79107354934f87743ff26b0d87b79053383612150565b610e28816000611879565b600080610f216114d3565b9050610895818585611623565b610f3661184f565b60005b6007548110156110a457336000908152601b602052604081206007805483919085908110610f7757634e487b7160e01b600052603260045260246000fd5b90600052602060002001548152602001908152602001600020905060005b600282015481101561108f576000826002018281548110610fc657634e487b7160e01b600052603260045260246000fd5b90600052602060002001541180156110155750816003018181548110610ffc57634e487b7160e01b600052603260045260246000fd5b9060005260206000200154421180611015575060085443115b1561107d5761107d82600201828154811061104057634e487b7160e01b600052603260045260246000fd5b90600052602060002001546007858154811061106c57634e487b7160e01b600052603260045260246000fd5b90600052602060002001548361216f565b806110878161328a565b915050610f95565b5050808061109c9061328a565b915050610f39565b50610d3e611d2d565b600080805b6007548110156109a8576110f461098d85600784815481106110e457634e487b7160e01b600052603260045260246000fd5b9060005260206000200154610a0a565b9150806111008161328a565b9150506110b2565b60095481565b611116611475565b600081116111365760405162461bcd60e51b815260040161065790612e00565b601355565b60115481565b61114961184f565b611151611475565b6008544311801561116457506000600f54115b1561119157600f805460009091556110a4730c703e0cd79107354934f87743ff26b0d87b79053383612150565b610d3e611d2d565b6001600160a01b031660009081526018602052604090205490565b6111bc61184f565b6111c783838361216f565b6111cf611d2d565b505050565b60105481565b6000818152601a6020526040812054829060ff1661120a5760405162461bcd60e51b815260040161065790612d26565b6001600160a01b0384166000908152601b60209081526040808320868452909152902060050154610af790610af1670de0b6b3a76400006109046064816112508a611724565b6001600160a01b038c166000908152601560205260409020546108fe90610aa9906108f86108a5565b6001600160a01b03918216600090815260016020908152604080832093909416825291909152205490565b60166020526000908152604090205481565b6112be61184f565b60005b6007548110156110a457611301600782815481106112ef57634e487b7160e01b600052603260045260246000fd5b90600052602060002001546000611dde565b50336000908152601b60205260408120600780548391908590811061133657634e487b7160e01b600052603260045260246000fd5b90600052602060002001548152602001908152602001600020905060005b600282015481101561141157600082600201828154811061138557634e487b7160e01b600052603260045260246000fd5b90600052602060002001541180156113d457508160030181815481106113bb57634e487b7160e01b600052603260045260246000fd5b90600052602060002001544211806113d4575060085443115b156113ff576113ff82600201828154811061104057634e487b7160e01b600052603260045260246000fd5b806114098161328a565b915050611354565b5050808061141e9061328a565b9150506112c1565b600c5481565b611434611475565b6001600160a01b03811661145a5760405162461bcd60e51b815260040161065790612b6a565b610e31816117e5565b60009081526019602052604090205490565b61147d6114d3565b6001600160a01b031661148e610d70565b6001600160a01b031614610d3e5760405162461bcd60e51b815260040161065790612dcb565b60006114c082846131af565b9392505050565b60006114c08284613197565b3390565b6001600160a01b0383166114fd5760405162461bcd60e51b815260040161065790612f02565b6001600160a01b0382166115235760405162461bcd60e51b815260040161065790612bc7565b6001600160a01b0380841660008181526001602090815260408083209487168084529490915290819020849055517f8c5be1e5ebec7d5bd14f71427d1e84f3dd0314c0f7b2291e5b200ac8c7c3b9259061157e90859061316a565b60405180910390a3505050565b6000600854431061159e57600854610913565b504390565b60006114c0828461320c565b60006114c082846131cf565b60006115c78484611279565b90507fffffffffffffffffffffffffffffffffffffffffffffffffffffffffffffffff811461161d57818110156116105760405162461bcd60e51b815260040161065790612c5b565b61161d84848484036114d7565b50505050565b6001600160a01b0383166116495760405162461bcd60e51b815260040161065790612ea5565b6001600160a01b03821661166f5760405162461bcd60e51b815260040161065790612ab0565b61167a8383836111cf565b6001600160a01b038316600090815260208190526040902054818110156116b35760405162461bcd60e51b815260040161065790612cc9565b6001600160a01b0380851660008181526020819052604080822086860390559286168082529083902080548601905591517fddf252ad1be2c89b69c2b068fc378daa952ba7f163c4a11628f55a4df523b3ef9061171190869061316a565b60405180910390a361161d8484846111cf565b60006117318260196131cf565b61173c906064613197565b92915050565b61161d846323b872dd60e01b85858560405160240161176393929190612a17565b604080517fffffffffffffffffffffffffffffffffffffffffffffffffffffffffffffffe08184030181529190526020810180517bffffffffffffffffffffffffffffffffffffffffffffffffffffffff167fffffffff0000000000000000000000000000000000000000000000000000000090931692909217909152612632565b600580546001600160a01b038381167fffffffffffffffffffffffff0000000000000000000000000000000000000000831681179093556040519116919082907f8be0079c531659141344cd1fd0a4f28419497f9722a3daafe3b4186f6b6457e090600090a35050565b600260065414156118725760405162461bcd60e51b815260040161065790612ff3565b6002600655565b6000818152601a6020526040902054819060ff166118a95760405162461bcd60e51b815260040161065790612d26565b336118b26108a5565b600b556118bd610d94565b600c556118c861158b565b6009556001600160a01b038116156119f85760005b6007548110156119c8576118f182826111da565b6001600160a01b0383166000908152601b60205260408120600780549192918590811061192e57634e487b7160e01b600052603260045260246000fd5b90600052602060002001548152602001908152602001600020600501819055506119588282610a0a565b6001600160a01b0383166000908152601b60205260408120600780549192918590811061199557634e487b7160e01b600052603260045260246000fd5b906000526020600020015481526020019081526020016000206006018190555080806119c09061328a565b9150506118dd565b50600b546001600160a01b038216600090815260156020908152604080832093909355600c546016909152919020555b60008411611a185760405162461bcd60e51b815260040161065790612c24565b6008544310611a395760405162461bcd60e51b815260040161065790612e6e565b6000611a57856108f86064610904611a5089611724565b8a906115af565b601254909150611a6790826114c7565b601255601054611a7790866114c7565b601055600084815260196020526040902054611a9390866114c7565b600085815260196020908152604080832093909355338252601890522054611abb90866114c7565b33600081815260186020526040902091909155611aef90730c703e0cd79107354934f87743ff26b0d87b7905903088611742565b336000908152601b602090815260408083208784529091528120805490918791839190611b1d908490613197565b9250508190555081816001016000828254611b389190613197565b9091555060009050611b57611b508762278d006131cf565b42906114c7565b905085158015611b6b575060028201546001145b15611c31578682600201600081548110611b9557634e487b7160e01b600052603260045260246000fd5b906000526020600020016000828254611bae9190613197565b925050819055508082600301600081548110611bda57634e487b7160e01b600052603260045260246000fd5b90600052602060002001819055508282600401600081548110611c0d57634e487b7160e01b600052603260045260246000fd5b906000526020600020016000828254611c269190613197565b90915550611c779050565b60028201805460018181018355600092835260208084209092018a9055600385018054808301825590845282842001849055600485018054918201815583529120018390555b3360009081526017602052604090205460ff16611cdf576001600a6000828254611ca19190613197565b909155505033600090815260176020526040902080547fffffffffffffffffffffffffffffffffffffffffffffffffffffffffffffff001660011790555b336001600160a01b03167fb4caaf29adda3eefee3ad552a8e85058589bf834c7466cae4ee58787f70589ed888884604051611d1c93929190613173565b60405180910390a250505050505050565b6001600655565b6001600160a01b038216611d5a5760405162461bcd60e51b815260040161065790613087565b611d66600083836111cf565b8060026000828254611d789190613197565b90915550506001600160a01b038216600081815260208190526040808220805485019055517fddf252ad1be2c89b69c2b068fc378daa952ba7f163c4a11628f55a4df523b3ef90611dca90859061316a565b60405180910390a3610d5a600083836111cf565b6000828152601a6020526040812054839060ff16611e0e5760405162461bcd60e51b815260040161065790612d26565b33611e176108a5565b600b55611e22610d94565b600c55611e2d61158b565b6009556001600160a01b03811615611f5d5760005b600754811015611f2d57611e5682826111da565b6001600160a01b0383166000908152601b602052604081206007805491929185908110611e9357634e487b7160e01b600052603260045260246000fd5b9060005260206000200154815260200190815260200160002060050181905550611ebd8282610a0a565b6001600160a01b0383166000908152601b602052604081206007805491929185908110611efa57634e487b7160e01b600052603260045260246000fd5b90600052602060002001548152602001908152602001600020600601819055508080611f259061328a565b915050611e42565b50600b546001600160a01b038216600090815260156020908152604080832093909355600c546016909152919020555b336000908152601b602090815260408083208884529091528120600581015460068201548015611fcd57600083600601819055508060116000828254611fa39190613197565b9091555050336000908152601c602052604081208054839290611fc7908490613197565b90915550505b60008211801561208457506010546040517f70a08231000000000000000000000000000000000000000000000000000000008152839161208191730c703e0cd79107354934f87743ff26b0d87b7905906370a0823190612031903090600401612a03565b60206040518083038186803b15801561204957600080fd5b505afa15801561205d573d6000803e3d6000fd5b505050506040513d601f19601f820116820180604052508101906108f89190612949565b10155b156121435781600f600082825461209b919061320c565b9250508190555081600e60008282546120b49190613197565b92505081905550818360050160008282546120cf919061320c565b909155505087156120e257819350612101565b612101730c703e0cd79107354934f87743ff26b0d87b79053384612150565b336001600160a01b03167fe2403640ba68fed3a2f88b7557551d1993f84b99bb10ff833f0cf8db0c5e04868360405161213a919061316a565b60405180910390a25b5091979650505050505050565b6111cf8363a9059cbb60e01b8484604051602401611763929190612a3b565b6000828152601a6020526040902054829060ff1661219f5760405162461bcd60e51b815260040161065790612d26565b336121a86108a5565b600b556121b3610d94565b600c556121be61158b565b6009556001600160a01b038116156122ee5760005b6007548110156122be576121e782826111da565b6001600160a01b0383166000908152601b60205260408120600780549192918590811061222457634e487b7160e01b600052603260045260246000fd5b906000526020600020015481526020019081526020016000206005018190555061224e8282610a0a565b6001600160a01b0383166000908152601b60205260408120600780549192918590811061228b57634e487b7160e01b600052603260045260246000fd5b906000526020600020015481526020019081526020016000206006018190555080806122b69061328a565b9150506121d3565b50600b546001600160a01b038216600090815260156020908152604080832093909355600c546016909152919020555b6000851161230e5760405162461bcd60e51b815260040161065790612d5d565b336000908152601b6020908152604080832087845290915290206002810180548590811061234c57634e487b7160e01b600052603260045260246000fd5b90600052602060002001548611156123765760405162461bcd60e51b815260040161065790612e37565b6008544311806123b257508060030184815481106123a457634e487b7160e01b600052603260045260246000fd5b906000526020600020015442115b6123ce5760405162461bcd60e51b815260040161065790612b0d565b60006123ec876108f860646109046123e58b611724565b8c906115af565b6012549091506123fc90826115a3565b60125560105461240c90886115a3565b60105560008681526019602052604090205461242890886115a3565b60008781526019602090815260408083209390935533825260189052205461245090886115a3565b3360009081526018602052604081209190915582548891849161247490849061320c565b925050819055508082600101600082825461248f919061320c565b9250508190555060008260030186815481106124bb57634e487b7160e01b600052603260045260246000fd5b9060005260206000200181905550868260020186815481106124ed57634e487b7160e01b600052603260045260246000fd5b906000526020600020016000828254612506919061320c565b925050819055508082600401868154811061253157634e487b7160e01b600052603260045260246000fd5b90600052602060002001600082825461254a919061320c565b9091555050336000908152601860205260409020546125da576001600a6000828254612576919061320c565b909155505033600090815260176020526040812080547fffffffffffffffffffffffffffffffffffffffffffffffffffffffffffffff001690556125be906002840190612800565b6125cc600383016000612800565b6125da600483016000612800565b6125f9730c703e0cd79107354934f87743ff26b0d87b79053389612150565b336001600160a01b03167f0f5bb82176feb1b5e747e28471aa92156a04d9f3ab9f45f28e2d704232b93f7588604051611d1c919061316a565b6000612687826040518060400160405280602081526020017f5361666545524332303a206c6f772d6c6576656c2063616c6c206661696c6564815250856001600160a01b03166126c19092919063ffffffff16565b8051909150156111cf57808060200190518101906126a59190612915565b6111cf5760405162461bcd60e51b815260040161065790612f96565b6060610af7848460008585600080866001600160a01b031685876040516126e891906129e7565b60006040518083038185875af1925050503d8060008114612725576040519150601f19603f3d011682016040523d82523d6000602084013e61272a565b606091505b509150915061273b87838387612746565b979650505050505050565b606083156127805782516127795761275d8561278a565b6127795760405162461bcd60e51b815260040161065790612f5f565b5081610af7565b610af78383612799565b6001600160a01b03163b151590565b8151156127a95781518083602001fd5b8060405162461bcd60e51b81526004016106579190612a5f565b6040518060e00160405280600081526020016000815260200160608152602001606081526020016060815260200160008152602001600081525090565b5080546000825590600052602060002090810190610e3191905b8082111561282e576000815560010161281a565b5090565b80356001600160a01b03811681146109ac57600080fd5b60006020828403121561285a578081fd5b6114c082612832565b60008060408385031215612875578081fd5b61287e83612832565b915061288c60208401612832565b90509250929050565b6000806000606084860312156128a9578081fd5b6128b284612832565b92506128c060208501612832565b9150604084013590509250925092565b600080604083850312156128e2578182fd5b6128eb83612832565b946020939093013593505050565b60006020828403121561290a578081fd5b81356114c0816132d9565b600060208284031215612926578081fd5b81516114c0816132d9565b600060208284031215612942578081fd5b5035919050565b60006020828403121561295a578081fd5b5051919050565b60008060408385031215612973578182fd5b50508035926020909101359150565b600080600060608486031215612996578283fd5b505081359360208301359350604090920135919050565b6000815180845260208085019450808401835b838110156129dc578151875295820195908201906001016129c0565b509495945050505050565b600082516129f9818460208701613223565b9190910192915050565b6001600160a01b0391909116815260200190565b6001600160a01b039384168152919092166020820152604081019190915260600190565b6001600160a01b03929092168252602082015260400190565b901515815260200190565b6000602082528251806020840152612a7e816040850160208701613223565b601f017fffffffffffffffffffffffffffffffffffffffffffffffffffffffffffffffe0169190910160400192915050565b60208082526023908201527f45524332303a207472616e7366657220746f20746865207a65726f206164647260408201527f6573730000000000000000000000000000000000000000000000000000000000606082015260800190565b60208082526025908201527f54686520626c6f636b696e672074696d6520686173206e6f742079657420657860408201527f7069726564000000000000000000000000000000000000000000000000000000606082015260800190565b60208082526026908201527f4f776e61626c653a206e6577206f776e657220697320746865207a65726f206160408201527f6464726573730000000000000000000000000000000000000000000000000000606082015260800190565b60208082526022908201527f45524332303a20617070726f766520746f20746865207a65726f20616464726560408201527f7373000000000000000000000000000000000000000000000000000000000000606082015260800190565b6020808252600e908201527f43616e6e6f74207374616b652030000000000000000000000000000000000000604082015260600190565b6020808252601d908201527f45524332303a20696e73756666696369656e7420616c6c6f77616e6365000000604082015260600190565b6020808252601c908201527f5265776172642070657220626c6f636b2063616e6e6f74206265203000000000604082015260600190565b60208082526026908201527f45524332303a207472616e7366657220616d6f756e742065786365656473206260408201527f616c616e63650000000000000000000000000000000000000000000000000000606082015260800190565b60208082526013908201527f496e76616c6964206c6f636b206d6f6e74687300000000000000000000000000604082015260600190565b60208082526011908201527f43616e6e6f742077697468647261772030000000000000000000000000000000604082015260600190565b6020808252601f908201527f52657761726420746f6b656e20616d6f756e742063616e6e6f74206265203000604082015260600190565b6020808252818101527f4f776e61626c653a2063616c6c6572206973206e6f7420746865206f776e6572604082015260600190565b60208082526013908201527f446976696465722063616e6e6f74206265203000000000000000000000000000604082015260600190565b60208082526014908201527f696e73756666696369656e742062616c616e6365000000000000000000000000604082015260600190565b60208082526018908201527f726577617264206475726174696f6e2066696e69736865640000000000000000604082015260600190565b60208082526025908201527f45524332303a207472616e736665722066726f6d20746865207a65726f20616460408201527f6472657373000000000000000000000000000000000000000000000000000000606082015260800190565b60208082526024908201527f45524332303a20617070726f76652066726f6d20746865207a65726f2061646460408201527f7265737300000000000000000000000000000000000000000000000000000000606082015260800190565b6020808252601d908201527f416464726573733a2063616c6c20746f206e6f6e2d636f6e7472616374000000604082015260600190565b6020808252602a908201527f5361666545524332303a204552433230206f7065726174696f6e20646964206e60408201527f6f74207375636365656400000000000000000000000000000000000000000000606082015260800190565b6020808252601f908201527f5265656e7472616e637947756172643a207265656e7472616e742063616c6c00604082015260600190565b60208082526025908201527f45524332303a2064656372656173656420616c6c6f77616e63652062656c6f7760408201527f207a65726f000000000000000000000000000000000000000000000000000000606082015260800190565b6020808252601f908201527f45524332303a206d696e7420746f20746865207a65726f206164647265737300604082015260600190565b6000602082528251602083015260208301516040830152604083015160e060608401526130ef6101008401826129ad565b905060608401517fffffffffffffffffffffffffffffffffffffffffffffffffffffffffffffffe08085840301608086015261312b83836129ad565b925060808601519150808584030160a08601525061314982826129ad565b91505060a084015160c084015260c084015160e08401528091505092915050565b90815260200190565b9283526020830191909152604082015260600190565b60ff91909116815260200190565b600082198211156131aa576131aa6132c3565b500190565b6000826131ca57634e487b7160e01b81526012600452602481fd5b500490565b6000817fffffffffffffffffffffffffffffffffffffffffffffffffffffffffffffffff0483118215151615613207576132076132c3565b500290565b60008282101561321e5761321e6132c3565b500390565b60005b8381101561323e578181015183820152602001613226565b8381111561161d5750506000910152565b60028104600182168061326357607f821691505b6020821081141561328457634e487b7160e01b600052602260045260246000fd5b50919050565b60007fffffffffffffffffffffffffffffffffffffffffffffffffffffffffffffffff8214156132bc576132bc6132c3565b5060010190565b634e487b7160e01b600052601160045260246000fd5b8015158114610e3157600080fdfea2646970667358221220a525b83ce6a18cb7082c6700a2041f44863160d8ca4b3c64c56125d8d7985ee864736f6c63430008010033",
  "devdoc": {
    "kind": "dev",
    "methods": {
      "allowance(address,address)": {
        "details": "See {IERC20-allowance}."
      },
      "approve(address,uint256)": {
        "details": "See {IERC20-approve}. NOTE: If `amount` is the maximum `uint256`, the allowance is not updated on `transferFrom`. This is semantically equivalent to an infinite approval. Requirements: - `spender` cannot be the zero address."
      },
      "balanceOf(address)": {
        "details": "See {IERC20-balanceOf}."
      },
      "constructor": {
        "params": {
          "name_": "Name of ERC20 reward token",
          "symbol_": "Symbol of ERC20 reward token*"
        }
      },
      "decimals()": {
        "details": "Returns the number of decimals used to get its user representation. For example, if `decimals` equals `2`, a balance of `505` tokens should be displayed to a user as `5.05` (`505 / 10 ** 2`). Tokens usually opt for a value of 18, imitating the relationship between Ether and Wei. This is the value {ERC20} uses, unless this function is overridden; NOTE: This information is only used for _display_ purposes: it in no way affects any of the arithmetic of the contract, including {IERC20-balanceOf} and {IERC20-transfer}."
      },
      "decreaseAllowance(address,uint256)": {
        "details": "Atomically decreases the allowance granted to `spender` by the caller. This is an alternative to {approve} that can be used as a mitigation for problems described in {IERC20-approve}. Emits an {Approval} event indicating the updated allowance. Requirements: - `spender` cannot be the zero address. - `spender` must have allowance for the caller of at least `subtractedValue`."
      },
      "exit()": {
        "details": "Withdraw all the staked tokens and claim earned rewards."
      },
      "getReward(bool)": {
        "details": "Claim the accumulated rewards."
      },
      "increaseAllowance(address,uint256)": {
        "details": "Atomically increases the allowance granted to `spender` by the caller. This is an alternative to {approve} that can be used as a mitigation for problems described in {IERC20-approve}. Emits an {Approval} event indicating the updated allowance. Requirements: - `spender` cannot be the zero address."
      },
      "name()": {
        "details": "Returns the name of the token."
      },
      "owner()": {
        "details": "Returns the address of the current owner."
      },
      "renounceOwnership()": {
        "details": "Leaves the contract without owner. It will not be possible to call `onlyOwner` functions anymore. Can only be called by the current owner. NOTE: Renouncing ownership will leave the contract without an owner, thereby removing any functionality that is only available to the owner."
      },
      "rewardPerToken1()": {
        "details": "Calculate the rewards accumulated per token staked up to the current time.*"
      },
      "stake(uint256,uint256)": {
        "details": "Staked tokens to receive rewards.",
        "params": {
          "amount_": "Amount of tokens to be staked.",
          "lockMonths_": "lockdown months.*"
        }
      },
      "symbol()": {
        "details": "Returns the symbol of the token, usually a shorter version of the name."
      },
      "totalSupply()": {
        "details": "See {IERC20-totalSupply}."
      },
      "transfer(address,uint256)": {
        "details": "See {IERC20-transfer}. Requirements: - `to` cannot be the zero address. - the caller must have a balance of at least `amount`."
      },
      "transferFrom(address,address,uint256)": {
        "details": "See {IERC20-transferFrom}. Emits an {Approval} event indicating the updated allowance. This is not required by the EIP. See the note at the beginning of {ERC20}. NOTE: Does not update the allowance if the current allowance is the maximum `uint256`. Requirements: - `from` and `to` cannot be the zero address. - `from` must have a balance of at least `amount`. - the caller must have allowance for ``from``'s tokens of at least `amount`."
      },
      "transferOwnership(address)": {
        "details": "Transfers ownership of the contract to a new account (`newOwner`). Can only be called by the current owner."
      },
      "unstaked()": {
        "details": "Withdraw staked tokens.*"
      },
      "unstakedLock(uint256,uint256,uint256)": {
        "details": "Withdraw staked tokens.",
        "params": {
          "amount_": "Amount of tokens to be withdrawn.",
          "lockMonths_": "lockdown months.",
          "stakeDataIndex_": "index to access data for a specific stake `amount` `unlockDate`.*"
        }
      }
    },
    "stateVariables": {
      "STAKING_TOKEN": {
        "details": "Address of the token to partially pay rewards."
      },
      "_accountsWithStakeLocked": {
        "details": "account => months => StakeData"
      },
      "_balancesStaked": {
        "details": "The balance staked by an account. account => balance*"
      },
      "_monthsOfBlockingEnabled": {
        "details": "enabled blocked months: months => enabled?"
      },
      "_totalSumStakedByLock": {
        "details": "total sum of staked tokens with lock for months."
      },
      "accumulatedRewardsToken2": {
        "details": "account => cumulative token rewards 2."
      },
      "lastUpdateBlockNumber": {
        "details": "Block number of the last time the reward was received."
      },
      "rewardPerBlock": {
        "details": "Amount of reward tokens that will be distributed for each token staked."
      },
      "rewardPerToken1Stored": {
        "details": "Accumulated rewards per token staked up to the current block.number."
      },
      "rewardPerToken2Stored": {
        "details": "Accumulated rewards per token staked up to the current block.number."
      },
      "rewardTokenClaimed": {
        "details": "Total amount of token claimed."
      },
      "rewardTokenDistributed": {
        "details": "Total sum of the token distributed as a reward."
      },
      "rewardTokenSum": {
        "details": "Total token sum to be distributed as rewards."
      },
      "sumAccumulatedRewardsToken2": {
        "details": "Total sum of accumulated rewards."
      },
      "tokenRewardDivider": {
        "details": "Each token staked must be divided by this `tokenRewardDivider` value and multiplied by each elapsed block to calculate the rewards in TML*"
      },
      "totalStakers": {
        "details": "Total stakers."
      },
      "totalSumStaked": {
        "details": "Total sum of staked tokens."
      },
      "totalSumStakedVirtual": {
        "details": "Total amount of tokens staked virtual. This is used to be able to calculate rewards with a multiplier when a user locks their stake for N amount of months*"
      },
      "userRewardPaidPerToken1": {
        "details": "This represents the accumulated reward per token staked up to the moment of the last (see: lastUpdateBlockNumber) update for a specific account. account => rewardCache*"
      }
    },
    "version": 1
  },
  "userdoc": {
    "kind": "user",
    "methods": {
      "finishingBlockNumber()": {
        "notice": "`finishingBlockNumber` will store the block number to determine until which block the rewards will continue to be generated. It is calculated based on the number of tokens to be distributed as rewards that are deposited into the contract.*"
      }
    },
    "version": 1
  },
  "storageLayout": {
    "storage": [
      {
        "astId": 182,
        "contract": "contracts/MLStaking.sol:MLStaking",
        "label": "_balances",
        "offset": 0,
        "slot": "0",
        "type": "t_mapping(t_address,t_uint256)"
      },
      {
        "astId": 188,
        "contract": "contracts/MLStaking.sol:MLStaking",
        "label": "_allowances",
        "offset": 0,
        "slot": "1",
        "type": "t_mapping(t_address,t_mapping(t_address,t_uint256))"
      },
      {
        "astId": 190,
        "contract": "contracts/MLStaking.sol:MLStaking",
        "label": "_totalSupply",
        "offset": 0,
        "slot": "2",
        "type": "t_uint256"
      },
      {
        "astId": 192,
        "contract": "contracts/MLStaking.sol:MLStaking",
        "label": "_name",
        "offset": 0,
        "slot": "3",
        "type": "t_string_storage"
      },
      {
        "astId": 194,
        "contract": "contracts/MLStaking.sol:MLStaking",
        "label": "_symbol",
        "offset": 0,
        "slot": "4",
        "type": "t_string_storage"
      },
      {
        "astId": 7,
        "contract": "contracts/MLStaking.sol:MLStaking",
        "label": "_owner",
        "offset": 0,
        "slot": "5",
        "type": "t_address"
      },
      {
        "astId": 123,
        "contract": "contracts/MLStaking.sol:MLStaking",
        "label": "_status",
        "offset": 0,
        "slot": "6",
        "type": "t_uint256"
      },
      {
        "astId": 1889,
        "contract": "contracts/MLStaking.sol:MLStaking",
        "label": "_enabledMonths",
        "offset": 0,
        "slot": "7",
        "type": "t_array(t_uint256)dyn_storage"
      },
      {
        "astId": 1899,
        "contract": "contracts/MLStaking.sol:MLStaking",
        "label": "finishingBlockNumber",
        "offset": 0,
        "slot": "8",
        "type": "t_uint256"
      },
      {
        "astId": 1902,
        "contract": "contracts/MLStaking.sol:MLStaking",
        "label": "lastUpdateBlockNumber",
        "offset": 0,
        "slot": "9",
        "type": "t_uint256"
      },
      {
        "astId": 1905,
        "contract": "contracts/MLStaking.sol:MLStaking",
        "label": "totalStakers",
        "offset": 0,
        "slot": "10",
        "type": "t_uint256"
      },
      {
        "astId": 1908,
        "contract": "contracts/MLStaking.sol:MLStaking",
        "label": "rewardPerToken1Stored",
        "offset": 0,
        "slot": "11",
        "type": "t_uint256"
      },
      {
        "astId": 1911,
        "contract": "contracts/MLStaking.sol:MLStaking",
        "label": "rewardPerToken2Stored",
        "offset": 0,
        "slot": "12",
        "type": "t_uint256"
      },
      {
        "astId": 1914,
        "contract": "contracts/MLStaking.sol:MLStaking",
        "label": "rewardTokenDistributed",
        "offset": 0,
        "slot": "13",
        "type": "t_uint256"
      },
      {
        "astId": 1917,
        "contract": "contracts/MLStaking.sol:MLStaking",
        "label": "rewardTokenClaimed",
        "offset": 0,
        "slot": "14",
        "type": "t_uint256"
      },
      {
        "astId": 1920,
        "contract": "contracts/MLStaking.sol:MLStaking",
        "label": "rewardTokenSum",
        "offset": 0,
        "slot": "15",
        "type": "t_uint256"
      },
      {
        "astId": 1923,
        "contract": "contracts/MLStaking.sol:MLStaking",
        "label": "totalSumStaked",
        "offset": 0,
        "slot": "16",
        "type": "t_uint256"
      },
      {
        "astId": 1926,
        "contract": "contracts/MLStaking.sol:MLStaking",
        "label": "sumAccumulatedRewardsToken2",
        "offset": 0,
        "slot": "17",
        "type": "t_uint256"
      },
      {
        "astId": 1929,
        "contract": "contracts/MLStaking.sol:MLStaking",
        "label": "totalSumStakedVirtual",
        "offset": 0,
        "slot": "18",
        "type": "t_uint256"
      },
      {
        "astId": 1932,
        "contract": "contracts/MLStaking.sol:MLStaking",
        "label": "rewardPerBlock",
        "offset": 0,
        "slot": "19",
        "type": "t_uint256"
      },
      {
        "astId": 1935,
        "contract": "contracts/MLStaking.sol:MLStaking",
        "label": "tokenRewardDivider",
        "offset": 0,
        "slot": "20",
        "type": "t_uint256"
      },
      {
        "astId": 1940,
        "contract": "contracts/MLStaking.sol:MLStaking",
        "label": "userRewardPaidPerToken1",
        "offset": 0,
        "slot": "21",
        "type": "t_mapping(t_address,t_uint256)"
      },
      {
        "astId": 1944,
        "contract": "contracts/MLStaking.sol:MLStaking",
        "label": "userRewardPaidPerToken2",
        "offset": 0,
        "slot": "22",
        "type": "t_mapping(t_address,t_uint256)"
      },
      {
        "astId": 1948,
        "contract": "contracts/MLStaking.sol:MLStaking",
        "label": "_alreadyRegisteredStaker",
        "offset": 0,
        "slot": "23",
        "type": "t_mapping(t_address,t_bool)"
      },
      {
        "astId": 1953,
        "contract": "contracts/MLStaking.sol:MLStaking",
        "label": "_balancesStaked",
        "offset": 0,
        "slot": "24",
        "type": "t_mapping(t_address,t_uint256)"
      },
      {
        "astId": 1958,
        "contract": "contracts/MLStaking.sol:MLStaking",
        "label": "_totalSumStakedByLock",
        "offset": 0,
        "slot": "25",
        "type": "t_mapping(t_uint256,t_uint256)"
      },
      {
        "astId": 1963,
        "contract": "contracts/MLStaking.sol:MLStaking",
        "label": "_monthsOfBlockingEnabled",
        "offset": 0,
        "slot": "26",
        "type": "t_mapping(t_uint256,t_bool)"
      },
      {
        "astId": 1971,
        "contract": "contracts/MLStaking.sol:MLStaking",
        "label": "_accountsWithStakeLocked",
        "offset": 0,
        "slot": "27",
        "type": "t_mapping(t_address,t_mapping(t_uint256,t_struct(StakeData)1878_storage))"
      },
      {
        "astId": 1976,
        "contract": "contracts/MLStaking.sol:MLStaking",
        "label": "accumulatedRewardsToken2",
        "offset": 0,
        "slot": "28",
        "type": "t_mapping(t_address,t_uint256)"
      }
    ],
    "types": {
      "t_address": {
        "encoding": "inplace",
        "label": "address",
        "numberOfBytes": "20"
      },
      "t_array(t_uint256)dyn_storage": {
        "base": "t_uint256",
        "encoding": "dynamic_array",
        "label": "uint256[]",
        "numberOfBytes": "32"
      },
      "t_bool": {
        "encoding": "inplace",
        "label": "bool",
        "numberOfBytes": "1"
      },
      "t_mapping(t_address,t_bool)": {
        "encoding": "mapping",
        "key": "t_address",
        "label": "mapping(address => bool)",
        "numberOfBytes": "32",
        "value": "t_bool"
      },
      "t_mapping(t_address,t_mapping(t_address,t_uint256))": {
        "encoding": "mapping",
        "key": "t_address",
        "label": "mapping(address => mapping(address => uint256))",
        "numberOfBytes": "32",
        "value": "t_mapping(t_address,t_uint256)"
      },
      "t_mapping(t_address,t_mapping(t_uint256,t_struct(StakeData)1878_storage))": {
        "encoding": "mapping",
        "key": "t_address",
        "label": "mapping(address => mapping(uint256 => struct MLStaking.StakeData))",
        "numberOfBytes": "32",
        "value": "t_mapping(t_uint256,t_struct(StakeData)1878_storage)"
      },
      "t_mapping(t_address,t_uint256)": {
        "encoding": "mapping",
        "key": "t_address",
        "label": "mapping(address => uint256)",
        "numberOfBytes": "32",
        "value": "t_uint256"
      },
      "t_mapping(t_uint256,t_bool)": {
        "encoding": "mapping",
        "key": "t_uint256",
        "label": "mapping(uint256 => bool)",
        "numberOfBytes": "32",
        "value": "t_bool"
      },
      "t_mapping(t_uint256,t_struct(StakeData)1878_storage)": {
        "encoding": "mapping",
        "key": "t_uint256",
        "label": "mapping(uint256 => struct MLStaking.StakeData)",
        "numberOfBytes": "32",
        "value": "t_struct(StakeData)1878_storage"
      },
      "t_mapping(t_uint256,t_uint256)": {
        "encoding": "mapping",
        "key": "t_uint256",
        "label": "mapping(uint256 => uint256)",
        "numberOfBytes": "32",
        "value": "t_uint256"
      },
      "t_string_storage": {
        "encoding": "bytes",
        "label": "string",
        "numberOfBytes": "32"
      },
      "t_struct(StakeData)1878_storage": {
        "encoding": "inplace",
        "label": "struct MLStaking.StakeData",
        "members": [
          {
            "astId": 1862,
            "contract": "contracts/MLStaking.sol:MLStaking",
            "label": "amount",
            "offset": 0,
            "slot": "0",
            "type": "t_uint256"
          },
          {
            "astId": 1864,
            "contract": "contracts/MLStaking.sol:MLStaking",
            "label": "amountVirtual",
            "offset": 0,
            "slot": "1",
            "type": "t_uint256"
          },
          {
            "astId": 1867,
            "contract": "contracts/MLStaking.sol:MLStaking",
            "label": "amounts",
            "offset": 0,
            "slot": "2",
            "type": "t_array(t_uint256)dyn_storage"
          },
          {
            "astId": 1870,
            "contract": "contracts/MLStaking.sol:MLStaking",
            "label": "unlockDates",
            "offset": 0,
            "slot": "3",
            "type": "t_array(t_uint256)dyn_storage"
          },
          {
            "astId": 1873,
            "contract": "contracts/MLStaking.sol:MLStaking",
            "label": "amountsVirtual",
            "offset": 0,
            "slot": "4",
            "type": "t_array(t_uint256)dyn_storage"
          },
          {
            "astId": 1875,
            "contract": "contracts/MLStaking.sol:MLStaking",
            "label": "rewardToken1",
            "offset": 0,
            "slot": "5",
            "type": "t_uint256"
          },
          {
            "astId": 1877,
            "contract": "contracts/MLStaking.sol:MLStaking",
            "label": "rewardToken2",
            "offset": 0,
            "slot": "6",
            "type": "t_uint256"
          }
        ],
        "numberOfBytes": "224"
      },
      "t_uint256": {
        "encoding": "inplace",
        "label": "uint256",
        "numberOfBytes": "32"
      }
    }
  }
}