{
  "address": "0xd693250ACEcc40920Fd6b07Df46E1f092EB1Ae13",
  "abi": [
    {
      "inputs": [
        {
          "internalType": "string",
          "name": "name_",
          "type": "string"
        },
        {
          "internalType": "string",
          "name": "symbol_",
          "type": "string"
        },
        {
          "internalType": "uint256",
          "name": "supply_",
          "type": "uint256"
        },
        {
          "internalType": "bytes32",
          "name": "vestingTreeRoot_",
          "type": "bytes32"
        },
        {
          "internalType": "uint256",
          "name": "vestingStartTimestamp_",
          "type": "uint256"
        },
        {
          "internalType": "bytes32[]",
          "name": "proofBalance_",
          "type": "bytes32[]"
        },
        {
          "internalType": "address[]",
          "name": "treasurers_",
          "type": "address[]"
        }
      ],
      "stateMutability": "nonpayable",
      "type": "constructor"
    },
    {
      "anonymous": false,
      "inputs": [
        {
          "indexed": true,
          "internalType": "bytes32",
          "name": "root",
          "type": "bytes32"
        }
      ],
      "name": "AddedRoot",
      "type": "event"
    },
    {
      "anonymous": false,
      "inputs": [
        {
          "indexed": true,
          "internalType": "address",
          "name": "owner",
          "type": "address"
        },
        {
          "indexed": true,
          "internalType": "address",
          "name": "spender",
          "type": "address"
        },
        {
          "indexed": false,
          "internalType": "uint256",
          "name": "value",
          "type": "uint256"
        }
      ],
      "name": "Approval",
      "type": "event"
    },
    {
      "anonymous": false,
      "inputs": [
        {
          "indexed": true,
          "internalType": "address",
          "name": "previousOwner",
          "type": "address"
        },
        {
          "indexed": true,
          "internalType": "address",
          "name": "newOwner",
          "type": "address"
        }
      ],
      "name": "OwnershipTransferred",
      "type": "event"
    },
    {
      "anonymous": false,
      "inputs": [
        {
          "indexed": true,
          "internalType": "address",
          "name": "from",
          "type": "address"
        },
        {
          "indexed": true,
          "internalType": "address",
          "name": "to",
          "type": "address"
        },
        {
          "indexed": false,
          "internalType": "uint256",
          "name": "value",
          "type": "uint256"
        }
      ],
      "name": "Transfer",
      "type": "event"
    },
    {
      "anonymous": false,
      "inputs": [
        {
          "indexed": true,
          "internalType": "bytes32",
          "name": "leafHash",
          "type": "bytes32"
        }
      ],
      "name": "VestedTokenGrant",
      "type": "event"
    },
    {
      "inputs": [
        {
          "internalType": "bytes32",
          "name": "root_",
          "type": "bytes32"
        },
        {
          "internalType": "bytes32",
          "name": "newRoot_",
          "type": "bytes32"
        },
        {
          "internalType": "uint256",
          "name": "amount_",
          "type": "uint256"
        },
        {
          "internalType": "bytes32[]",
          "name": "proofBalance_",
          "type": "bytes32[]"
        },
        {
          "components": [
            {
              "internalType": "address",
              "name": "beneficiary",
              "type": "address"
            },
            {
              "internalType": "uint256",
              "name": "amount",
              "type": "uint256"
            },
            {
              "internalType": "uint256",
              "name": "cliff",
              "type": "uint256"
            },
            {
              "internalType": "bytes32[]",
              "name": "proof",
              "type": "bytes32[]"
            }
          ],
          "internalType": "struct MLTToken.VestingData[]",
          "name": "vestingSchedules_",
          "type": "tuple[]"
        }
      ],
      "name": "addRoot",
      "outputs": [],
      "stateMutability": "nonpayable",
      "type": "function"
    },
    {
      "inputs": [
        {
          "internalType": "address",
          "name": "owner",
          "type": "address"
        },
        {
          "internalType": "address",
          "name": "spender",
          "type": "address"
        }
      ],
      "name": "allowance",
      "outputs": [
        {
          "internalType": "uint256",
          "name": "",
          "type": "uint256"
        }
      ],
      "stateMutability": "view",
      "type": "function"
    },
    {
      "inputs": [
        {
          "internalType": "address",
          "name": "spender",
          "type": "address"
        },
        {
          "internalType": "uint256",
          "name": "amount",
          "type": "uint256"
        }
      ],
      "name": "approve",
      "outputs": [
        {
          "internalType": "bool",
          "name": "",
          "type": "bool"
        }
      ],
      "stateMutability": "nonpayable",
      "type": "function"
    },
    {
      "inputs": [
        {
          "internalType": "bytes32",
          "name": "",
          "type": "bytes32"
        }
      ],
      "name": "balanceByRootHash",
      "outputs": [
        {
          "internalType": "uint256",
          "name": "",
          "type": "uint256"
        }
      ],
      "stateMutability": "view",
      "type": "function"
    },
    {
      "inputs": [
        {
          "internalType": "address",
          "name": "account",
          "type": "address"
        }
      ],
      "name": "balanceOf",
      "outputs": [
        {
          "internalType": "uint256",
          "name": "",
          "type": "uint256"
        }
      ],
      "stateMutability": "view",
      "type": "function"
    },
    {
      "inputs": [
        {
          "components": [
            {
              "internalType": "address",
              "name": "beneficiary",
              "type": "address"
            },
            {
              "internalType": "uint256",
              "name": "amount",
              "type": "uint256"
            },
            {
              "internalType": "uint256",
              "name": "cliff",
              "type": "uint256"
            },
            {
              "internalType": "bytes32[]",
              "name": "proof",
              "type": "bytes32[]"
            }
          ],
          "internalType": "struct MLTToken.VestingData[]",
          "name": "vestingSchedules_",
          "type": "tuple[]"
        },
        {
          "internalType": "bytes32",
          "name": "root_",
          "type": "bytes32"
        }
      ],
      "name": "batchReleaseVested",
      "outputs": [],
      "stateMutability": "nonpayable",
      "type": "function"
    },
    {
      "inputs": [],
      "name": "decimals",
      "outputs": [
        {
          "internalType": "uint8",
          "name": "",
          "type": "uint8"
        }
      ],
      "stateMutability": "view",
      "type": "function"
    },
    {
      "inputs": [
        {
          "internalType": "address",
          "name": "spender",
          "type": "address"
        },
        {
          "internalType": "uint256",
          "name": "subtractedValue",
          "type": "uint256"
        }
      ],
      "name": "decreaseAllowance",
      "outputs": [
        {
          "internalType": "bool",
          "name": "",
          "type": "bool"
        }
      ],
      "stateMutability": "nonpayable",
      "type": "function"
    },
    {
      "inputs": [
        {
          "internalType": "address",
          "name": "spender",
          "type": "address"
        },
        {
          "internalType": "uint256",
          "name": "addedValue",
          "type": "uint256"
        }
      ],
      "name": "increaseAllowance",
      "outputs": [
        {
          "internalType": "bool",
          "name": "",
          "type": "bool"
        }
      ],
      "stateMutability": "nonpayable",
      "type": "function"
    },
    {
      "inputs": [
        {
          "internalType": "address",
          "name": "t",
          "type": "address"
        }
      ],
      "name": "isTreasurer",
      "outputs": [
        {
          "internalType": "bool",
          "name": "",
          "type": "bool"
        }
      ],
      "stateMutability": "view",
      "type": "function"
    },
    {
      "inputs": [],
      "name": "name",
      "outputs": [
        {
          "internalType": "string",
          "name": "",
          "type": "string"
        }
      ],
      "stateMutability": "view",
      "type": "function"
    },
    {
      "inputs": [],
      "name": "owner",
      "outputs": [
        {
          "internalType": "address",
          "name": "",
          "type": "address"
        }
      ],
      "stateMutability": "view",
      "type": "function"
    },
    {
      "inputs": [
        {
          "internalType": "address",
          "name": "_beneficiary",
          "type": "address"
        },
        {
          "internalType": "uint256",
          "name": "_amount",
          "type": "uint256"
        },
        {
          "internalType": "uint256",
          "name": "_cliff",
          "type": "uint256"
        },
        {
          "internalType": "bytes32",
          "name": "_root",
          "type": "bytes32"
        },
        {
          "internalType": "bytes32[]",
          "name": "_proof",
          "type": "bytes32[]"
        }
      ],
      "name": "releaseVested",
      "outputs": [],
      "stateMutability": "nonpayable",
      "type": "function"
    },
    {
      "inputs": [],
      "name": "renounceOwnership",
      "outputs": [],
      "stateMutability": "nonpayable",
      "type": "function"
    },
    {
      "inputs": [
        {
          "internalType": "bytes32",
          "name": "",
          "type": "bytes32"
        }
      ],
      "name": "rootWhitelist",
      "outputs": [
        {
          "internalType": "bool",
          "name": "",
          "type": "bool"
        }
      ],
      "stateMutability": "view",
      "type": "function"
    },
    {
      "inputs": [
        {
          "internalType": "bytes32",
          "name": "",
          "type": "bytes32"
        }
      ],
      "name": "startTimestampByRootHash",
      "outputs": [
        {
          "internalType": "uint256",
          "name": "",
          "type": "uint256"
        }
      ],
      "stateMutability": "view",
      "type": "function"
    },
    {
      "inputs": [],
      "name": "symbol",
      "outputs": [
        {
          "internalType": "string",
          "name": "",
          "type": "string"
        }
      ],
      "stateMutability": "view",
      "type": "function"
    },
    {
      "inputs": [],
      "name": "totalSupply",
      "outputs": [
        {
          "internalType": "uint256",
          "name": "",
          "type": "uint256"
        }
      ],
      "stateMutability": "view",
      "type": "function"
    },
    {
      "inputs": [
        {
          "internalType": "address",
          "name": "to",
          "type": "address"
        },
        {
          "internalType": "uint256",
          "name": "amount",
          "type": "uint256"
        }
      ],
      "name": "transfer",
      "outputs": [
        {
          "internalType": "bool",
          "name": "",
          "type": "bool"
        }
      ],
      "stateMutability": "nonpayable",
      "type": "function"
    },
    {
      "inputs": [
        {
          "internalType": "address",
          "name": "from",
          "type": "address"
        },
        {
          "internalType": "address",
          "name": "to",
          "type": "address"
        },
        {
          "internalType": "uint256",
          "name": "amount",
          "type": "uint256"
        }
      ],
      "name": "transferFrom",
      "outputs": [
        {
          "internalType": "bool",
          "name": "",
          "type": "bool"
        }
      ],
      "stateMutability": "nonpayable",
      "type": "function"
    },
    {
      "inputs": [
        {
          "internalType": "address",
          "name": "newOwner",
          "type": "address"
        }
      ],
      "name": "transferOwnership",
      "outputs": [],
      "stateMutability": "nonpayable",
      "type": "function"
    },
    {
      "inputs": [
        {
          "internalType": "address",
          "name": "_beneficiary",
          "type": "address"
        },
        {
          "internalType": "uint256",
          "name": "_amount",
          "type": "uint256"
        },
        {
          "internalType": "uint256",
          "name": "_cliff",
          "type": "uint256"
        },
        {
          "internalType": "bytes32",
          "name": "_root",
          "type": "bytes32"
        },
        {
          "internalType": "bytes32[]",
          "name": "_proof",
          "type": "bytes32[]"
        }
      ],
      "name": "verifyProof",
      "outputs": [
        {
          "internalType": "bool",
          "name": "",
          "type": "bool"
        }
      ],
      "stateMutability": "view",
      "type": "function"
    },
    {
      "inputs": [
        {
          "internalType": "bytes32",
          "name": "",
          "type": "bytes32"
        }
      ],
      "name": "vestingClaimed",
      "outputs": [
        {
          "internalType": "bool",
          "name": "",
          "type": "bool"
        }
      ],
      "stateMutability": "view",
      "type": "function"
    }
  ],
  "transactionHash": "0x8b6ac9a436a47e116d8135b6eeb89fad32d206103f2e7da98f58f8c56ca920ee",
  "args": [
    "MLTToken",
    "MLT",
    400000000,
    "0x7c7b5c6f32878dcbcb31fb979d1575c3c54fa1eeb3e0f167ec9b993fc5ebfb67",
    1566259200,
    [
      "0x6b0dd1c82f5bb4f7269c507df58af80a2023b6e831ea2d910de48263d5e6c3fe",
      "0x8f23e0be2a7b4b4aed2e6d973a351abbdb63f41c5fbfa36724fda5366601693e",
      "0x81df752d5145e64ef647fbd0b590172af276b420a3b9a1cce21579dd7158f91a"
    ],
    [
      "0xBc67849Ae7A1dc56b457eC4FAA504023f6cBDDb5",
      "0xC076fDba9aC2c1144f52ee2aC9BD4f3317F79182",
      "0xe2A234EfF72C66B5Fa77D22449DaDcDC5f6558a9",
      "0x7179fDEf7bcC5a81ca87809068E56235b2A98225",
      "0x974F4D27550df2a89f682aB9A3e64920293a300d",
      "0xd51c8fccbd3CdC5484baaac3B7cEaF8b2b364a24",
      "0x4a5F795eD0905019c947C8BcC3d026498DE0B849",
      "0x95CB237CEbcDeEfF8862727c874B2B4d7225bE2A",
      "0x5ae5851Bb09e99e7c19e12986142B5A8053bdC8e",
      "0x2392EEEfcfcC42118cB11ACE7e6dB3cAA6Dc4E0C"
    ]
  ],
  "numDeployments": 2,
  "solcInputHash": "79e2bc8566b1dde8b76987107e7b518e",
  "bytecode": "0x60806040523480156200001157600080fd5b50604051620026e3380380620026e38339810160408190526200003491620005c9565b8651879087906200004d906003906020850190620003a8565b50805162000063906004906020840190620003a8565b505050620000806200007a620001db60201b60201c565b620001df565b60006200008c62000231565b6200009990600a620007ff565b620000a59087620008e4565b9050600081604051602001620000bc91906200069a565b604051602081830303815290604052805190602001209050620000ec8487836200023660201b62000bb61760201c565b620001145760405162461bcd60e51b81526004016200010b90620006a3565b60405180910390fd5b60005b83518110156200018f576001600a60008684815181106200014857634e487b7160e01b600052603260045260246000fd5b6020908102919091018101516001600160a01b03168252810191909152604001600020805460ff191691151591909117905580620001868162000943565b91505062000117565b506000868152600960209081526040808320805460ff191660011790556007825280832085905560089091529020859055620001cc308362000250565b5050505050505050506200098d565b3390565b600580546001600160a01b038381166001600160a01b0319831681179093556040519116919082907f8be0079c531659141344cd1fd0a4f28419497f9722a3daafe3b4186f6b6457e090600090a35050565b601290565b60008262000245858462000309565b1490505b9392505050565b6001600160a01b038216620002795760405162461bcd60e51b81526004016200010b906200070e565b620002876000838362000371565b80600260008282546200029b919062000797565b90915550506001600160a01b038216600081815260208190526040808220805485019055517fddf252ad1be2c89b69c2b068fc378daa952ba7f163c4a11628f55a4df523b3ef90620002ef9085906200069a565b60405180910390a3620003056000838362000371565b5050565b600081815b8451811015620003695762000352828683815181106200033e57634e487b7160e01b600052603260045260246000fd5b60200260200101516200037660201b60201c565b915080620003608162000943565b9150506200030e565b509392505050565b505050565b600081831062000392576200038c828462000399565b62000249565b6200024983835b60009182526020526040902090565b828054620003b69062000906565b90600052602060002090601f016020900481019282620003da576000855562000425565b82601f10620003f557805160ff191683800117855562000425565b8280016001018555821562000425579182015b828111156200042557825182559160200191906001019062000408565b506200043392915062000437565b5090565b5b8082111562000433576000815560010162000438565b600082601f8301126200045f578081fd5b8151602062000478620004728362000771565b62000745565b828152818101908583018385028701840188101562000495578586fd5b855b85811015620004ca5781516001600160a01b0381168114620004b7578788fd5b8452928401929084019060010162000497565b5090979650505050505050565b600082601f830112620004e8578081fd5b81516020620004fb620004728362000771565b828152818101908583018385028701840188101562000518578586fd5b855b85811015620004ca578151845292840192908401906001016200051a565b600082601f83011262000549578081fd5b81516001600160401b0381111562000565576200056562000977565b60206200057b601f8301601f1916820162000745565b82815285828487010111156200058f578384fd5b835b83811015620005ae57858101830151828201840152820162000591565b83811115620005bf57848385840101525b5095945050505050565b600080600080600080600060e0888a031215620005e4578283fd5b87516001600160401b0380821115620005fb578485fd5b620006098b838c0162000538565b985060208a01519150808211156200061f578485fd5b6200062d8b838c0162000538565b975060408a0151965060608a0151955060808a0151945060a08a015191508082111562000658578384fd5b620006668b838c01620004d7565b935060c08a01519150808211156200067c578283fd5b506200068b8a828b016200044e565b91505092959891949750929550565b90815260200190565b60208082526045908201527f54686520746f74616c20737570706c79206f662074686520636f6e747261637460408201527f20646f6573206e6f74206d617463682074686174206f6620746865206d65726b606082015264657472656560d81b608082015260a00190565b6020808252601f908201527f45524332303a206d696e7420746f20746865207a65726f206164647265737300604082015260600190565b6040518181016001600160401b038111828210171562000769576200076962000977565b604052919050565b60006001600160401b038211156200078d576200078d62000977565b5060209081020190565b60008219821115620007ad57620007ad62000961565b500190565b80825b6001808611620007c65750620007f6565b818704821115620007db57620007db62000961565b80861615620007e957918102915b9490941c938002620007b5565b94509492505050565b60006200024960001960ff8516846000826200081e5750600162000249565b816200082d5750600062000249565b8160018114620008465760028114620008515762000885565b600191505062000249565b60ff84111562000865576200086562000961565b6001841b9150848211156200087e576200087e62000961565b5062000249565b5060208310610133831016604e8410600b8410161715620008b7575081810a838111156200038c576200038c62000961565b620008c68484846001620007b2565b808604821115620008db57620008db62000961565b02949350505050565b600081600019048311821515161562000901576200090162000961565b500290565b6002810460018216806200091b57607f821691505b602082108114156200093d57634e487b7160e01b600052602260045260246000fd5b50919050565b60006000198214156200095a576200095a62000961565b5060010190565b634e487b7160e01b600052601160045260246000fd5b634e487b7160e01b600052604160045260246000fd5b611d46806200099d6000396000f3fe608060405234801561001057600080fd5b506004361061018d5760003560e01c80636846782f116100e35780639edbc3721161008c578063cc0d50e611610066578063cc0d50e614610318578063dd62ed3e1461032b578063f2fde38b1461033e5761018d565b80639edbc372146102df578063a457c2d7146102f2578063a9059cbb146103055761018d565b80638d22c741116100bd5780638d22c741146102af5780638da5cb5b146102c257806395d89b41146102d75761018d565b80636846782f1461028157806370a0823114610294578063715018a6146102a75761018d565b8063313ce567116101455780633ea166821161011f5780633ea16682146102485780635166d4401461025b57806366f809ac1461026e5761018d565b8063313ce5671461020d57806339509351146102225780633d1851c4146102355761018d565b806318160ddd1161017657806318160ddd146101d057806323b872dd146101e55780632790100c146101f85761018d565b806306fdde0314610192578063095ea7b3146101b0575b600080fd5b61019a610351565b6040516101a7919061151a565b60405180910390f35b6101c36101be366004611324565b6103e3565b6040516101a7919061150f565b6101d8610405565b6040516101a791906114e5565b6101c36101f33660046112e9565b61040b565b61020b6102063660046113bc565b610439565b005b61021561053a565b6040516101a79190611b75565b6101c3610230366004611324565b61053f565b61020b61024336600461134d565b61056b565b6101c3610256366004611406565b610581565b6101c361026936600461134d565b610596565b6101c361027c366004611406565b610631565b61020b61028f36600461141e565b610646565b6101d86102a236600461129d565b610a1d565b61020b610a49565b6101d86102bd366004611406565b610a5d565b6102ca610a6f565b6040516101a791906114ee565b61019a610a8b565b6101d86102ed366004611406565b610a9a565b6101c3610300366004611324565b610aac565b6101c3610313366004611324565b610af4565b6101c361032636600461129d565b610b0c565b6101d86103393660046112b7565b610b37565b61020b61034c36600461129d565b610b6f565b60606003805461036090611c54565b80601f016020809104026020016040519081016040528092919081815260200182805461038c90611c54565b80156103d95780601f106103ae576101008083540402835291602001916103d9565b820191906000526020600020905b8154815290600101906020018083116103bc57829003601f168201915b5050505050905090565b6000806103ee610bcc565b90506103fb818585610bd0565b5060019392505050565b60025490565b600080610416610bcc565b9050610423858285610cab565b61042e858585610d0d565b506001949350505050565b60005b8281101561053457600080600036600061049f898988818110610488577f4e487b7100000000000000000000000000000000000000000000000000000000600052603260045260246000fd5b905060200281019061049a9190611be8565b610e42565b9450945094509450945060008585856040516020016104c0939291906114a8565b604080517fffffffffffffffffffffffffffffffffffffffffffffffffffffffffffffffe081840301815291815281516020928301206000818152600690935291205490915060ff1661051b5761051b8686868b8787610e7e565b505050505050808061052c90611ca8565b91505061043c565b50505050565b601290565b60008061054a610bcc565b90506103fb81858561055c8589610b37565b6105669190611c25565b610bd0565b610579868686868686610e7e565b505050505050565b60066020526000908152604090205460ff1681565b60008381526009602052604081205460ff166105b457506000610627565b60008787876040516020016105cb939291906114a8565b604051602081830303815290604052805190602001209050610623848480806020026020016040519081016040528093929190818152602001838360200280828437600092019190915250899250859150610bb69050565b9150505b9695505050505050565b60096020526000908152604090205460ff1681565b336000908152600a602052604090205460ff1661067e5760405162461bcd60e51b815260040161067590611a27565b60405180910390fd5b60008560405160200161069191906114e5565b6040516020818303038152906040528051906020012090506106e98585808060200260200160405190810160405280939291908181526020018383602002808284376000920191909152508b9250859150610bb69050565b6107055760405162461bcd60e51b815260040161067590611a5e565b876000805b848110156109455760008060003660006107568b8b88818110610488577f4e487b7100000000000000000000000000000000000000000000000000000000600052603260045260246000fd5b945094509450945094503373ffffffffffffffffffffffffffffffffffffffff168573ffffffffffffffffffffffffffffffffffffffff16146107ab5760405162461bcd60e51b8152600401610675906117a2565b60008585856040516020016107c2939291906114a8565b604080517fffffffffffffffffffffffffffffffffffffffffffffffffffffffffffffffe081840301815291815281516020928301206000818152600690935291205490915060ff1661092c5761084f8383808060200260200160405190810160405280939291908181526020018383602002808284376000920191909152508d9250859150610bb69050565b61086b5760405162461bcd60e51b8152600401610675906118ff565b6000898152600760205260409020548511156108995760405162461bcd60e51b815260040161067590611abb565b600081815260066020908152604080832080547fffffffffffffffffffffffffffffffffffffffffffffffffffffffffffffff001660011790558b83526007909152812080548792906108ed908490611c3d565b909155506108fd90508589611c25565b60405190985081907f81df9be81a1e520bb17ab54843276df78fe5510181714e04451a5d10191475b190600090a25b505050505050808061093d90611ca8565b91505061070a565b5060008981526009602052604090205460ff16156109755760405162461bcd60e51b8152600401610675906115e8565b8088146109945760405162461bcd60e51b81526004016106759061161f565b600089815260096020908152604080832080547fffffffffffffffffffffffffffffffffffffffffffffffffffffffffffffff00166001179055600782528083208b90558483526008909152808220548b835281832055518a917f84b2306c1af1fc3a139e6c617f8f31cf5a55850bfb6f4536f64f8cf082f5269791a250505050505050505050565b73ffffffffffffffffffffffffffffffffffffffff81166000908152602081905260409020545b919050565b610a516110af565b610a5b6000611108565b565b60086020526000908152604090205481565b60055473ffffffffffffffffffffffffffffffffffffffff1690565b60606004805461036090611c54565b60076020526000908152604090205481565b600080610ab7610bcc565b90506000610ac58286610b37565b905083811015610ae75760405162461bcd60e51b815260040161067590611b18565b61042e8286868403610bd0565b600080610aff610bcc565b90506103fb818585610d0d565b73ffffffffffffffffffffffffffffffffffffffff166000908152600a602052604090205460ff1690565b73ffffffffffffffffffffffffffffffffffffffff918216600090815260016020908152604080832093909416825291909152205490565b610b776110af565b73ffffffffffffffffffffffffffffffffffffffff8116610baa5760405162461bcd60e51b815260040161067590611654565b610bb381611108565b50565b600082610bc3858461117f565b14949350505050565b3390565b73ffffffffffffffffffffffffffffffffffffffff8316610c035760405162461bcd60e51b8152600401610675906119ca565b73ffffffffffffffffffffffffffffffffffffffff8216610c365760405162461bcd60e51b8152600401610675906116b1565b73ffffffffffffffffffffffffffffffffffffffff80841660008181526001602090815260408083209487168084529490915290819020849055517f8c5be1e5ebec7d5bd14f71427d1e84f3dd0314c0f7b2291e5b200ac8c7c3b92590610c9e9085906114e5565b60405180910390a3505050565b6000610cb78484610b37565b90507fffffffffffffffffffffffffffffffffffffffffffffffffffffffffffffffff81146105345781811015610d005760405162461bcd60e51b81526004016106759061170e565b6105348484848403610bd0565b73ffffffffffffffffffffffffffffffffffffffff8316610d405760405162461bcd60e51b815260040161067590611936565b73ffffffffffffffffffffffffffffffffffffffff8216610d735760405162461bcd60e51b81526004016106759061158b565b610d7e8383836111f3565b73ffffffffffffffffffffffffffffffffffffffff831660009081526020819052604090205481811015610dc45760405162461bcd60e51b815260040161067590611745565b73ffffffffffffffffffffffffffffffffffffffff80851660008181526020819052604080822086860390559286168082529083902080548601905591517fddf252ad1be2c89b69c2b068fc378daa952ba7f163c4a11628f55a4df523b3ef90610e2f9086906114e5565b60405180910390a36105348484846111f3565b600080803681610e55602087018761129d565b60208701356040880135610e6c60608a018a611b83565b939a9299509097509550909350915050565b600083815260096020526040902054839060ff16610eae5760405162461bcd60e51b815260040161067590611893565b6000878787604051602001610ec5939291906114a8565b604051602081830303815290604052805190602001209050610f1d848480806020026020016040519081016040528093929190818152602001838360200280828437600092019190915250899250859150610bb69050565b610f395760405162461bcd60e51b8152600401610675906118ff565b60008181526006602052604090205460ff1615610f685760405162461bcd60e51b815260040161067590611993565b600085815260076020526040902054871115610f965760405162461bcd60e51b815260040161067590611abb565b600085815260086020526040902054610fb0908790611c25565b421015610fcf5760405162461bcd60e51b8152600401610675906117ff565b73ffffffffffffffffffffffffffffffffffffffff88166000908152600a602052604090205460ff16156110155760405162461bcd60e51b81526004016106759061185c565b600081815260066020908152604080832080547fffffffffffffffffffffffffffffffffffffffffffffffffffffffffffffff00166001179055878352600790915281208054899290611069908490611c3d565b9091555061107a9050308989610d0d565b60405181907f81df9be81a1e520bb17ab54843276df78fe5510181714e04451a5d10191475b190600090a25050505050505050565b6110b7610bcc565b73ffffffffffffffffffffffffffffffffffffffff166110d5610a6f565b73ffffffffffffffffffffffffffffffffffffffff1614610a5b5760405162461bcd60e51b8152600401610675906118ca565b6005805473ffffffffffffffffffffffffffffffffffffffff8381167fffffffffffffffffffffffff0000000000000000000000000000000000000000831681179093556040519116919082907f8be0079c531659141344cd1fd0a4f28419497f9722a3daafe3b4186f6b6457e090600090a35050565b600081815b84518110156111eb576111d7828683815181106111ca577f4e487b7100000000000000000000000000000000000000000000000000000000600052603260045260246000fd5b60200260200101516111f8565b9150806111e381611ca8565b915050611184565b509392505050565b505050565b60008183106112105761120b8284611221565b61121a565b61121a8383611221565b9392505050565b60009182526020526040902090565b803573ffffffffffffffffffffffffffffffffffffffff81168114610a4457600080fd5b60008083601f840112611265578182fd5b50813567ffffffffffffffff81111561127c578182fd5b602083019150836020808302850101111561129657600080fd5b9250929050565b6000602082840312156112ae578081fd5b61121a82611230565b600080604083850312156112c9578081fd5b6112d283611230565b91506112e060208401611230565b90509250929050565b6000806000606084860312156112fd578081fd5b61130684611230565b925061131460208501611230565b9150604084013590509250925092565b60008060408385031215611336578182fd5b61133f83611230565b946020939093013593505050565b60008060008060008060a08789031215611365578182fd5b61136e87611230565b9550602087013594506040870135935060608701359250608087013567ffffffffffffffff81111561139e578283fd5b6113aa89828a01611254565b979a9699509497509295939492505050565b6000806000604084860312156113d0578283fd5b833567ffffffffffffffff8111156113e6578384fd5b6113f286828701611254565b909790965060209590950135949350505050565b600060208284031215611417578081fd5b5035919050565b600080600080600080600060a0888a031215611438578081fd5b873596506020880135955060408801359450606088013567ffffffffffffffff80821115611464578283fd5b6114708b838c01611254565b909650945060808a0135915080821115611488578283fd5b506114958a828b01611254565b989b979a50959850939692959293505050565b60609390931b7fffffffffffffffffffffffffffffffffffffffff0000000000000000000000001683526014830191909152603482015260540190565b90815260200190565b73ffffffffffffffffffffffffffffffffffffffff91909116815260200190565b901515815260200190565b6000602080835283518082850152825b818110156115465785810183015185820160400152820161152a565b818111156115575783604083870101525b50601f017fffffffffffffffffffffffffffffffffffffffffffffffffffffffffffffffe016929092016040019392505050565b60208082526023908201527f45524332303a207472616e7366657220746f20746865207a65726f206164647260408201527f6573730000000000000000000000000000000000000000000000000000000000606082015260800190565b60208082526018908201527f526f6f74206861736820616c7265616479206578697374730000000000000000604082015260600190565b6020808252818101527f416d6f756e7420697320646966666572656e742066726f6d2062616c616e6365604082015260600190565b60208082526026908201527f4f776e61626c653a206e6577206f776e657220697320746865207a65726f206160408201527f6464726573730000000000000000000000000000000000000000000000000000606082015260800190565b60208082526022908201527f45524332303a20617070726f766520746f20746865207a65726f20616464726560408201527f7373000000000000000000000000000000000000000000000000000000000000606082015260800190565b6020808252601d908201527f45524332303a20696e73756666696369656e7420616c6c6f77616e6365000000604082015260600190565b60208082526026908201527f45524332303a207472616e7366657220616d6f756e742065786365656473206260408201527f616c616e63650000000000000000000000000000000000000000000000000000606082015260800190565b60208082526028908201527f596f752063616e277420636c61696d20746f6b656e732066726f6d20616e6f7460408201527f6865722075736572000000000000000000000000000000000000000000000000606082015260800190565b60208082526024908201527f5468652072656c65617365206461746520686173206e6f74207965742061727260408201527f6976656400000000000000000000000000000000000000000000000000000000606082015260800190565b6020808252601d908201527f547265617375726572732063616e277420636c61696d20746f6b656e73000000604082015260600190565b60208082526011908201527f4973206e6f742076616c696420726f6f74000000000000000000000000000000604082015260600190565b6020808252818101527f4f776e61626c653a2063616c6c6572206973206e6f7420746865206f776e6572604082015260600190565b60208082526014908201527f496e76616c6964206d65726b6c652070726f6f66000000000000000000000000604082015260600190565b60208082526025908201527f45524332303a207472616e736665722066726f6d20746865207a65726f20616460408201527f6472657373000000000000000000000000000000000000000000000000000000606082015260800190565b60208082526016908201527f546f6b656e7320616c726561647920636c61696d656400000000000000000000604082015260600190565b60208082526024908201527f45524332303a20617070726f76652066726f6d20746865207a65726f2061646460408201527f7265737300000000000000000000000000000000000000000000000000000000606082015260800190565b60208082526019908201527f43616c6c6572206973206e6f7420612074726561737572657200000000000000604082015260600190565b60208082526034908201527f54686520737570706c792073656e7420646f6573206e6f74206d61746368207460408201527f686174206f6620746865206d65726b6574726565000000000000000000000000606082015260800190565b60208082526028908201527f537570706c79206973206e6f7420656e6f75676820746f20636c61696d20616c60408201527f6c6f636174696f6e000000000000000000000000000000000000000000000000606082015260800190565b60208082526025908201527f45524332303a2064656372656173656420616c6c6f77616e63652062656c6f7760408201527f207a65726f000000000000000000000000000000000000000000000000000000606082015260800190565b60ff91909116815260200190565b60008083357fffffffffffffffffffffffffffffffffffffffffffffffffffffffffffffffe1843603018112611bb7578283fd5b83018035915067ffffffffffffffff821115611bd1578283fd5b602090810192508102360382131561129657600080fd5b600082357fffffffffffffffffffffffffffffffffffffffffffffffffffffffffffffff81833603018112611c1b578182fd5b9190910192915050565b60008219821115611c3857611c38611ce1565b500190565b600082821015611c4f57611c4f611ce1565b500390565b600281046001821680611c6857607f821691505b60208210811415611ca2577f4e487b7100000000000000000000000000000000000000000000000000000000600052602260045260246000fd5b50919050565b60007fffffffffffffffffffffffffffffffffffffffffffffffffffffffffffffffff821415611cda57611cda611ce1565b5060010190565b7f4e487b7100000000000000000000000000000000000000000000000000000000600052601160045260246000fdfea264697066735822122065c6a648640f14bfdeba17a62a7902910111cc8f9e4f36d18fad007bc02ecfe664736f6c63430008000033",
  "devdoc": {
    "kind": "dev",
    "methods": {
      "addRoot(bytes32,bytes32,uint256,bytes32[],(address,uint256,uint256,bytes32[])[])": {
        "details": "Add a new merkle tree hash",
        "params": {
          "amount_": "Balance that is assigned to new merkle tree",
          "newRoot_": "New merkle tree root",
          "proofBalance_": "Merkle proof",
          "root_": "Merkle tree root of treasurer",
          "vestingSchedules_": "Array of vestingData*"
        }
      },
      "allowance(address,address)": {
        "details": "See {IERC20-allowance}."
      },
      "approve(address,uint256)": {
        "details": "See {IERC20-approve}. NOTE: If `amount` is the maximum `uint256`, the allowance is not updated on `transferFrom`. This is semantically equivalent to an infinite approval. Requirements: - `spender` cannot be the zero address."
      },
      "balanceOf(address)": {
        "details": "See {IERC20-balanceOf}."
      },
      "batchReleaseVested((address,uint256,uint256,bytes32[])[],bytes32)": {
        "details": "Release vesting in batches",
        "params": {
          "root_": "Merkle tree root*",
          "vestingSchedules_": "Array of vesting schedule"
        }
      },
      "constructor": {
        "params": {
          "name_": "Name of ERC20 token",
          "proofBalance_": "Proof of total balance",
          "supply_": "Supply of ERC20 token",
          "symbol_": "Symbol of ERC20 token",
          "treasurers_": "Addresses of authorized treasurers*",
          "vestingStartTimestamp_": "Timestamp of vesting start as seconds since the Unix epoch",
          "vestingTreeRoot_": "Vesting tree root hash"
        }
      },
      "decimals()": {
        "details": "Returns the number of decimals used to get its user representation. For example, if `decimals` equals `2`, a balance of `505` tokens should be displayed to a user as `5.05` (`505 / 10 ** 2`). Tokens usually opt for a value of 18, imitating the relationship between Ether and Wei. This is the value {ERC20} uses, unless this function is overridden; NOTE: This information is only used for _display_ purposes: it in no way affects any of the arithmetic of the contract, including {IERC20-balanceOf} and {IERC20-transfer}."
      },
      "decreaseAllowance(address,uint256)": {
        "details": "Atomically decreases the allowance granted to `spender` by the caller. This is an alternative to {approve} that can be used as a mitigation for problems described in {IERC20-approve}. Emits an {Approval} event indicating the updated allowance. Requirements: - `spender` cannot be the zero address. - `spender` must have allowance for the caller of at least `subtractedValue`."
      },
      "increaseAllowance(address,uint256)": {
        "details": "Atomically increases the allowance granted to `spender` by the caller. This is an alternative to {approve} that can be used as a mitigation for problems described in {IERC20-approve}. Emits an {Approval} event indicating the updated allowance. Requirements: - `spender` cannot be the zero address."
      },
      "name()": {
        "details": "Returns the name of the token."
      },
      "owner()": {
        "details": "Returns the address of the current owner."
      },
      "releaseVested(address,uint256,uint256,bytes32,bytes32[])": {
        "details": "Release vesting associated with an address",
        "params": {
          "_amount": "Amount vested tokens to be released",
          "_beneficiary": "Address of beneficiary",
          "_cliff": "Lock delay for release",
          "_proof": "Merkle proof*",
          "_root": "Merkle tree root"
        }
      },
      "renounceOwnership()": {
        "details": "Leaves the contract without owner. It will not be possible to call `onlyOwner` functions anymore. Can only be called by the current owner. NOTE: Renouncing ownership will leave the contract without an owner, thereby removing any functionality that is only available to the owner."
      },
      "symbol()": {
        "details": "Returns the symbol of the token, usually a shorter version of the name."
      },
      "totalSupply()": {
        "details": "See {IERC20-totalSupply}."
      },
      "transfer(address,uint256)": {
        "details": "See {IERC20-transfer}. Requirements: - `to` cannot be the zero address. - the caller must have a balance of at least `amount`."
      },
      "transferFrom(address,address,uint256)": {
        "details": "See {IERC20-transferFrom}. Emits an {Approval} event indicating the updated allowance. This is not required by the EIP. See the note at the beginning of {ERC20}. NOTE: Does not update the allowance if the current allowance is the maximum `uint256`. Requirements: - `from` and `to` cannot be the zero address. - `from` must have a balance of at least `amount`. - the caller must have allowance for ``from``'s tokens of at least `amount`."
      },
      "transferOwnership(address)": {
        "details": "Transfers ownership of the contract to a new account (`newOwner`). Can only be called by the current owner."
      },
      "verifyProof(address,uint256,uint256,bytes32,bytes32[])": {
        "details": "Verify the validity of merkle proof associated with an address",
        "params": {
          "_amount": "Amount vested tokens to be released",
          "_beneficiary": "Address of beneficiary",
          "_cliff": "Lock delay for release",
          "_proof": "Merkle proof*",
          "_root": "Merkle tree root"
        }
      }
    },
    "stateVariables": {
      "_treasurers": {
        "details": "Addresses of authorized treasurers Treasurer => true|false*"
      },
      "balanceByRootHash": {
        "details": "Total balance of vesting tree by root hash Root hash => balance*"
      },
      "rootWhitelist": {
        "details": "Root hash record of valid vesting trees Root hash => valid*"
      },
      "startTimestampByRootHash": {
        "details": "Timestamp start of the allocation as seconds since the Unix epoch by root hash Root hash => timestamp*"
      },
      "vestingClaimed": {
        "details": "Record of user withdrawals by cliff leaf = keccak256(abi.encodePacked(_beneficiary, _amount, _cliff)) leaf => claimed*"
      }
    },
    "version": 1
  },
  "userdoc": {
    "kind": "user",
    "methods": {},
    "version": 1
  },
  "storageLayout": {
    "storage": [
      {
        "astId": 128,
        "contract": "contracts/MLTToken.sol:MLTToken",
        "label": "_balances",
        "offset": 0,
        "slot": "0",
        "type": "t_mapping(t_address,t_uint256)"
      },
      {
        "astId": 134,
        "contract": "contracts/MLTToken.sol:MLTToken",
        "label": "_allowances",
        "offset": 0,
        "slot": "1",
        "type": "t_mapping(t_address,t_mapping(t_address,t_uint256))"
      },
      {
        "astId": 136,
        "contract": "contracts/MLTToken.sol:MLTToken",
        "label": "_totalSupply",
        "offset": 0,
        "slot": "2",
        "type": "t_uint256"
      },
      {
        "astId": 138,
        "contract": "contracts/MLTToken.sol:MLTToken",
        "label": "_name",
        "offset": 0,
        "slot": "3",
        "type": "t_string_storage"
      },
      {
        "astId": 140,
        "contract": "contracts/MLTToken.sol:MLTToken",
        "label": "_symbol",
        "offset": 0,
        "slot": "4",
        "type": "t_string_storage"
      },
      {
        "astId": 7,
        "contract": "contracts/MLTToken.sol:MLTToken",
        "label": "_owner",
        "offset": 0,
        "slot": "5",
        "type": "t_address"
      },
      {
        "astId": 1350,
        "contract": "contracts/MLTToken.sol:MLTToken",
        "label": "vestingClaimed",
        "offset": 0,
        "slot": "6",
        "type": "t_mapping(t_bytes32,t_bool)"
      },
      {
        "astId": 1355,
        "contract": "contracts/MLTToken.sol:MLTToken",
        "label": "balanceByRootHash",
        "offset": 0,
        "slot": "7",
        "type": "t_mapping(t_bytes32,t_uint256)"
      },
      {
        "astId": 1360,
        "contract": "contracts/MLTToken.sol:MLTToken",
        "label": "startTimestampByRootHash",
        "offset": 0,
        "slot": "8",
        "type": "t_mapping(t_bytes32,t_uint256)"
      },
      {
        "astId": 1365,
        "contract": "contracts/MLTToken.sol:MLTToken",
        "label": "rootWhitelist",
        "offset": 0,
        "slot": "9",
        "type": "t_mapping(t_bytes32,t_bool)"
      },
      {
        "astId": 1370,
        "contract": "contracts/MLTToken.sol:MLTToken",
        "label": "_treasurers",
        "offset": 0,
        "slot": "10",
        "type": "t_mapping(t_address,t_bool)"
      }
    ],
    "types": {
      "t_address": {
        "encoding": "inplace",
        "label": "address",
        "numberOfBytes": "20"
      },
      "t_bool": {
        "encoding": "inplace",
        "label": "bool",
        "numberOfBytes": "1"
      },
      "t_bytes32": {
        "encoding": "inplace",
        "label": "bytes32",
        "numberOfBytes": "32"
      },
      "t_mapping(t_address,t_bool)": {
        "encoding": "mapping",
        "key": "t_address",
        "label": "mapping(address => bool)",
        "numberOfBytes": "32",
        "value": "t_bool"
      },
      "t_mapping(t_address,t_mapping(t_address,t_uint256))": {
        "encoding": "mapping",
        "key": "t_address",
        "label": "mapping(address => mapping(address => uint256))",
        "numberOfBytes": "32",
        "value": "t_mapping(t_address,t_uint256)"
      },
      "t_mapping(t_address,t_uint256)": {
        "encoding": "mapping",
        "key": "t_address",
        "label": "mapping(address => uint256)",
        "numberOfBytes": "32",
        "value": "t_uint256"
      },
      "t_mapping(t_bytes32,t_bool)": {
        "encoding": "mapping",
        "key": "t_bytes32",
        "label": "mapping(bytes32 => bool)",
        "numberOfBytes": "32",
        "value": "t_bool"
      },
      "t_mapping(t_bytes32,t_uint256)": {
        "encoding": "mapping",
        "key": "t_bytes32",
        "label": "mapping(bytes32 => uint256)",
        "numberOfBytes": "32",
        "value": "t_uint256"
      },
      "t_string_storage": {
        "encoding": "bytes",
        "label": "string",
        "numberOfBytes": "32"
      },
      "t_uint256": {
        "encoding": "inplace",
        "label": "uint256",
        "numberOfBytes": "32"
      }
    }
  }
}